:020000040000FA
:10000000D80F0020F100000011010000D500000011
:1000100000000000000000000000000000000000E0
:1000200000000000000000000000000015010000BA
:10003000000000000000000017010000190100008E
:100040001B0100001B0100001B0100001B01000040
:100050001B0100001B0100001B0100001B01000030
:100060005D4700001B0100001B0100001B01000098
:10007000814700008B4700001B0100001B010000AE
:100080001B0100001B0100001B0100001B01000000
:100090001B0100001B0100001B0100001B010000F0
:1000A0001B0100001B0100001B0100001B010000E0
:1000B0001B0100001B0100001B0100001B010000D0
:1000C0000348854600F014F9004800470F5500002A
:1000D000D80F002004207146084202D0EFF30980B7
:1000E00001E0EFF308807146004A1047A12F00009D
:1000F0000A480B4901600B4901600B4901600B4A3A
:100100000B491160002101600A4880470A480047F6
:10011000FEE7FEE7FEE7FEE7FEE7FEE70001005030
:100120005900000016000000880000002400005064
:10013000A55A00005D460000C100000030B50B4626
:10014000014600202022012409E00D46D5409D42B1
:1001500005D31D469540491B254695404019154637
:10016000521E002DF1DC30BD70B50024254600285C
:1001700001DA01244042002901DA01254942FFF752
:10018000DDFFAC4200D04042002C00D0494270BD9F
:1001900010B5431A934209D28318881803E0401E11
:1001A00001785B1E1970521EF9D210BD03460B4335
:1001B0009B0703D009E008C9121F08C0042AFAD21D
:1001C00003E00B780370401C491C521EF9D210BD8D
:1001D000D2B201E00270401C491EFBD270470022DF
:1001E000F6E710B513460A4604461946FFF7F0FF36
:1001F000204610BDCAB2401E4178401C8A4202D03F
:100200000029F9D100207047421C0178401C0029C8
:10021000FBD1801A704710B5002200E0521C835CAD
:100220008C5CA34201D1002BF8D1D8B2E1B2401AC4
:1002300010BD03460A780270401C491C002AF9D1FF
:100240001846704770B5002800D11068002514E0EA
:100250000B4602E0A64203D05B1C1C78002CF9D1AF
:10026000E3B22B4307D0002C06D0002D04D0002190
:100270000170401C04E00546401C0678002EE7D1C2
:100280001060284670BD014ADCE70000C400002071
:10029000F0B51FB40646002082B005464024019107
:1002A00000901BE0019922460F46304600F042F8CC
:1002B000049A059B801A994110D31046194622468C
:1002C00000F028F8361A8F410197224601200021BC
:1002D000009F00F01FF838184D4100902046641E22
:1002E0000028DFDC019B00982946324607B0F0BDAC
:1002F000064C0125064E05E0E36807CC2B430C3C79
:1003000098471034B442F7D3FFF7DEFE147E0000A6
:10031000347E000010B5202A04DB0146203A9140CB
:10032000002010BD914020239C1A0346E34019434E
:10033000904010BD10B5202A04DB0846203AD0407A
:10034000002110BD0B46D340D0402024A21A91407A
:100350000843194610BD000010B504460DA1204603
:10036000FFF759FF002812D10C49086000BF0C4864
:1003700000880C4908400A4908800846008808801F
:1003800000BF0846008802F0A1FF204610BD0020F3
:10039000FCE700004F4B0D0A000000004400002065
:1003A0004A000020FFF0000010B504460CA12046D2
:1003B000FFF731FF002801D1204610BD09A12046DA
:1003C000FFF729FF002808D10848094908600948B3
:1003D000008802F02BFF2046EFE70020EDE7000049
:1003E0000D0A00004F4B0D0A00000000BD0F000079
:1003F000440000204800002010B5044640A12046DB
:10040000FFF709FF002801D1204610BD3DA120467D
:10041000FFF701FF002810D100BF3D4800883D498B
:1004200008403B49088008460088012149020843EA
:100430003749088000BF2046E7E737A12046FFF78D
:10044000EAFE002809D1364908603649086030487C
:10045000008802F03BFF2046D7E733A12046FFF794
:10046000DAFE002804D130A02E4908602046CCE7EF
:100470002FA12046FFF7CFFE002804D12CA0294948
:1004800008602046C1E72DA12046FFF7C4FE0028E2
:1004900019D100BF1E4800881E4908401C49088029
:1004A00008460088088000BF1E480068002808D061
:1004B00000201B4908601B4908601548008802F0AD
:1004C00005FF2046A1E71FA12046FFF7A4FE002854
:1004D00014D1134908601349086000BF0C48008814
:1004E0000C4908400A49088008460088088000BF77
:1004F0000846008802F0EAFE204686E7002084E7EE
:100500000D0A0000434F4E4E4543540D0A000000B3
:100510004A000020FFF000004F4B0D0A00000000D1
:10052000440000204C0000206E6F2069700D0A000E
:10053000444E53204661696C0D0A00004552524FEB
:10054000520D0A00434C4F5345440D0A0000000071
:1005500010B5044641A12046FFF75DFE002801D1F9
:10056000204610BD3EA12046FFF755FE00280FD1C2
:1005700000BF40480088404908403E49088008467E
:100580000088202108433B49088000BF2046E8E757
:100590003AA12046FFF73FFE00280FD100BF3548A3
:1005A00000883549084033490880084600884021C2
:1005B00008433049088000BF2046D2E733A12046D7
:1005C000FFF729FE002807D1324908602948008832
:1005D00002F07CFE2046C4E72FA12046FFF71BFE59
:1005E00000280CD100BF2348008823490840214936
:1005F000088008460088088000BF2046B1E72BA18C
:10060000204607F06FF800280CD000BF194800887A
:10061000194908401749088008460088088000BF2B
:1006200020469EE723A12046FFF7F5FD002812D1C2
:100630001849086000BF0F4800880F4908400D495D
:10064000088008460088088000BF0846008802F03D
:100650003DFE204685E7002083E700000D0A0000EC
:100660005749464920434F4E4E45435445440D0A91
:10067000000000004A0000200FFF000057494649D3
:1006800020474F542049500D0A0000004F4B0D0ADF
:1006900000000000440000205749464920444953C7
:1006A000434F4E4E4543540D0A0000002B43574A1A
:1006B00041503A004641494C0D0A000010B504462D
:1006C00012A12046FFF7A7FD002801D1204610BD4A
:1006D0000FA12046FFF79FFD002815D10E490860A5
:1006E00000BF0E4800880E4908400C4908800846A3
:1006F0000088022108430949088000BF0846008895
:1007000002F0E4FD2046E2E70020E0E70D0A0000E9
:100710004F4B0D0A00000000440000204A0000205A
:10072000F0FF000010B504460DA12046FFF773FD51
:10073000002801D1204610BD0AA12046FFF76BFD1D
:10074000002801D12046F6E709A12046FFF763FD06
:10075000002803D1084908602046ECE70020EAE7BA
:100760000D0A000041542B43575141500D0A00001F
:100770004F4B0D0A000000004400002010B5044655
:1007800016A12046FFF747FD002801D1204610BDE5
:1007900013A12046FFF73FFD00281CD11248134942
:1007A000086000BF124800881249084010490880BC
:1007B00008460088502108430D49088000BF0846BC
:1007C000008802F083FD0C4A08210C48007806F0EE
:1007D0000EFF2046DBE70020D9E700000D0A0000ED
:1007E0004F4B0D0A00000000250D000044000020C2
:1007F0004A0000200FFF000060EA00002C000020EB
:1008000010B5044612A12046FFF705FD002801D1CE
:10081000204610BD0FA12046FFF7FDFC002815D192
:100820000E49086000BF0E4800880E4908400C4978
:10083000088008460088902108430949088000BFC5
:100840000846008802F042FD2046E2E70020E0E78B
:100850000D0A00004F4B0D0A00000000440000206C
:100860004A0000200FFF0000F8B50746DFA1384618
:10087000FFF7D1FC002801D13846F8BDDCA138468D
:1008800006F030FF0646002E43D0082006F05EFD3D
:10089000054600BF002D01D104F0B2FD00BF0420C9
:1008A00028703A213046FFF7A5FC0446002020704E
:1008B000641C00BF6946304604F0B2FC002801D138
:1008C00004F09EFD00BF009868802078641C0090B2
:1008D0000098000200902078641C00990843009062
:1008E0000098000200902078641C00990843009052
:1008F0000098000200902078641C00990843009042
:10090000009868602946BC48007806F0F5FD384636
:10091000B3E7BAA13846FFF77EFC002801D138467C
:10092000ABE7B7A13846FFF776FC002813D100BF2C
:10093000B5480088B5490840B34908800846008892
:1009400001210843B049088000BF0846008802F032
:10095000BDFC384691E7AEA13846FFF75CFC0028A5
:1009600014D100BFA8480088A849E1390840A64929
:1009700008800846008820210843A349088000BF5A
:100980000846008802F0A2FC384676E7A5A1384662
:10099000FFF741FC002814D100BF9B4800889B4909
:1009A000E1390840984908800846008840210843FA
:1009B0009549088000BF0846008802F087FC384649
:1009C0005BE79CA13846FFF726FC002811D100BF49
:1009D0008D4800888D49E13908408B4908800846D8
:1009E0000088088000BF0846008802F06FFC384687
:1009F00043E795A13846FFF70EFC002810D100BF51
:100A000081480088934908407F490880084600884B
:100A1000088000BF0846008802F058FC38462CE7E2
:100A20008DA13846FFF7F7FB002801D1384624E7AF
:100A30008C480068002870D18BA1384606F052FE21
:100A4000002804D08C4887490860384615E78BA1F8
:100A5000384606F047FE002817D08C4881490860C8
:100A600000BF694800886949E13908406649088043
:100A700008460088302108436349088000BF0846C3
:100A8000008802F023FC3846F7E681A1384606F0DC
:100A900029FE002804D08348724908603846ECE6F5
:100AA00081A1384606F01EFE002817D082486D4905
:100AB000086000BF544800886649084052490880D1
:100AC00008460088FF21013108434F49088000BFD4
:100AD0000846008802F0FAFB3846CEE677A1384691
:100AE00006F000FE0646002E18D077485D490860E3
:100AF0000D213046FFF77EFB0021017000BF6946E3
:100B0000304604F08DFB002801D104F079FC00BFD1
:100B10006E49009808803846AFE664E06CA138461C
:100B200006F0E0FD002817D06E484E49086000BF6F
:100B3000354800883549E13908403349088008467E
:100B40000088602108433049088000BF08460088BB
:100B500002F0BCFB384690E663A13846FFF75BFB2A
:100B6000002817D164483F49086000BF2648008824
:100B700038490840244908800846008803210902B2
:100B800008432149088000BF0846008802F09EFB08
:100B9000384672E659A13846FFF73DFB002804D1DC
:100BA0005B4830490860384667E65AA13846FFF787
:100BB00032FB002817D15A482A49086000BF124862
:100BC00000881249E13908400F490880084600882A
:100BD000102108430C49088000BF0846008802F035
:100BE00075FB384649E6002047E600000D0A000084
:100BF0002B4950442C0000002C000020726C000097
:100C000072656164790D0A004A000020F0FF00005F
:100C10005749464920434F4E4E45435445440D0ADB
:100C2000000000005749464920474F542049500DC5
:100C30000A0000005749464920444953434F4E4E4D
:100C40004543540D0A000000434C4F5345440D0AE0
:100C500000000000FFF000006275737920702E2EF6
:100C60002E0D0A004400002041542B43574D4F44A1
:100C7000455F4355523D0000BD06000041542B43E3
:100C8000574A41505F4355523D0000005105000056
:100C900041542B43575354415254534D4152543DA8
:100CA000000000007D07000041542B43495053547D
:100CB0004152543D00000000F903000041542B4311
:100CC000495053454E443D00A90300004800002010
:100CD000736D617274636F6E666967207479706595
:100CE0003A000000250D000041542B434950434C6D
:100CF0004F53450D0A0000005903000041542B4397
:100D00005753544F50534D4152540D0A00000000A8
:100D10000108000041542B43575141500D0A000077
:100D20002507000070B5054672A1284606F0DAFCDA
:100D300000280CD008217448007806F06AFC734A39
:100D400008217148007806F052FC284670BD70A159
:100D50002846FFF760FA00280CD108216A4800787D
:100D600006F057FC694A08216748007806F03FFC06
:100D70002846EBE76CA1284606F0B4FC0446002C9C
:100D800015D00D212046FFF735FA002101702046CD
:100D900002F020FA08215C48007806F03AFC5B4A31
:100DA00008215948007806F022FC2846CEE760A1C9
:100DB000284606F097FC0446002C15D00D2120464D
:100DC000FFF718FA00210170204602F0D7F9082138
:100DD0004D48007806F01DFC4C4A08214A4800782E
:100DE00006F005FC2846B1E754A12846FFF713FAA0
:100DF00000280CD108214448007806F00AFC434A38
:100E000008214148007806F0F2FB28469EE750A1F1
:100E10002846FFF700FA00280CD108213A4800784C
:100E200006F0F7FB394A08213748007806F0DFFB67
:100E300028468BE74AA12846FFF7EDF900281AD18A
:100E40004F49086000BF4F4800884F4908404D494E
:100E5000088008460088702108434A49088000BF7E
:100E60000846008802F032FA08212748007806F088
:100E7000D0FB28466AE745A1284606F033FC002847
:100E80000CD008212048007806F0C3FB1F4A082137
:100E90001D48007806F0ABFB284657E73DA12846E1
:100EA000FFF7B9F900281AD13549086000BF354865
:100EB0000088354908403349088008460088802169
:100EC00008433049088000BF0846008802F0FEF958
:100ED00008210D48007806F09CFB284636E732A131
:100EE0002846FFF798F9002802D1254908602DE728
:100EF00000202BE7736D617274636F6E6669672003
:100F0000747970653A0000002C00002060EA00004F
:100F1000536D617274206765742077696669206912
:100F20006E666F0D0A000000737369643A0000007A
:100F300070617373776F72643A00000057494649D5
:100F400020434F4E4E45435445440D0A00000000D7
:100F50005749464920474F542049500D0A00000088
:100F6000736D617274636F6E66696720636F6E6E16
:100F7000656374656420776966690D0A0000000086
:100F8000440000204A0000200FFF00004448435066
:100F9000000000005749464920444953434F4E4EF4
:100FA0004543540D0A00000041542B435753544FFE
:100FB00050534D4152540D0A0000000010B5044634
:100FC00023A12046FFF727F9002801D1204610BDB4
:100FD00020A12046FFF71FF9002801D12046F6E79F
:100FE0001EA1204606F07EFB002801D02046EEE739
:100FF0001CA12046FFF70FF9002805D11C49086005
:1010000002F02CF92046E2E71AA12046FFF703F987
:1010100000280CD100BF1A4800881A490840184916
:10102000088008460088088000BF2046CFE716A148
:101030002046FFF7F0F8002807D10D490860104856
:10104000008802F043F92046C1E70020BFE7000016
:101050000D0A00003E200D0A000000005265637674
:101060002000000053454E44204F4B0D0A00000065
:1010700044000020434C4F5345440D0A000000003B
:101080004A000020FFF0000053454E4420464149ED
:101090004C0D0A0070B50546214805700020214915
:1010A00008602149086001F0F5F9410801208843F2
:1010B0001E49087001201E49087000201D49087053
:1010C0001A480078002803D01BA001F0F7FC02E0CA
:1010D0001DA001F0F3FC20A001F0F0FC00240CE0C6
:1010E000204600F077FF064601F0D6FC042C02DA19
:1010F0002D2001F0A9FC601CC4B2052CF0DB11A06E
:1011000001F0DCFC7D23DB0032220021042001F011
:10111000DBF97D22D2000121284606F068FA70BD75
:1011200014000020180000201C00002020000020D7
:101130002100002022000020446F6F72206F706534
:101140006E65642E0D0A0000446F6F7220636C6F31
:101150007365642E0D0A00005B44455649445D3AB0
:1011600000000000F3B593B00C460120C0032040FE
:10117000002816D0139806F08BF9074609E0384688
:1011800003F039FF384606F0F8F8139806F080F9B6
:101190000746002FF3D120460121C903484015B06E
:1011A000F0BD10202040002806D088A003F05EFC8F
:1011B000204610214840F2E704202040002806D0B5
:1011C000012084490870204604214840E7E70220B6
:1011D0002040002864D002F04BF8422857D140202C
:1011E00006F060FC064600BF002E01D104F008F9AD
:1011F00000BF4AE00020129011901090304604F099
:1012000071F80546002D03D173A004F0CFF83CE03F
:101210001296129E019610AA78A11298FFF712F862
:1012200011AA77A11098FFF70DF80FA9109803F0F5
:10123000F7FF002803D168A004F0B8F825E069465C
:101240000F9808811198401E11902F201199087055
:10125000119800906B4803906B4805906B48049080
:10126000684603F051FB304606F068FBFF23F53378
:1012700032220021012001F027F9FF23F533322229
:101280000021022001F020F900E0B3E704E0604A09
:101290000221139806F0ABF92046022148407EE770
:1012A000E007C00F002864D001F0E2FF022803D05D
:1012B00001F0DEFF922852D1202006F0F3FB0B90C4
:1012C00000BF0B98002801D104F09AF800BF0B98DA
:1012D00003F0E9FF0546002D30D0202006F0E2FBA8
:1012E0000C9000BF0C98002801D104F089F800BFD1
:1012F0000C9803F0B9FF054600200C994855454865
:101300000E9045480D9000BF0BA801F0F7FF002894
:1013100001D004F075F800BF0C9806F00FFB0B9895
:1013200006F00CFBFF23F53332220021012001F0EF
:10133000CBF80021022001F0C5F916E00B9806F069
:10134000FDFA364806903648099036480A903648E5
:1013500008903648079006A801F090FF05E07D222E
:10136000D2000121139806F042F92046012148409D
:1013700015E708202040002808D02DA17D20C000BE
:1013800003F064FA20460821484008E72020204066
:10139000002809D001220021FF202D3000F0F2FCAE
:1013A000204620214840FAE64020204000280AD06C
:1013B0000F22AF218900FF202D3000F0E3FC2046F2
:1013C00040214840EBE60020E9E600004068656106
:1013D00072740000210000207777772E66617464B4
:1013E0007261676F6E686B2E636F6D3A383038309C
:1013F0002F6D7948616E646C657200003A000000E0
:101400002F0000004D650000C1640000B1650000C0
:10141000B80B0000556B0000896B0000A16D000047
:10142000316C0000B56B0000196D00005D6D0000AF
:101430004E6F20636F6D6D756E69636174696F6E59
:1014400020666F72203630207365632E0000000026
:10145000810F8900064A89184968C306DB0E0122FC
:101460009A401143820F9200014BD218516070478D
:1014700000020050F3B589B00C4601200004534926
:101480000862099800280ED1084600680121084327
:101490004E490860012000F029FA002006904C48CF
:1014A000089002250EE04948006804210843474996
:1014B0000860102000F01AFA0120C0040690454888
:1014C000089004254448844204D84010844201D93D
:1014D000002712E04148844205D84010844202D9D6
:1014E0000127640009E03E48844205D84010844248
:1014F00002D30327A40000E057E00020C04303907C
:1015000000200190029034E029460898FEF716FE6C
:1015100005903449059888422AD93349059888426C
:1015200026D2022007901EE0059E07994E432B48C5
:10153000864215D34000864212D8A64201D9301BFC
:1015400000E0A01B049003990498884208D20498F4
:1015500003900195079802900398002800D106E0B7
:101560000798401C0790214907988842DCD900BFA2
:101570006D1C212DC8D9B803069908430199891E0D
:10158000490208430299891E084310490862042051
:1015900000F0ACF9781C019A504301460898FEF718
:1015A000CDFD029948430BB0F0BD0998002803D146
:1015B0000F480649086202E00E4804490862042008
:1015C00000F094F900F060F8EDE700000002005030
:1015D0000080BB000080510100C2EB0B00E1F5056B
:1015E00080F0FA02006A1800C0E1E4000102000085
:1015F0002EC200006FD60000024909680143014A6B
:101600001160704700020050FEB5002002901AA041
:10161000006800901948046A00132040002801D097
:101620000020FEBD0120C0042040002801D0144D40
:1016300000E0144D012040042040002801D028463D
:10164000EFE7032080032040800B69460A5C01928B
:10165000E005C00D861C1F2040022040400A871C68
:10166000019A7A431146AA0872431046FEF766FDB6
:10167000800002900298D4E70102020400020050A8
:10168000008051010080BB00FEB5002002901AA02E
:10169000006800901948046A00132040002801D017
:1016A0000020FEBD0120C0042040002801D0144DC0
:1016B00000E0144D012040042040002801D02846BD
:1016C000EFE7032080032040800B69460A5C01920B
:1016D000E005C00D861C1F2040022040400A871CE8
:1016E000019A7A431146AA0872431046FEF726FD76
:1016F000800002900298D4E7010202040002005028
:10170000008051010080BB00FEB5002002901AA0AD
:10171000006800901948046A00132040002801D096
:101720000020FEBD0120C0042040002801D0144D3F
:1017300000E0144D012040042040002801D028463C
:10174000EFE7032080032040800B69460A5C01928A
:10175000E005C00D861C1F2040022040400A871C67
:10176000019A7A431146AA0872431046FEF7E6FC36
:10177000800002900298D4E70102020400020050A7
:10178000008051010080BB0070B504462348C0684A
:101790001021084005462248844201D9044603E04E
:1017A0002048844200D204461C48006804210843B3
:1017B0001A490860102000F099F8184800690721BC
:1017C00008431649086108468069000900018861DC
:1017D00008460068C007C00F002805D02146002039
:1017E000FFF748FE04460AE021460120C004FFF747
:1017F00041FE04460948C068102108400546002102
:10180000022000F011F8002D05D1044800680421E1
:10181000884302490860204670BD00000002005065
:1018200080F0FA0240787D0170B504460D461548F7
:10183000C068102108400646124800680843114954
:101840000860102000F052F80E480069C008C0007F
:10185000C01D0C4908610846806900090001284341
:10186000886108460069C008C0002043086102F092
:10187000C3FE002E05D103480068102188430149AA
:10188000086070BD00020050F0B50B460021002436
:1018900000250601760F002E0FD08600B60FB60089
:1018A000114FF41921680601770FC601F60EB740F3
:1018B0000E46BE431E43314621608603360E002E7F
:1018C00010D00603B60FB600074F0837F519296880
:1018D0008603360EF6438705FF0EBE400E401643C4
:1018E00031462960F0BD0000100200500146074A51
:1018F00005E01046521E002801DC00207047044815
:10190000C06808408842F4D10120F7E7804F1200F8
:101910000002005003480068400840000149086088
:101920007047000000C000500348006801210843D0
:10193000014908607047000000C0005070B50346C0
:1019400000200FE0012484400C40002C09D01C68CA
:1019500046000325B540AC4346001546B5402C4330
:101960001C60401C0828EDD370BD014608784A78F9
:10197000120210438A7812041043CA7812061043E8
:101980007047000000200149086070478042005005
:101990000120014908607047804200500020014941
:1019A000C86170470042005010B5FFF7EBFF002000
:1019B000084908600849086008490860012001F0EA
:1019C00073F9044600BF002C01D003F019FD00BFDD
:1019D00010BD00008000002084000020880000204E
:1019E0007CB500200090002535E19F480088002844
:1019F0002BDD9E480068002807D0684600789C4987
:101A000009688988994A1268505499480068808802
:101A1000401C9749096888809548006880889249E9
:101A20000988884210D191480068002806D000211A
:101A30008F48006880888D4A1268115400208B49B5
:101A40000860894908800125E6E089480068002887
:101A500013D1082006F026F88549086000BF084623
:101A60000068002801D103F0CBFC00BF00208049B2
:101A7000096808607E49096888807D480068808818
:101A80007F282BDA7A4800680068002805D180207A
:101A900006F008F876490968086000BF74480068D5
:101AA0000068002801D103F0ABFC00BF6846017854
:101AB0006F48006882886E4800688088401C6C4BC4
:101AC0001B6898806A480068006881540021684853
:101AD00000680068664A12689288815468460078F7
:101AE0003A287DD16248006880880A2878DC6049FD
:101AF000096808685FA105F0F5FD002870D0022193
:101B00005E48007805F042FD0021594800680268EF
:101B1000574800688088401E80B2554B1B689880EB
:101B2000115400BF524909680968481D01A903F012
:101B300077FB002801D103F063FC00BF3A214C4839
:101B4000006882884A4800688088401C484B1B68AF
:101B5000988047480068006881544349019808808C
:101B6000084600884649884206DC3F480088401CF9
:101B700005F098FF3D4908603C480068000E3C496C
:101B800009688A883A4909688988491C384B1B6862
:101B90009980374909680968885434480068000208
:101BA000010E334800688288314800688088401CF4
:101BB0002F4B1B6898802E480068006881542B4882
:101BC00000880004010E2A480068828828480068BE
:101BD0008088401C264B1B6898802548006800E0E0
:101BE00015E0006881542148027821480068818806
:101BF0001F4800688088401C1D4B1B6898801C484B
:101C000000680068425400201949096888806846C5
:101C100000780A2800D10125012D1CD1082005F0EB
:101C200095FB044600BF002C01D103F0E9FB00BF87
:101C3000002020700E4800680068606021460F4850
:101C4000007805F059FC0A48006805F077FE00208E
:101C50000749086000256946012000F04DFF002873
:101C600000D1C2E67CBD00008C0000208400002072
:101C7000800000202B4950442C0000002C00002044
:101C8000B405000070B500241A48006800282FD061
:101C90001AE0002C03D1012001F0D8F80446002CF2
:101CA00011DD00BF1348006805F099FA0546294682
:101CB000012001F081F8002801D003F0A1FB00BF52
:101CC000601E84B200E005E00A48006805F0B4FA3E
:101CD0000028DED100BF0748006805F0ADFA0028F3
:101CE00006D10448006805F067FA00200149086041
:101CF00070BD00008800002010B5044603E0207885
:101D0000641C00F017F820780028F8D110BDFEB54B
:101D100005466946284605F0FDFC0646002405E018
:101D20006946085D00F006F8601CC4B2B442F7DBF7
:101D3000FEBD000010B5044610480068002803D11D
:101D400005F02CFA0D49086000BF0C480068002817
:101D500001D103F055FB00BF00BF214607480068D2
:101D600005F06DFA002801D103F04AFB00BF012104
:101D7000C9020348007805F009FC10BD8800002066
:101D80006800002070B504460D46164622480068DB
:101D9000002806D02048006805F0D0FD00201E492C
:101DA000086003F045FB40211C48007805F0DEF98F
:101DB00040211A48007805F02CFC002C2ADD002E6A
:101DC00026DD082005F06EFE1349086000BF0846B6
:101DD0000068002801D103F013FB00BF0822002196
:101DE0000D48006805F0A8FA0B48006804800A480E
:101DF00000684580002D01D1012000E030460649F1
:101E00000968087140210548007805F0BFFB01E032
:101E100003F01AFB70BD0000900000206800002055
:101E200000200149086070479000002010B500BFF5
:101E30002A480068002801D103F0E2FA00BF00BF81
:101E4000264800680088002801DC03F0D9FA00BFAA
:101E500000BF224800680079002801DC03F0D0FAB6
:101E600000BF1E48006840791C490968897988428A
:101E700011DC03F0E9FA194800684079401C174961
:101E800009684871154800680288402114480078A4
:101E900005F0ADFB20E003F0CBFA10480068807934
:101EA000401C0E49096888710C48006840790B494C
:101EB00009680979884207DB0848006805F03EFD9B
:101EC00000200649086007E0044800684288402175
:101ED0000348007805F08BFB10BD00009000002047
:101EE0006800002010B500BF06E0592034490860A2
:101EF0001620086088200860314800680128F4D165
:101F000000BFFFF711FD002418E000BF0B202D4992
:101F1000C8600020486001200861BFF36F8F00BFD8
:101F200000BF28480069C007C00F0028F9D1254824
:101F30008068A100244A5050601CC4B2012CE4DB2C
:101F4000002418E000BF0C201E49C860042048602F
:101F500001200861BFF36F8F00BF00BF19480069FF
:101F6000C007C00F0028F9D116488068A100174AA1
:101F70005050601CC4B2012CE4DB002416E0204663
:101F80000421104AD1608100516001211161BFF329
:101F90006F8F00BF00BF0B4909690029FBD10949B8
:101FA0008968A0000A4A1150601CC4B2032CE6DB09
:101FB000FFF7B0FC00BF00200149086000BF10BD62
:101FC0000001005000C00050780000207C0000207C
:101FD000500100200146012903DA88000A4A1058FE
:101FE0007047481EC1B2012903DA8800074A105819
:101FF000F6E7481EC1B2032903DA8800044A1058E4
:10200000EEE70020ECE70000780000207C000020D4
:102010005001002010B500F0B5FAFFF763FF00F0A3
:1020200035FCFFF7C1FC00F00BFA0C21002000F09A
:1020300001F90321012000F0FDF8FFF7F1FE10BDCA
:1020400010B5044600BF204840690121090340182B
:102050001D494969401AA04201D803F0D1F900BFD7
:1020600000BFE005C00D002801D003F0C9F900BF92
:1020700002F0B2FAFFF758FC134949690819222106
:10208000114AD1601146486001211161BFF36F8F81
:1020900000BF00BF0C4909690029FBD10A49096842
:1020A00040221140002905D0074909681143064A1A
:1020B000116000E000BFFFF72DFC00BF00200349C6
:1020C000086000BF10BD000000C0005000010050BB
:1020D000F8B505460E46174600BF2648406901215F
:1020E0000903401823494969401AA84201D803F05E
:1020F00087F900BF00BFA807800F002801D003F0B8
:102100007FF900BF00BF002E01D103F079F900BFB5
:1021100000BF002F01DC03F073F900BF02F05CFA8E
:10212000FFF702FC00241AE0124949694919A2008C
:10213000881800210F4AD1601146486001211161C1
:10214000BFF36F8F00BF00BF0A4909690029FBD1A7
:1021500008498968A0003150601C80B20446BC4226
:10216000E2DBFFF7D7FB00BF00200349086000BF98
:10217000F8BD000000C0005000010050F8B5054651
:102180000F46164600BF294840690121090340183F
:1021900026494969401AA84201D803F031F900BF25
:1021A00000BFA807800F002801D003F029F900BF65
:1021B00000BF002F01D103F023F900BF00BF002EA4
:1021C00001DC03F01DF900BF00BF802E01D903F030
:1021D00017F900BF02F000FAFFF7A6FB00241AE08F
:1021E000124A52695219A300D118A200B8582122EC
:1021F0000E4BDA601A465160906001221A61BFF3FB
:102200006F8F00BF00BF094A1269002AFBD100BFCF
:10221000601C80B20446B442E2DBFFF77BFB00BFE8
:1022200000200349086000BFF8BD000000C0005056
:102230000001005070B504460D4600BF022C01DBC2
:1022400003F0DEF800BFA00001494018C57070BD62
:102250004401002010B500F01DF9044600F002F81A
:1022600010BD0000F8B506467148007A7040074678
:102270000024D6E00120A040384000285BD0012097
:10228000A0403040002857D000BFA0006849431844
:102290007D2212012146674804F026FF002801D064
:1022A00003F0AEF800BFA00061494018807801211A
:1022B0000843A1005E4A89188870A00011464018A2
:1022C000C07810210840002819D000BFA000114696
:1022D0004018431C7D2252012146574804F004FF58
:1022E000002801D003F08CF800BFA000504940182E
:1022F000807802210843A1004D4A89188870A00007
:102300004B494018C078C007C00F0028B6D0032042
:1023100005F01CF8054600BF002D01D103F070F850
:1023200000BF002028700121A9706C702946434825
:10233000007805F0E1F872E0A0003D49401880788F
:10234000C007C00F002830D000BFA100384A505C41
:1023500004F0D8FE002801D003F052F800BFA0001E
:1023600033494018807840084000A100304A89185D
:102370008870A00011464018C07804210840002849
:1023800013D0032004F0E2FF054600BF002D01D169
:1023900003F036F800BF002028700421A9706C708B
:1023A00029462648007805F0A7F8A00020494018E3
:1023B000807802210840002815D000BFA1001C4AE7
:1023C0008918487804F09EFE002801D003F018F820
:1023D00000BFA00016494018807802218843A10060
:1023E000134A89188870A00011494018C07802214A
:1023F0000840002813D0032004F0A8FF054600BFC2
:10240000002D01D102F0FCFF00BF00202870022146
:10241000A9706C7029460948007805F06DF8601CB9
:10242000C4B2022C00DA25E701480672F8BD0000AC
:1024300044010020B15E00000D5F00001400002088
:1024400010B509220021024804F076FF10BD0000FB
:102450004401002010B500BF32221021044800784A
:1024600005F0C5F8002801D002F0CAFF00BF10BD7A
:102470006800002010B500F00DF80446044800780C
:10248000844203D0FFF7E6FF0148047010BD00004E
:102490007700002000200B494969002901D1012162
:1024A00000E00021084307494039896A002901D129
:1024B000012100E000214900084300BF00BF00BF28
:1024C0007047000080420050FFB581B005461746B6
:1024D000002D48D0002F46D00498002843D0642F08
:1024E0003CDA0126AD06AD0E224C2AE028463040EB
:1024F000002823D02078022808DA30461E490978BF
:1025000008401E49097808431C49087000202070C3
:102510000498A080A770029860700298002803D1E8
:10252000207804210843207004F01AFEA06020786F
:102530000221084320702846704005467006060EAA
:102540000C34002DD2D120210D48007805F061F81F
:1025500020210B48007805F019F808E001212846F1
:1025600000F0B0F803E00021284600F0ABF805B019
:10257000F0BD000010010020740000207600002053
:102580006800002010B500BF012208211548FFF7A0
:10259000D5F9012220211348FFF7D0F901220821A3
:1025A0001048C030FFF7CAF9012210210D48C03091
:1025B000FFF7C4F9012202210B48FFF7BFF90122FE
:1025C00040210948FFF7BAF9012280210648FFF7A8
:1025D000B5F900BF00213F2000F074F80021034846
:1025E000017410BD00400050004100503001002037
:1025F000C207D20F002A08D0012903D101222F4B94
:10260000DA6002E000222D4BDA6002220240002A4A
:102610000AD0012904D10122284B80335A6003E0FB
:102620000022264B80335A6004220240002A08D040
:10263000012903D10122214B5A6102E000221F4BE4
:102640005A6108220240002A0AD0012904D100223E
:102650001A4B40331A6303E00122184B40331A63CC
:1026600010220240002A0AD0012904D10122134B72
:1026700080339A6103E00022104B80339A6120225C
:102680000240002A0AD0012904D101220B4B8033D9
:10269000DA6103E00022094B8033DA61002905D0BA
:1026A000074A12780243064B1A7006E0FF224240A6
:1026B000034B1B781A40024B1A70704700420050BF
:1026C00074000020F8B505460E46330002F036FAD5
:1026D00009171606360E3636361836007D23DB000F
:1026E000052201212846FFF7EFFE28E07D23DB00CD
:1026F000052232212846FFF7E7FE20E000BF00BF99
:102700000127AD06AD0E104C15E0284638400028D4
:102710000ED0082E01D0267003E020780121484019
:10272000207021783846FFF763FF28467840054639
:102730007806070E0C34002DE7D100E000BF00BF83
:1027400002480078F8BD000010010020740000204D
:10275000FEB5002701253F200190494C204620303E
:10276000007C00287ED17BE001982840002874D0AE
:1027700020780221084000286CD004F0F1FC0646C5
:10278000A168B14259D82078C007C00F002815D0E1
:10279000A0786421081AC0B2029020784008400056
:1027A000207000212846FFF723FF207804210840ED
:1027B000002819D16078401E607015E0607800280C
:1027C00009D1207804210840002804D12078022172
:1027D0004840207008E0A07802902078012108434A
:1027E00020702846FFF704FF2078022108400028C7
:1027F0000CD0A188029A514308466421FDF79EFC43
:1028000080B2009000983018A0601AE0002000907C
:102810001C4800782840002801D0012000E000205A
:1028200001462846FFF74EFF2846FF21484015493C
:10283000097808401349087003E02089801B80B2A2
:102840000090002F05D00098002803D00098B842CF
:1028500000DA009F0198684001906806050E0C346C
:10286000019800E00AE0002800D07DE7002F05D0A5
:102870003A4620210448007804F0B9FEFEBD00006D
:1028800010010020760000206800002010B5002014
:1028900000F00AFA044600BF002C01D002F0B0FD9F
:1028A00000BF10BDF8B500200090002686E0684605
:1028B00004780A2C02D0204600F0C6F80D2C40D037
:1028C0000A2C3ED041480068002813D1082005F0AA
:1028D000E9F83E49086000BF08460068002801D1B9
:1028E00002F08EFD00BF00203849096808603749B2
:1028F000096888803548006880887F2821DA334855
:1029000000680068002805D1802005F0CBF82F4929
:102910000968086000BF2D4800680068002801D1E0
:1029200002F06EFD00BF29480068818827480068D2
:102930008088401C254A12689080244800680068FE
:1029400044540D2C0CD10A2000F07EF81F4800687A
:10295000002805D01D4800680068002800D0012626
:10296000012E2BD100211948006882881748006881
:102970008088401C154B1B689880144800680068CC
:102980008154082004F0E2FC054600BF002D01D16F
:1029900002F036FD00BF012028700C480068006876
:1029A000686029460A48007804F0A6FD07480068D8
:1029B00004F0C4FF00200549086000266946002095
:1029C00000F09AF8002800D171E7F8BD6C000020F3
:1029D0001400002070B500241A48006800282FD089
:1029E0001AE0002C03D1002000F030FA0446002C3D
:1029F00011DD00BF1348006804F0F1FB05462946CD
:102A0000002000F0D9F9002801D002F0F9FC00BF45
:102A1000601E84B200E005E00A48006804F00CFC87
:102A20000028DED100BF0748006804F005FC00283C
:102A300006D10448006804F0BFFB0020014908608B
:102A400070BD00007000002010B5044610480068FA
:102A5000002803D104F0A2FB0D49086000BF0C4818
:102A60000068002801D102F0CBFC00BF00BF214666
:102A70000748006804F0E3FB002801D102F0C0FC25
:102A800000BF012149020348007804F07FFD10BD1A
:102A900070000020680000207CB505466946284685
:102AA00002F01EFD0646002405E06946085DFFF7BA
:102AB000CBFF601CC4B2B442F7DB7CBD10B504464A
:102AC00003E02078641CFFF7BFFF20780028F8D1CE
:102AD00010BDFEB505466946284604F01BFE0646B5
:102AE000002405E06946085DFFF7AEFF601CC4B234
:102AF000B442F7DBFEBD000030B50246012A01DD1D
:102B0000052030BD1C2050431E4B185C002801D10D
:102B10000220F6E71C2050431A4BC01883891C2062
:102B20005043184C00194089834227D01C20504341
:102B30002346C01883891C20504300198089401CFB
:102B400084B21C2050430F4D401984811C205043F7
:102B50002C4600194068C05C08701C205043234676
:102B6000C01883891C20504300190089834207DB69
:102B700000231C2050430019838101E00320C0E79B
:102B80000020BEE7D80000207FB50446FF2543495A
:102B900003C90391029041480830006801903F4802
:102BA0000C3000680090A00002A90858C669681C93
:102BB0003040002818D00FE0A00002A90858006893
:102BC000C5B22946204602F053FC60006A46115AFD
:102BD0003348007804F0DAFCA00002A90858C06964
:102BE000C007C00F0028E7D1012040023040002874
:102BF00052D01C2060432B494018018B1C2060439D
:102C0000284A8018C08A814235D01C206043114672
:102C10004018018B1C2060438018008B401C82B23E
:102C20001C2060431F4BC01802831C2060431A46BF
:102C300080180069455C1C20604311464018018BD8
:102C40001C2060438018808A814204DB00211C2004
:102C500060438018018300BFA00002A90858806962
:102C60000121C9050840C00D0028F5D1A00002A926
:102C70000858056009E0A00002A908584068022130
:102C80008843A10002AA51584860600001AA115A65
:102C90000348007804F07AFC7FBD0000A47D0000AA
:102CA00068000020D800002010B50446012C01DD8A
:102CB000052010BD1C2060433749085C012800D165
:102CC000F7E7002C26D135491C206043324A801892
:102CD000416008211C2060438018018130491C207C
:102CE00060438018016108211C20604380188182A4
:102CF0002C4801F058FCE12149022B4801F04AFD23
:102D00002948406811210843274948600C2001F0F8
:102D100055FA28E0012C26D124491C2060431E4A84
:102D20008018416010211C206043801801812049D7
:102D30001C2060438018016108211C20604380181A
:102D400081821848401C01F02EFCE12149021948FB
:102D500001F020FD174840681121084315494860DB
:102D60000D2001F02BFA00211C2060430A4A801834
:102D700041811C206043801881811C2060438018A1
:102D8000C1821C2060438018018301211C20604304
:102D9000115400208DE70000D800002050000020D2
:102DA000580000201000000400000540C80000206A
:102DB00060000020000015403CB502460B46214C47
:102DC00011CC01940090012A01DD05203CBD1C209E
:102DD00050431D4C205C002801D10220F6E71C2046
:102DE0005043194C0019C18A481C81B21C20504321
:102DF0000019808A884200DC00211C205043124CBC
:102E00000019008B884201D10420DFE71C205043C9
:102E10000D4C001904691C2050430B4D4019C08A09
:102E200023541C2050432C460019C18290006C464C
:102E3000205840680224204394006D462C5960605D
:102E40000020C3E79C7D0000D800002010B501469B
:102E50000023012901DD002010BD1C204843134C34
:102E6000205C002800D1F7E71C2048430F4C0019D4
:102E7000C28A00BF501C82B21C2048430B4C001970
:102E8000808A904200DC00221C204843074C001935
:102E9000008B904201D0581C83B21C204843034C45
:102EA0000019008B9042E5D11846D5E7D8000020E4
:102EB00001490870704700006800002070B50646A0
:102EC0000C460120C0032040002815D0304604F0F5
:102ED000DFFA054609E0284602F0FAFA284604F02F
:102EE0004CFA304604F0D4FA0546002DF3D12046C2
:102EF0000121C903484070BD012080022040002804
:102F000006D0FEF76DFD2046012189024840F2E718
:102F10000120C0022040002806D0FEF7B3FE204664
:102F20000121C9024840E6E7FF2001302040002887
:102F300006D0FFF7B7FC2046FF2101314840DAE711
:102F4000012040022040002806D0FFF743FD204624
:102F5000012149024840CEE740202040002805D00A
:102F6000FEF764FF204640214840C4E7202020406F
:102F7000002805D0FFF7ECFB204620214840BAE7A7
:102F800010202040002805D0FFF764F920461021CA
:102F90004840B0E70020AEE710B5FFF76BFA10BD70
:102FA00010B5044604A001F0A5FD204604F046FB40
:102FB00002F026FA10BD0000496E204861726420BC
:102FC0004661756C742048616E646C65720A00001D
:102FD00070B5054600240B480068002804D0284638
:102FE0000849096888470446002C03D12846FDF7A4
:102FF0003BFC044600BF002C01D102F001FA00BFE7
:1030000070BD00004400002070B505460C460AA0C3
:10301000FEF772FE2846FEF76FFE0BA0FEF76CFE71
:10302000002C02D02046FEF767FE08A0FEF764FEE3
:1030300007A0FEF761FE70BD41542B43574A415033
:103040005F4355523D220000222C22002200000046
:103050000D0A000010B502A0FEF74EFE10BD0000E4
:1030600041542B43575141500D0A000010B50446FE
:1030700004A0FEF741FE2046FEF749FE05A0FEF73C
:103080003BFE10BD41542B43574D4F44455F4355C4
:10309000523D00000D0A000010B502A0FEF72CFE04
:1030A00010BD000041542B43575354415254534DCB
:1030B0004152543D330D0A0010B502A0FEF71CFE2C
:1030C00010BD000041542B435753544F50534D41B2
:1030D00052540D0A0000000010B502A0FEF70CFECD
:1030E00010BD000041542B434950434C4F53450DF4
:1030F0000A000000FEB504460D4616460D4A07CAF2
:103100006B4607C30CA0FEF7F7FDA1006A465058B6
:10311000FEF7F2FD0CA0FEF7EFFD2846FEF7ECFDF2
:103120000AA0FEF7E9FD3046FEF7F1FD08A0FEF724
:10313000E3FDFEBD907D000041542B4349505354A4
:103140004152543D22000000222C2200222C00007B
:103150000D0A000010B5044604A0FEF7CDFD204680
:10316000FEF7D5FD04A0FEF7C7FD10BD41542B436B
:10317000495053454E443D000D0A000070B50546C8
:103180002846FDF741F8401C86B2082004F0DEF81E
:10319000044600BF002C01D102F032F900BF02202A
:1031A0002070304604F07EFC606000BF606800283C
:1031B00001D102F025F900BF60683246294604F0CB
:1031C000ADF821460248007804F096F970BD000081
:1031D0002C00002070B505462846FDF715F8401C68
:1031E00086B2082004F0B2F8044600BF002C01D1DA
:1031F00002F006F900BF01202070304604F052FCB6
:10320000606000BF6068002801D102F0F9F800BFDB
:1032100060683246294604F081F821460248007869
:1032200004F06AF970BD00002C00002070B505465E
:10323000042004F08BF8044600BF002C01D102F0FA
:10324000DFF800BF05202070658021460248007825
:1032500004F052F970BD00002C00002010B50421CC
:103260000248007804F092F910BD00002C00002004
:1032700001480088704700002E00002010B5044669
:103280000F480068002804D1142004F00BFC0C49FE
:10329000086000BF0A480068002801D102F0B0F8B9
:1032A00000BF142221460648006804F037F8522077
:1032B0000449088001210448007804F067F910BD32
:1032C00038000020300000202C00002070B505469A
:1032D000042004F03BF8044600BF002C01D102F0AA
:1032E0008FF800BF032020706580214602480078D7
:1032F00004F002F970BD00002C00002070B50446F7
:10330000002C01D1012070BD2068002801D10120CE
:10331000F9E731480068002801D00320F3E71020C6
:1033200004F0C0FB2C49086000BF08460068002874
:1033300001D102F065F800BF2068FCF765FF401C72
:1033400085B2284604F0AEFB23490968086000BF37
:10335000214800680068002801D102F051F800BF40
:103360001D4A2168126810682A4603F0D7FF60687A
:10337000002803D11849096848601AE06068FCF722
:1033800043FF401C85B2284604F08CFB12490968B3
:10339000486000BF104800684068002801D102F072
:1033A0002FF800BF0C4A6168126850682A4603F083
:1033B000B5FF0949E0680968C8600749A06809685D
:1033C000886042200549088001210548007804F002
:1033D000DDF8002097E700003400002030000020D6
:1033E0002C00002010B508480068002801D10320F7
:1033F00010BD42200549088001210548007804F0ED
:10340000C5F80020F4E700003C0000203000002058
:103410002C00002070B50446002C01D1042070BDA2
:103420002068002801D10420F9E7A088002801D1F4
:103430000420F4E7274800780006000F042801D094
:103440000120ECE724480068002801D00220E6E7CC
:10345000142004F027FB2049086000BF08460068DC
:10346000002801D101F0CCFF00BF2068FCF7CCFEA2
:10347000401C85B2284604F015FB1749096808600E
:1034800000BF154800680068002801D101F0B8FFAE
:1034900000BF114A2168126810682A4603F03EFFF7
:1034A000A0880D49096888800B49A0680968886070
:1034B0000949E0680968C860074920690968086126
:1034C00006480749088001210648007804F05EF8A4
:1034D0000020A4E72E0000203C0000204202000053
:1034E000300000202C00002010B504460E48007863
:1034F0000007000F02280BD10B4800780006000FD0
:10350000042805D1084800880005000F022800D0D3
:1035100010BD204600F07EFD20210448007804F014
:1035200035F800BFF4E700002E0000202C0000203A
:1035300010B504460E4800780007000F02280BD192
:103540000B4800780006000F042805D108480088C1
:103550000005000F022800D010BD204600F05AFDE3
:1035600020210448007804F011F800BFF4E70000BF
:103570002E0000202C00002010B5044610480078D2
:103580000007000F02280BD10D4800780006000F3D
:10359000042805D10A4800880005000F022800D041
:1035A00010BD03E02078641C00F034FD2078002872
:1035B000F8D120210348007803F0E8FF00BFEFE7CF
:1035C0002E0000202C000020FEB50646144800788E
:1035D0000007000F02280BD1114800780006000FE9
:1035E000042805D10E4800880005000F022800D0ED
:1035F000FEBD6946304604F08DF80546002405E01E
:103600006946085D00F006FD601CC4B2AC42F7DB01
:1036100020210448007803F0B9FF00BFE8E700006C
:103620002E0000202C00002010B504460B4804702A
:1036300000200B49088002200A49088000200A491E
:1036400008600A4908600A4908600A4908607D2242
:10365000D2001021204603F0CAFF10BD2C0000202C
:103660002E00002030000020340000203800002010
:103670003C00002040000020F8B506460C46012022
:10368000C0032040002815D0304603F001FF054656
:1036900009E0284600F016FC284603F06EFE30468E
:1036A00003F0F6FE0546002DF3D120460121C903A3
:1036B0004840F8BDE007C00F002807D03B493C4810
:1036C00000F0C8FC204601214840F2E710202040CD
:1036D000002805D0FEF75CF9204610214840E8E7B5
:1036E00020202040002822D03148008831498842DB
:1036F00004D02F4800883049884214D12F480068F0
:10370000002810D000BF2A4800880121090308437F
:103710002749088000BF2948006803F08DFD87B263
:103720003846FFF717FD204620214840C1E7042016
:103730002040002819D021480068002808D01F48E0
:10374000006803F079FD87B23846FFF703FD08E013
:1037500000BF1748008801210903884314490880E5
:1037600000BF204604214840A3E702202040002853
:103770000CD000BF0E4800880121490308430C49C2
:10378000088000BF20460221484092E708202040E0
:10379000002808D0002006490880FFF78DFC20464D
:1037A0000821484085E7002083E700003000002022
:1037B0002E000020420200004222000040000020B3
:1037C00070B50546F8480580622D7BD010DC222DAF
:1037D0005CD006DC012D23D0022D78D0122D73D1C0
:1037E0000FE3322D36D0422D6FD0522DF7D198E114
:1037F000FF210331681A8D4268D006DC722D7DD01E
:10380000822D7CD0922DEAD1BCE2402878D0FF38BE
:103810004138002875D0FF3801380028DFD161E138
:10382000E2A0FFF74BF900BFE6480068002801D08E
:1038300001F0E6FD00BF00BFE3480068002801D0AA
:1038400001F0DEFD00BF0020D74908800120FFF70E
:103850000DFCE1E2DDA0FFF731F900BFE0480068B0
:10386000002801D101F0CCFD00BF00BFD5480068A1
:10387000002801D001F0C4FD00BF00BFD24800689D
:10388000002801D001F0BCFD00BFC5E2D5A0FFF7C4
:1038900015F900BFD2480068002801D101F0B0FD41
:1038A00000BF00BFC7480068002801D001F0A8FD94
:1038B00000BF00BFC4480068002801D001F0A0FD8F
:1038C00000BFA9E242E102E0A3E2A6E09DE200BF60
:1038D000BD480068002801D001F092FD00BFB94842
:1038E000006800281BD0B74800680068002804D092
:1038F000B4490968086804F021F803E02AE13EE1D0
:103900004BE056E0AF480068C468AE48006804F079
:1039100015F80020AB490860002C00D0A047B04843
:103920000068002835D0AE480068C068002803D081
:10393000B8A0FFF7C3F802E0BDA0FFF7BFF8A848A2
:1039400000680068002808D0A5490968086803F0E5
:10395000F5FF0020A24909680860A1480068406896
:10396000002808D09E490968486803F0E7FF002056
:103970009B49096848609A480068846898480068CC
:1039800003F0DCFF002096490860002C04D0A0471B
:1039900002E0ADA0FFF792F83EE2B1A0FFF78EF88B
:1039A00000BF89480068002801D001F029FD00BF50
:1039B00032E200BF8A480068002801D101F020FDF2
:1039C00000BF00BF7F480068002801D101F018FD4A
:1039D00000BF00BF7C480068002801D001F010FD46
:1039E00000BFA7A0FFF76AF87648006800680028C3
:1039F00008D074490968086803F0A0FF00207149E5
:103A0000096808606F480068846800206D4909688B
:103A10008860002C00D0A047FEE1714800680028B3
:103A20002DD06F480068C068002828D09BA0FFF701
:103A300045F86B4800680068002808D068490968A4
:103A4000086803F07BFF0020654909680860644846
:103A500000684068002808D061490968486803F098
:103A60006DFF00205E49096848605D480068C468D1
:103A700000205B490968C860002C00D0A04751486D
:103A80000068002822D04F4800688068002803D0D2
:103A900087A0FFF713F802E08EA0FFF70FF8494860
:103AA00000680068002804D046490968086803F0E7
:103AB00045FF44480068C4684248006803F03EFF80
:103AC000002040490860002C00D0A0473E48006814
:103AD000002806D03C48006803F06EFB00203A49FD
:103AE000086099E182A0FEF7E9FF00BF3C4800684A
:103AF000002801D101F084FC00BF00BF31480068FC
:103B0000002801D101F07CFC00BF2F48006800288C
:103B100006D02D48006803F04FFB00202A490860BA
:103B20007AE17BA0FEF7CAFF00BF8048006800284A
:103B300001D101F065FC00BF7C48006800680028E6
:103B400003D07A4909680868804765E178A0FEF7E4
:103B5000B5FF61E17DA0FEF7B1FF002012490880AA
:103B6000FFF7AAFA00BF71480068002801D101F0F0
:103B700047FC00BF00206D49096808614CE17AA04C
:103B8000FEF79CFF002008490880FFF795FA00BF68
:103B900066480068002801D101F032FC00BF002017
:103BA00062490968C86037E12E00002057692D4638
:103BB0006920696E697469616C697A696E672E0D36
:103BC0000A0000003C0000204000002057692D46FC
:103BD0006920636F6E6E656374696E672E0D0A00EF
:103BE0003400002057692D466920636F6E6E65634F
:103BF0007465642C2077616974696E67204448435A
:103C00005020746F2061737369676E2049502E0DC8
:103C10000A00000057692D466920636F6E6E656368
:103C200074206661696C7572652E0D0A00000000D3
:103C300057692D466920646973636F6E6E6563749E
:103C400065642E0D0A00000057692D466920696ED3
:103C5000697469616C697A65642E0D0A0000000060
:103C6000536F636B657420636F6E6E656374696F09
:103C70006E206F70656E696E672E0D0A0000000081
:103C8000536F636B657420636F6E6E656374696FE9
:103C90006E206F70656E65642E0D0A0057692D46A3
:103CA0006920636F6E6E65637465642E0D0A000093
:103CB000536F636B657420636F6E6E656374696FB9
:103CC0006E206F70656E206661696C7572652E0D71
:103CD0000A000000536F636B657420636F6E6E653E
:103CE0006374696F6E20636C6F7365642E0D0A00D8
:103CF000436C6F73696E6720736F636B65742063C9
:103D00006F6E6E656374696F6E2E0D0A00000000A1
:103D100057692D46692070616972696E6720776105
:103D20006974696E672E0D0A0000000038000020DB
:103D300057692D46692070616972696E67207374D6
:103D400061727465642E0D0A0000000057692D46EB
:103D5000692070616972696E67207375636365734A
:103D6000732E0D0A0000000057692D46692070610E
:103D70006972696E67206661696C7572652E0D0ADD
:103D80000000000033A0FEF799FE39480068C068C3
:103D900000280DD0364800680069002808D1344852
:103DA0000068C468002033490880FFF753F91DE01C
:103DB0002F4800680069002808D02D480068C068B6
:103DC000002803D12A48006804690FE028480068E9
:103DD0000069002808D026480068C068002803D081
:103DE00023480068046901E001F00AFB20480068EC
:103DF00003F0A4FD00201E490860002C00D0A0475D
:103E00000AE01DA0FEF75AFE06E021A0FEF756FECE
:103E100002E001F0F5FA00BF00BF1648008827490C
:103E2000098888420DD025480088002811D0114803
:103E3000008800280DD001212148007803F0A6FB5E
:103E400007E000201D49088001211D48007803F08B
:103E50008DF970BD57692D46692070616972696E70
:103E6000672073746F707065642E0D0A0000000087
:103E7000380000202E00002057692D466920646913
:103E800073636F6E6E656374696E672E0D0A000052
:103E900057692D466920646973636F6E6E6563743C
:103EA0006564207768656E206F70656E696E672047
:103EB000736F636B65742E0D0A00000030000020E4
:103EC0002C00002010B504462078030000F036FED8
:103ED00006040B21373B5E626068FFF779F8606883
:103EE00003F02CFD59E000BF2D480068002801D1E7
:103EF00001F086FA00BF2A4800684068002804D014
:103F00006068274A126851688847606803F016FDA8
:103F100043E000BF22480068002801D101F070FA98
:103F200000BF1F4800688068002804D060681C4AF1
:103F3000126891688847606803F000FD2DE0608892
:103F4000FFF73EFC29E000BF164800880121490325
:103F500088431449088000BF00BF13480068002848
:103F600001D101F04DFA00BF0F4800680069002838
:103F700005D0618860680C4B1B681A6990476068BF
:103F8000002802D0606803F0D9FC06E0608800F0E9
:103F90000DF802E001F034FA00BF00BF10BD0000D0
:103FA000380000202E0000203C00002070B50446A0
:103FB00000BF17480068002801D101F021FA00BFB6
:103FC00000BF1348006803F037F980B2A04201DA5D
:103FD00001F016FA00BF002509E00D48006803F063
:103FE000FEF806463046FDF7A5FE681C85B2A542E0
:103FF000F3DB0748006803F01FF980B2002806D100
:104000000348006803F0D8F800200149086070BD3B
:104010004000002010B504460D480068002803D178
:1040200003F0BCF80A49086000BF0948006800288E
:1040300001D101F0E5F900BF00BF21460448006846
:1040400003F0FDF8002801D101F0DAF900BF10BD3E
:104050004000002070B504460D462088298888421B
:1040600000D170BD288802287CD0422806D0522872
:1040700034D04F494018002873D15EE02078000703
:10408000000F022829D120780006000F002804D054
:1040900020780006000F09280ED146480068002845
:1040A0001BD000202080434A12685168414A1268A0
:1040B0001068FEF7A9FF10E020780006000F042822
:1040C0000BD120880005000F022806D1208800139C
:1040D000002802D12080FEF7FFFF66E0207800076D
:1040E000000F022828D120780006000F002804D0F5
:1040F00020780006000F092804D100202080FEF758
:10410000CBFF19E020780006000F042814D1208886
:104110000005000F002803D12080FEF79BFF0BE075
:1041200020880005000F022806D1208800130028EF
:1041300002D12080FEF7D0FF37E0208842280ED140
:104140001D48006800280AD0002020801A48006816
:1041500082881948006801680020FEF7CBFF24E040
:1041600000E01FE020780007000F022819D1207816
:104170000006000F042814D120880005000F002835
:1041800003D12080FEF766FF0BE020880005000FBA
:10419000022806D120880013002802D12080FEF7D3
:1041A0009BFF02E001F02CF900BF00BF00BF58E701
:1041B000BEFDFFFF340000203C000020C206D20EEE
:1041C00001219140014A11607047000000E100E0C8
:1041D000FFB59BB005460C46634801460EC9C06852
:1041E00015AE0EC618900127FF20149044225E4998
:1041F000103103A8FBF7CCFF5C4802905C48854275
:104200000ED15C48406902212140032212078A40F6
:1042100010402146022211401C31C8401A900CE087
:104220005448C0690221214030228A401040214672
:1042300002221140091DC8401A901A98022805D17F
:1042400000F0DAF94C480068199004E01A988000F0
:1042500015A9085819902BE01D991998FBF76EFFC6
:1042600039460190FBF76AFF0646012000068642A8
:1042700000D91BE03D4830180002000E149014983D
:10428000032801DA0220149030461499FBF756FFF8
:10429000064601200004864207D8012E02D10120E3
:1042A000029001E0B0B2029004E000BF7806070E71
:1042B000112FD1DB00BF14987843029A5043014676
:1042C0001998FBF73BFF06461498401EC0B21490A5
:1042D0000298401E80B20290B80003A90F5C2868C3
:1042E0006108CA00FF21914088436108CA001499FF
:1042F0009140084328606868A200072191408843E4
:10430000A2003946914008436860A968620801200C
:10431000800790408143A960A868E200082191408D
:104320000843A8601E9800280ED0029A521C1E99BD
:10433000514308466421FBF701FF401E0C216143F5
:104340002A461032505005E000210C2060432A46D6
:10435000103211500C2161432A460C320298505001
:1043600030461FB0F0BD0000E47C0000FFFF0000FD
:10437000000004400002005000000020C26F8A4389
:10438000C2677047C26F0A43C267704730B50246C2
:104390000023002009E0012484400C40002C03D0BD
:1043A000C5000124AC402343401C0428F3D3946887
:1043B0001C43946030BD30B5024600200BE0012361
:1043C00083400B40002B05D000250C2343431446AB
:1043D0000C34E550401C0428F1D330BD10B500BFAB
:1043E00006E05920494908601620086088200860C6
:1043F000464800680128F4D100BF0420FDF7FCF80E
:104400001020FDF773FA00210720FDF70DFA404850
:10441000FDF7BAF900F0F0F83E48FDF719F8002270
:10442000012109063B48FDF72FFA05200007C06B64
:104430003949084005210907C8630846C06B0321B4
:10444000084305210907C8633248401CFDF700F8FE
:104450000022012109062F48401CFDF715FA05200E
:104460000007406B2D4908400521090748630846AD
:10447000406B032189020843052109074863284846
:10448000FCF7E6FF0022012149022548FDF7FCF96F
:104490002448FCF7DDFF0022032109072148FDF72E
:1044A000F3F905200007806BFF21013188430521C6
:1044B000090788630846806BFF2101310843052105
:1044C0000907886300BF00201049086000BF7D22F3
:1044D000D200C904144800F005F900BF1248006872
:1044E0000121490708431049086000BF0820012145
:1044F00081400E4A116000BF00BF0B480068910563
:1045000008430949086000BF10BD000000010050C9
:1045100080F0FA02103D8057FCFCFFFFF3F3FFFF31
:104520000200805E1400C0570000014000E100E07E
:104530001CB51548019000200090FDF723FA0BE010
:1045400012484069002801D1012000E00020012824
:1045500002D10098401C00900198411E0191002852
:10456000EED10949009888420DD1FDF717FA0848A5
:10457000019000BF0198411E01910028FAD1FDF77A
:1045800007FA00BFFEE71CBDFFFF2F00804200506E
:10459000FFFF0F0005200007806801210843052167
:1045A000090788607047010E05221207891889687B
:1045B000012282401143020E05231B07D21891608D
:1045C000010E1A4689188A68012181408A43010E2A
:1045D000C9188A607047000006E059200549086044
:1045E0001620086088200860024800680128F4D17D
:1045F000704700000001005070B51248006945077F
:104600006D0FFDF701F810490860022D03D0A800D6
:104610000E490C5801E00C4804680A4880690007FC
:10462000000F461C31462046FBF788FD084908600C
:104630000849074800684A108018FBF77FFD0649C3
:10464000086070BD0002005008000020707C00006F
:104650000000002040420F000400002070470000CE
:1046600030B589B005462022194901A8FBF790FD15
:104670001848854206D118484069072109020840B8
:10468000040A1AE013482030854206D112484069D6
:10469000072109030840040B0FE01048854206D1AA
:1046A0000D484069072109040840040C05E00A4848
:1046B0004069072109050840040D022C03D1084870
:1046C000006809B030BDA00001A90858F9E7000052
:1046D000387D000000000140000200500000114041
:1046E00000000020FEB505460F4616462846FFF797
:1046F000B7FF04460020019000906008B04202D24B
:10470000022001901BE001208006844203D3072091
:104710000090E4080EE001204006844203D3032009
:104720000090A40806E001200006844202D3012084
:104730000090640831462046FBF700FD0190009888
:104740003843286001986860009A521C01985043D1
:1047500001462046FBF7F2FCFEBD000010B500BF8D
:1047600006488068C007C00F002806D000BF01209F
:104770000249886000BF02F0ADFB10BD000001409F
:1047800010B50020FEF700FA10BD10B50120FEF7AD
:10479000FBF910BDF0B587B004460D462748014629
:1047A0000EC9C06803AE0EC60690002002902448D1
:1047B0004069032109060840060E214880690F213F
:1047C00009020840070A002020630320E060A06877
:1047D0001C490840A060012E04D1FCF795FFB100F0
:1047E00003AA5050002D26D0B10003AA5058791CBE
:1047F000FBF7A4FC6908401829460190FBF79EFCD2
:10480000801E02901049029888420FD9B10003AA75
:104810005058791CFBF792FCE9004018294601909A
:10482000FBF78CFC0009801E606204E0032109078D
:1048300002980843606207B0F0BD0000587D000098
:10484000000200500FFFF0FFFFFF0000FEB507461B
:104850000D462B480078032800D0FEBD0026002D11
:1048600006D02846FBF7D0FC86B27B2E00DD002662
:1048700088200290B01C80210843C0B201900298A9
:10488000FEF732FE0198FEF72FFE1E490878FEF76C
:104890002BFE1C494878FEF727FE1A498878FEF758
:1048A00023FE1849C878FEF71FFE3904090E154A81
:1048B000127851400846FEF717FEF9B2114A5278B5
:1048C00051400846FEF710FE002412E0A11C0091A2
:1048D000C9178A0F0099511889108A000099891AFE
:1048E000084A515C2A5D51400846FEF7FDFD601CF8
:1048F00084B2B442EADB04200149087000BFACE78F
:10490000240000208C7D000070B586B00446002C89
:1049100002D1042006B070BD206800280ED0606867
:1049200000280BD02089002808D0E068002805D096
:104930002069002802D06069002801D10420E9E73D
:10494000FEF796FC05462807000F022803D128062B
:10495000000F042801D00120DCE72805000F002803
:1049600001D00220D6E700BF3B480068002801D0F4
:1049700000F046FD00BF182003F094F836490860A7
:1049800000BF08460068002801D100F039FD00BFD3
:104990002068FBF739FC401C86B2304603F082F8F1
:1049A0002D490968086000BF2B480068006800288E
:1049B00001D100F025FD00BF274A21681268106868
:1049C000324602F0ABFC6068FBF71EFC401C86B26E
:1049D000304603F067F820490968486000BF1E4868
:1049E00000684068002801D100F00AFD00BF1A4AA3
:1049F000616812685068324602F090FC20891649BE
:104A0000096808811449E0680968C860124960694A
:104A10000968486110492069096808610E48006802
:104A2000406801900C4800680089694608810B487D
:104A300004900B4803900B48059000BF01A8FEF7B7
:104A4000E9FC002801D000F0DBFC00BF0120064992
:104A5000087000205EE7000028000020695F000069
:104A6000B95F00000D61000024000020FEB507467C
:104A70001E480078032800D0FEBD3846FBF7C4FB73
:104A800085B27D2D00DDF7E781200190E8B280211D
:104A9000084300900198FEF727FD0098FEF724FDDB
:104AA00013490878FEF720FD11494878FEF71CFDF0
:104AB0000F498878FEF718FD0D49C878FEF714FDF8
:104AC00000240FE02646E117890F89198910890013
:104AD000611A074A515C3A5D51400846FEF704FDF1
:104AE000601C84B2AC42EDDB00BFC5E724000020AF
:104AF000887D00000FB410B503A9044B044A029846
:104B000000F03AF810BC08BC04B01847F15300009C
:104B10000C0000200FB410B504A9074B02AA03989B
:104B200000F02AF8044602A9002000F05FFA2046AF
:104B300010BC08BC04B01847ED4F000030B47446F8
:104B4000641E2578641CAB4204D3635D5B00E318EC
:104B500030BC18471D46F8E702E008C8121F08C11C
:104B6000002AFAD170477047002001E001C1121FEE
:104B7000002AFBD170470000FFB591B00F460546F3
:104B8000002606E025280AD0149A139990476D1C38
:104B9000761C28780028F5D1304615B0F0BD0024E9
:104BA00000940121F34A029400E004436D1C2B7829
:104BB0000846203B98401042F7D128782A280ED08A
:104BC000022128780246303A092A15D8009A0A2389
:104BD0005A43303A80180C436D1C0090F1E701CF26
:104BE0000090002805DA0120400304430098404269
:104BF0000090022004436D1C28782E2815D1042033
:104C0000044368786D1C2A280AD101CF6D1C0290DC
:104C10000BE002990A225143303940186D1C029072
:104C20002878014630390929F3D928786C2810D022
:104C300006DC4C281AD068280ED06A2817D104E068
:104C4000742813D07A2812D110E0012040050443C3
:104C50000CE00121090501E0032109050C436978F5
:104C6000814203D10120000524186D1C6D1C287899
:104C700003906E281ED00CDC632831D004DC0028A1
:104C80008AD0582811D1B2E064287BD069280CD191
:104C900078E073282DD004DC6F2870D0702804D100
:104CA000A7E075286CD078286BD0149A1399904798
:104CB000761C62E06002400F022807D003280AD069
:104CC000042838680AD006603F1D56E03868F1179E
:104CD00006604160F8E738680680F5E70670F3E79C
:104CE0003878694608740020487404A803900120AD
:104CF00003E0386803900020C0433F1D61070FD5D3
:104D0000002101E00199491C029A0191914213DAB4
:104D10008142F7DB019A0399895C0029F2D10BE00B
:104D2000002101E00199491C01918142FADB019ABD
:104D30000399895C0029F5D101990098139A401ACA
:104D400000902146149B00F03BF901998019461808
:104D500007E0039803990078491C0391149A13996A
:104D600090470198401E0190401CF2D12146149BAF
:104D7000139A009800F014F986196D1C09E741E0B8
:104D800033E034E00A200021049005916002410FD5
:104D9000022905D001CFC2179446032905D007E0A8
:104DA000FF1DFF08FF0003CF06E000B2C2179446C4
:104DB000042902D140B2C1178C46002261469445B5
:104DC00006DA0A460021404291418C462D2102E03C
:104DD000210504D52B216A461176012103E0E10764
:104DE00001D02021F7E7019154E00A200BE01020C8
:104DF00009E01020049000210420044308200591BC
:104E0000029003E008200021059104906002410F08
:104E1000022905D001CF00229446032906D006E0DE
:104E2000FF1DFF08FF0003CF8C4603E080B204297A
:104E300000D1C0B20021019121072BD5039970291F
:104E400006D0049A1021059B4A401A4305D00EE073
:104E500040216A461176012108E06146014306D0EF
:104E600030216A4611760399517602210191049A04
:104E70000821059B4A401A430CD16146014301D1E8
:104E8000610707D530216A46117601210191029907
:104E9000491E02910399582904D037A103910FA903
:104EA0000F910DE039A1F9E76146059B049AFBF7E4
:104EB000EFF9039B8C469B5C0F9A521E0F92137066
:104EC00061460143F0D10F9807A9081A20300390DA
:104ED000600704D5012000048443029801E001200A
:104EE00002900399884201DD401A00E00020411839
:104EF0000290019809180098401A0090E00306D427
:104F00002146149B139A009800F05AF88619002045
:104F1000049008E006A9085C149A13999047049835
:104F2000401C761C049001998842F3DBE0030CD509
:104F30002146149B139A009800F042F8861904E069
:104F4000149A302013999047761C0299481E0290BB
:104F50000029F5DC08E00F980F990078491C0F91A3
:104F6000149A13999047761C0399481E03900029C0
:104F7000F1DCFBE6092801003031323334353637B5
:104F80003839616263646566000000003031323395
:104F90003435363738394142434445460000000035
:104FA000F8B5044600251E461746880404D405E0DB
:104FB00039462020B0476D1C641EF9D52846F8BD3F
:104FC000FFB50446002581B01E46C80301D5302731
:104FD00000E02027880404D505E038460399B0474F
:104FE0006D1C641EF9D5284605B0F0BD0A68531C37
:104FF0000B601070704738B504462078002802D046
:10500000012810D108E0627869460A70A0784870DB
:10501000009800F00DF809E0606800F0AFF86068F3
:1050200002F08CFC02E000F0EBF900BF00BF38BDDD
:1050300011B585B06846007D012841D16846407DA4
:1050400001280FD100203C4908703CA0FDF736FD37
:1050500000211020FDF736FB01212020FDF732FB57
:1050600006B010BD6846407D022828D10120324993
:10507000087036A0FDF722FD04213848007802F0C0
:10508000C8FA002211461046FCF77CFEFEF7F0F845
:1050900004462007000F022810D12006000F042824
:1050A0000CD02F4800902F4804902F4803902F4891
:1050B00002902F4801906846FEF7E0F8D0E7CFE76E
:1050C0006846007D002818D16846407D082814D124
:1050D0000020FCF7B5FF01204002FCF7B1FF20489B
:1050E0000090214803901F480490204802902048D7
:1050F00001906846FEF7C2F8B2E76846007D0028D6
:1051000018D16846407D042814D11A480078002838
:105110000FD07D23DB00322201210820FDF7D4F9D6
:10512000002014490870144A04210C48007802F049
:105130005EFA95E700BF93E720000020446F6F728E
:1051400020636C6F7365642E0D0A0000446F6F72EC
:10515000206F70656E65642E0D0A0000140000203B
:10516000A16D0000B56B0000316C0000196D0000EE
:105170005D6D0000210000208813000010B504467A
:105180002046FFF773FC10BDFFB583B005460F4600
:105190001E4672B6002D03D162B6022007B0F0BDE4
:1051A000002430E0E0001A490858002829D10F21D6
:1051B0002046FAF7D9FF0120884080B20F210290E3
:1051C0002046FAF7D1FF134909784018C0B2019080
:1051D0000C98012801D1104800E010480346059AB8
:1051E00002990198984700280BD1E00008490D501A
:1051F000E00040184760002E00D0347062B60020F6
:10520000CCE7601CC4B20F2CCCDB62B60820C5E72B
:105210005C010020B8000020BD750000EF750000A3
:1052200030B505460B460022002400BFA95C0029CA
:1052300000D111E0501CC2B20A2A01DD002030BDAD
:10524000302907DB392905DC0A2044430846303879
:105250000419EBE70020F2E700BF002A02DD002B73
:1052600000D01C601046EAE770B5054600BF002D6F
:1052700001D100F0C5F800BF082229469001FCF7D3
:1052800027FF00240AE0285D002800D108E0285DFF
:10529000FF2801D1002403E0601C84B2202CF2DB43
:1052A00000BF204670BD70B5054600BF002D01D17E
:1052B00000F0A6F800BF082229460020FCF708FFEE
:1052C00000240AE0285D002800D108E0285DFF28BE
:1052D00001D1002403E0601C84B2202CF2DB00BF6B
:1052E000204670BD70B5054600BF002D01D100F00D
:1052F00087F800BF102229469001FCF7E9FE002440
:105300000AE0285D002800D108E0285DFF2801D1CF
:10531000002403E0601C84B2202CF2DB00BF204696
:1053200070BD30B589B004460025002C03D020465E
:10533000FAF76AFF85B2202D14DC2022002101A893
:1053400001F0FAFF002D04DD2A46214601A801F0F4
:10535000E5FF01204002FCF773FE082201A990013D
:10536000FCF70CFF09B030BD30B589B0044600250C
:10537000002C03D02046FAF747FF85B2202D13DC1E
:105380002022002101A801F0D7FF002D04DD2A46CC
:10539000214601A801F0C2FF0020FCF751FE0822BF
:1053A00001A90020FCF7EAFE09B030BD30B591B08C
:1053B00004460025002C03D02046FAF725FF85B2CD
:1053C000681C402812DC4022002101A801F0B4FF33
:1053D0002A46214601A801F0A1FF01208002FCF726
:1053E0002FFE102201A99001FCF7C8FE11B030BDBC
:1053F00070B504460D46E0B2FDF726FB204670BDB1
:1054000010B500BF72B600BF06E05920074908601A
:105410001620086088200860044800680128F4D13C
:1054200000BFFFF7B7F800BF10BD0000000100503B
:1054300010B501210348FEF7BEFF01210148FEF728
:105440009DFF10BD0000044010B532237D221201E3
:1054500000210648FEF7BCFE01210448FEF792FF3A
:1054600001210248FEF792FF10BD00000000044039
:1054700070B504460E461C20604314494018458907
:10548000681C85B21C20604340180089A84200DCDB
:10549000002500BF1C2060430C4940188089A842A9
:1054A00001D1FFF7ADFF00BF1C2060430749401842
:1054B00041681C206043054A801840890E541C2016
:1054C000604311464018458170BD0000D80000209F
:1054D00010B504462078FFF793FF00BF00BF10BD52
:1054E00003460A4607210EE01807000F5054505C8F
:1054F000092802DC505C303001E0505C37305054F9
:105500001B09481E41B20029EEDA0820704710B589
:10551000FFF70EF872B6FEF761FFFCF77BFD01F0B6
:10552000EFFE62B602F05FF8002010BD70B596B0D5
:1055300004460D461646684600F066FC324629468B
:10554000684600F073FC2146684600F003F816B088
:1055500070BD0000F0B585B004460D462068400FD0
:105560006168C900084306462068C700684607709E
:105570003804010E684641703802010E6846817099
:10558000390EC17006713004010E68464171300257
:10559000010E68468171310EC17120788006800E3F
:1055A00003900398382803D238210398081A02E0A0
:1055B00078210398081A02901F492046029A00F0A9
:1055C00035FC08226946204600F030FC207A28701D
:1055D00020890004000E6870A0680002000EA87008
:1055E000A068000EE870207B2871A0890004000EDE
:1055F0006871E0680002000EA871E068000EE871B2
:10560000207C2872208A0004000E68722069000243
:10561000000EA8722069000EE872207D2873A08A0F
:105620000004000E687360690002000EA8736069D0
:10563000000EE87305B0F0BDB47D0000F3B591B085
:10564000002000900DE000998A0012995018FCF794
:105650008CF90099890001AA50500098401CC0B2F2
:10566000009000981028EEDB119884681198C568A6
:10567000119806691198476930467840284078406B
:1056800001994018FE4940180419E001610E0843D1
:105690004419284670402040704002994018F9494A
:1056A0004018C7193803390D0843071920466840C8
:1056B0003840684003994018F3494018861970042F
:1056C000F10B0843C61938466040304060400499E9
:1056D0004018EE4940184519A805A90A084385193C
:1056E000304678402840784005994018E8494018ED
:1056F0000419E001610E0843441928467040204017
:10570000704006994018E3494018C7193803390D0D
:1057100008430719204668403840684007994018F8
:10572000DD49401886197004F10B0843C619384644
:1057300060403040604008994018D84940184519E9
:10574000A805A90A084385193046784028407840C2
:1057500009994018D24940180419E001610E084324
:10576000441928467040204070400A994018CD499D
:105770004018C7193803390D0843071920466840F7
:10578000384068400B994018C74940188619700482
:10579000F10B0843C61938466040304060400C9910
:1057A0004018C24940184519A805A90A0843851997
:1057B00030467840284078400D994018BC49401840
:1057C0000419E001610E0843441928467040204046
:1057D00070400E994018B7494018C7193803390D61
:1057E0000843071920466840384068400F99401820
:1057F000B149401886197004F10B0843C6193846A0
:1058000060403040604010994018AC49401845193C
:10581000A805A90A084385192846704038407040F9
:1058200002994018A649401804196001E10E084386
:105830004419204668403040684007994018A14903
:105840004018C7197802F90D084307193846604017
:10585000284060400C9940189B4940188619B003B5
:10586000B10C0843C6193046784020407840019971
:1058700040189649401845192805290B08438519F1
:1058800028467040384070400699401890494018AA
:1058900004196001E10E0843441920466840304075
:1058A00068400B9940188B494018C7197802F90DC8
:1058B0000843071938466040284060401099401856
:1058C000854940188619B003B10C0843C619304603
:1058D0007840204078400599401880494018451983
:1058E0002805290B08438519284670403840704028
:1058F0000A9940187A49401804196001E10E0843DA
:10590000441920466840304068400F994018754956
:105910004018C7197802F90D084307193846604046
:1059200028406040049940186F4940188619B00318
:10593000B10C0843C6193046784020407840099998
:1059400040186A49401845192805290B084385194C
:1059500028467040384070400E99401864494018FD
:1059600004196001E10E08434419204668403040A4
:105970006840039940185F494018C7197802F90D2B
:10598000084307193846604028406040089940188D
:10599000594940188619B003B10C0843C61930465E
:1059A0007840204078400D994018544940184519D6
:1059B0002805290B08438519284670407840069928
:1059C00040184F49401804192001210F0843441979
:1059D000204668407040099940184A494018C71944
:1059E000F802790D084307193846604068400C9961
:1059F00040184549401886193004310C0843C6192F
:105A00003046784060400F99401840494018451989
:105A1000E805690A084385192846704078400299CC
:105A200040183B49401804192001210F084344192C
:105A30002046684070400599401836494018C719FB
:105A4000F802790D08430719384660406840089904
:105A500040183149401886193004310C0843C619E2
:105A60003046784060400B9940182C494018451941
:105A7000E805690A084385192846704078404FE0D8
:105A800078A46AD756B7C7E8DB702024EECEBDC134
:105A9000AF0F7CF52AC68747134630A8019546FD0F
:105AA000D8988069AFF7448BB15BFFFFBED75C89A4
:105AB0002211906B937198FD8E4379A62108B44909
:105AC00062251EF640B340C0515A5E26AAC7B6E909
:105AD0005D102FD65314440281E6A1D8C8FBD3E74A
