:020000040000FA
:10000000D80F0020F100000011010000D500000011
:1000100000000000000000000000000000000000E0
:1000200000000000000000000000000015010000BA
:10003000000000000000000017010000190100008E
:100040001B0100001B0100001B0100001B01000040
:100050001B0100001B0100001B0100001B01000030
:10006000494600001B0100001B0100001B010000AD
:100070006D460000774600001B0100001B010000D8
:100080001B0100001B0100001B0100001B01000000
:100090001B0100001B0100001B0100001B010000F0
:1000A0001B0100001B0100001B0100001B010000E0
:1000B0001B0100001B0100001B0100001B010000D0
:1000C0000348854600F014F900480047DB53000060
:1000D000D80F002004207146084202D0EFF30980B7
:1000E00001E0EFF308807146004A1047B52E00008A
:1000F0000A480B4901600B4901600B4901600B4A3A
:100100000B491160002101600A4880470A480047F6
:10011000FEE7FEE7FEE7FEE7FEE7FEE70001005030
:100120005900000016000000880000002400005064
:10013000A55A000049450000C100000030B50B463B
:10014000014600202022012409E00D46D5409D42B1
:1001500005D31D469540491B254695404019154637
:10016000521E002DF1DC30BD70B50024254600285C
:1001700001DA01244042002901DA01254942FFF752
:10018000DDFFAC4200D04042002C00D0494270BD9F
:1001900010B5431A934209D28318881803E0401E11
:1001A00001785B1E1970521EF9D210BD03460B4335
:1001B0009B0703D009E008C9121F08C0042AFAD21D
:1001C00003E00B78491C0370401C521EF9D210BD8D
:1001D000D2B201E00270401C491EFBD270470022DF
:1001E000F6E710B513460A4604461946FFF7F0FF36
:1001F000204610BDCAB2401E401C01788A4202D07F
:100200000029F9D100207047421C0178401C0029C8
:10021000FBD1801A704710B5002200E0521C835CAD
:100220008C5CA34201D1002BF8D1D8B2E1B2401AC4
:1002300010BD03460A780270491C401C002AF9D1FF
:100240001846704770B5002800D11068002514E0EA
:100250000B4602E0A64203D05B1C1C78002CF9D1AF
:10026000E3B22B4307D0002C06D0002D04D0002190
:100270000170401C04E00546401C0678002EE7D1C2
:100280001060284670BD014ADCE70000C400002071
:10029000F0B51FB40646002082B005464024019107
:1002A00000901BE0019922460F46304600F042F8CC
:1002B000049A059B801A994110D31046194622468C
:1002C00000F028F8361A8F410197224601200021BC
:1002D000009F00F01FF838184D4100902046641E22
:1002E0000028DFDC019B00982946324607B0F0BDAC
:1002F000064C0125064E05E02046E36807C82B435F
:1003000098471034B442F7D3FFF7DEFEC07C0000FC
:10031000E07C000010B5202A04DB0146203A914021
:10032000002010BD914020239C1A0346E34019434E
:10033000904010BD10B5202A04DB0846203AD0407A
:10034000002110BD0B46D340D0402024A21A91407A
:100350000843194610BD000010B504460DA1204603
:10036000FFF759FF002812D10C49086000BF0C4864
:1003700000880C4908400A4908800846008808801F
:1003800000BF0846008802F02BFF204610BD002069
:10039000FCE700004F4B0D0A000000004400002065
:1003A0004A000020FFF0000010B504460CA12046D2
:1003B000FFF731FF002801D1204610BD09A12046DA
:1003C000FFF729FF002808D10848094908600948B3
:1003D000008802F0B5FE2046EFE70020EDE70000C0
:1003E0000D0A00004F4B0D0A00000000BD0F000079
:1003F000440000204800002010B5044640A12046DB
:10040000FFF709FF002801D1204610BD3DA120467D
:10041000FFF701FF002810D100BF3D4800883D498B
:1004200008403B49088008460088012149020843EA
:100430003749088000BF2046E7E737A12046FFF78D
:10044000EAFE002809D1364908603649086030487C
:10045000008802F0C5FE2046D7E733A12046FFF70B
:10046000DAFE002804D130A02E4908602046CCE7EF
:100470002FA12046FFF7CFFE002804D12CA0294948
:1004800008602046C1E72DA12046FFF7C4FE0028E2
:1004900019D100BF1E4800881E4908401C49088029
:1004A00008460088088000BF1E480068002808D061
:1004B00000201B4908601B4908601548008802F0AD
:1004C0008FFE2046A1E71FA12046FFF7A4FE0028CB
:1004D00014D1134908601349086000BF0C48008814
:1004E0000C4908400A49088008460088088000BF77
:1004F0000846008802F074FE204686E7002084E764
:100500000D0A0000434F4E4E4543540D0A000000B3
:100510004A000020FFF000004F4B0D0A00000000D1
:10052000440000204C0000206E6F2069700D0A000E
:10053000444E53204661696C0D0A00004552524FEB
:10054000520D0A00434C4F5345440D0A0000000071
:1005500010B5044641A12046FFF75DFE002801D1F9
:10056000204610BD3EA12046FFF755FE00280FD1C2
:1005700000BF40480088404908403E49088008467E
:100580000088202108433B49088000BF2046E8E757
:100590003AA12046FFF73FFE00280FD100BF3548A3
:1005A00000883549084033490880084600884021C2
:1005B00008433049088000BF2046D2E733A12046D7
:1005C000FFF729FE002807D1324908602948008832
:1005D00002F006FE2046C4E72FA12046FFF71BFECF
:1005E00000280CD100BF2348008823490840214936
:1005F000088008460088088000BF2046B1E72BA18C
:10060000204606F0C9FF00280CD000BF194800881A
:10061000194908401749088008460088088000BF2B
:1006200020469EE723A12046FFF7F5FD002812D1C2
:100630001849086000BF0F4800880F4908400D495D
:10064000088008460088088000BF0846008802F03D
:10065000C7FD204685E7002083E700000D0A000063
:100660005749464920434F4E4E45435445440D0A91
:10067000000000004A0000200FFF000057494649D3
:1006800020474F542049500D0A0000004F4B0D0ADF
:1006900000000000440000205749464920444953C7
:1006A000434F4E4E4543540D0A0000002B43574A1A
:1006B00041503A004641494C0D0A000010B504462D
:1006C00012A12046FFF7A7FD002801D1204610BD4A
:1006D0000FA12046FFF79FFD002815D10E490860A5
:1006E00000BF0E4800880E4908400C4908800846A3
:1006F0000088022108430949088000BF0846008895
:1007000002F06EFD2046E2E70020E0E70D0A00005F
:100710004F4B0D0A00000000440000204A0000205A
:10072000F0FF000010B504460DA12046FFF773FD51
:10073000002801D1204610BD0AA12046FFF76BFD1D
:10074000002801D12046F6E709A12046FFF763FD06
:10075000002803D1084908602046ECE70020EAE7BA
:100760000D0A000041542B43575141500D0A00001F
:100770004F4B0D0A000000004400002010B5044655
:1007800016A12046FFF747FD002801D1204610BDE5
:1007900013A12046FFF73FFD00281CD11248134942
:1007A000086000BF124800881249084010490880BC
:1007B00008460088502108430D49088000BF0846BC
:1007C000008802F00DFD0C4A08210C48007806F064
:1007D00068FE2046DBE70020D9E700000D0A000094
:1007E0004F4B0D0A00000000250D000044000020C2
:1007F0004A0000200FFF000060EA00002C000020EB
:1008000010B5044612A12046FFF705FD002801D1CE
:10081000204610BD0FA12046FFF7FDFC002815D192
:100820000E49086000BF0E4800880E4908400C4978
:10083000088008460088902108430949088000BFC5
:100840000846008802F0CCFC2046E2E70020E0E702
:100850000D0A00004F4B0D0A00000000440000206C
:100860004A0000200FFF0000F8B50746DFA1384618
:10087000FFF7D1FC002801D13846F8BDDCA138468D
:1008800006F08AFE0646002E43D0082006F0B8FC8B
:10089000054600BF002D01D104F018FD00BF042063
:1008A00028703A213046FFF7A5FC0446002020704E
:1008B000641C00BF6946304604F018FC002801D1D2
:1008C00004F004FD00BF009868802078641C00904C
:1008D0000098000200902078641C00990843009062
:1008E0000098000200902078641C00990843009052
:1008F0000098000200902078641C00990843009042
:10090000009868602946BC48007806F04FFD3846DC
:10091000B3E7BAA13846FFF77EFC002801D138467C
:10092000ABE7B7A13846FFF776FC002813D100BF2C
:10093000B5480088B5490840B34908800846008892
:1009400001210843B049088000BF0846008802F032
:1009500047FC384691E7AEA13846FFF75CFC00281B
:1009600014D100BFA8480088A849E1390840A64929
:1009700008800846008820210843A349088000BF5A
:100980000846008802F02CFC384676E7A5A13846D8
:10099000FFF741FC002814D100BF9B4800889B4909
:1009A000E1390840984908800846008840210843FA
:1009B0009549088000BF0846008802F011FC3846BF
:1009C0005BE79CA13846FFF726FC002811D100BF49
:1009D0008D4800888D49E13908408B4908800846D8
:1009E0000088088000BF0846008802F0F9FB3846FE
:1009F00043E795A13846FFF70EFC002810D100BF51
:100A000081480088934908407F490880084600884B
:100A1000088000BF0846008802F0E2FB38462CE759
:100A20008DA13846FFF7F7FB002801D1384624E7AF
:100A30008C480068002870D18BA1384606F0ACFDC8
:100A4000002804D08C4887490860384615E78BA1F8
:100A5000384606F0A1FD002817D08C48814908606F
:100A600000BF694800886949E13908406649088043
:100A700008460088302108436349088000BF0846C3
:100A8000008802F0ADFB3846F7E681A1384606F053
:100A900083FD002804D08348724908603846ECE69C
:100AA00081A1384606F078FD002817D082486D49AC
:100AB000086000BF544800886649084052490880D1
:100AC00008460088FF21013108434F49088000BFD4
:100AD0000846008802F084FB3846CEE677A1384607
:100AE00006F05AFD0646002E18D077485D4908608A
:100AF0000D213046FFF77EFB0021017000BF6946E3
:100B0000304604F0F3FA002801D104F0DFFB00BF07
:100B10006E49009808803846AFE664E06CA138461C
:100B200006F03AFD002817D06E484E49086000BF15
:100B3000354800883549E13908403349088008467E
:100B40000088602108433049088000BF08460088BB
:100B500002F046FB384690E663A13846FFF75BFBA0
:100B6000002817D164483F49086000BF2648008824
:100B700038490840244908800846008803210902B2
:100B800008432149088000BF0846008802F028FB7E
:100B9000384672E659A13846FFF73DFB002804D1DC
:100BA0005B4830490860384667E65AA13846FFF787
:100BB00032FB002817D15A482A49086000BF124862
:100BC00000881249E13908400F490880084600882A
:100BD000102108430C49088000BF0846008802F035
:100BE000FFFA384649E6002047E600000D0A0000FB
:100BF0002B4950442C0000002C000020726C000097
:100C000072656164790D0A004A000020F0FF00005F
:100C10005749464920434F4E4E45435445440D0ADB
:100C2000000000005749464920474F542049500DC5
:100C30000A0000005749464920444953434F4E4E4D
:100C40004543540D0A000000434C4F5345440D0AE0
:100C500000000000FFF000006275737920702E2EF6
:100C60002E0D0A004400002041542B43574D4F44A1
:100C7000455F4355523D0000BD06000041542B43E3
:100C8000574A41505F4355523D0000005105000056
:100C900041542B43575354415254534D4152543DA8
:100CA000000000007D07000041542B43495053547D
:100CB0004152543D00000000F903000041542B4311
:100CC000495053454E443D00A90300004800002010
:100CD000736D617274636F6E666967207479706595
:100CE0003A000000250D000041542B434950434C6D
:100CF0004F53450D0A0000005903000041542B4397
:100D00005753544F50534D4152540D0A00000000A8
:100D10000108000041542B43575141500D0A000077
:100D20002507000070B5054672A1284606F034FC80
:100D300000280CD008217448007806F0C4FB734AE0
:100D400008217148007806F0ACFB284670BD70A100
:100D50002846FFF760FA00280CD108216A4800787D
:100D600006F0B1FB694A08216748007806F099FB54
:100D70002846EBE76CA1284606F00EFC0446002C42
:100D800015D00D212046FFF735FA002101702046CD
:100D900002F0AAF908215C48007806F094FB5B4A4F
:100DA00008215948007806F07CFB2846CEE760A170
:100DB000284606F0F1FB0446002C15D00D212046F4
:100DC000FFF718FA00210170204602F061F90821AE
:100DD0004D48007806F077FB4C4A08214A480078D5
:100DE00006F05FFB2846B1E754A12846FFF713FA47
:100DF00000280CD108214448007806F064FB434ADF
:100E000008214148007806F04CFB28469EE750A197
:100E10002846FFF700FA00280CD108213A4800784C
:100E200006F051FB394A08213748007806F039FBB3
:100E300028468BE74AA12846FFF7EDF900281AD18A
:100E40004F49086000BF4F4800884F4908404D494E
:100E5000088008460088702108434A49088000BF7E
:100E60000846008802F0BCF908212748007806F0FF
:100E70002AFB28466AE745A1284606F08DFB002894
:100E80000CD008212048007806F01DFB1F4A0821DD
:100E90001D48007806F005FB284657E73DA1284687
:100EA000FFF7B9F900281AD13549086000BF354865
:100EB0000088354908403349088008460088802169
:100EC00008433049088000BF0846008802F088F9CE
:100ED00008210D48007806F0F6FA284636E732A1D8
:100EE0002846FFF798F9002802D1254908602DE728
:100EF00000202BE7736D617274636F6E6669672003
:100F0000747970653A0000002C00002060EA00004F
:100F1000536D617274206765742077696669206912
:100F20006E666F0D0A000000737369643A0000007A
:100F300070617373776F72643A00000057494649D5
:100F400020434F4E4E45435445440D0A00000000D7
:100F50005749464920474F542049500D0A00000088
:100F6000736D617274636F6E66696720636F6E6E16
:100F7000656374656420776966690D0A0000000086
:100F8000440000204A0000200FFF00004448435066
:100F9000000000005749464920444953434F4E4EF4
:100FA0004543540D0A00000041542B435753544FFE
:100FB00050534D4152540D0A0000000010B5044634
:100FC00023A12046FFF727F9002801D1204610BDB4
:100FD00020A12046FFF71FF9002801D12046F6E79F
:100FE0001EA1204606F0D8FA002801D02046EEE7E0
:100FF0001CA12046FFF70FF9002805D11C49086005
:1010000002F0B6F82046E2E71AA12046FFF703F9FE
:1010100000280CD100BF1A4800881A490840184916
:10102000088008460088088000BF2046CFE716A148
:101030002046FFF7F0F8002807D10D490860104856
:10104000008802F0CDF82046C1E70020BFE700008D
:101050000D0A00003E200D0A000000005265637674
:101060002000000053454E44204F4B0D0A00000065
:1010700044000020434C4F5345440D0A000000003B
:101080004A000020FFF0000053454E4420464149ED
:101090004C0D0A0070B50546214805700020214915
:1010A00008602149086001F0C3F941080120884324
:1010B0001E49087001201E49087000201D49087053
:1010C0001A480078002803D01BA001F08DFC02E034
:1010D0001DA001F089FC20A001F086FC00240CE09A
:1010E000204600F053FF064601F06CFC042C02DAA7
:1010F0002D2001F03FFC601CC4B2052CF0DB11A0D8
:1011000001F072FC7D23DB0032220021042001F07B
:10111000A9F97D22D2000121284606F0C2F970BD4E
:1011200014000020180000201C00002020000020D7
:101130002100002022000020446F6F72206F706534
:101140006E65642E0D0A0000446F6F7220636C6F31
:101150007365642E0D0A00005B44455649445D3AB0
:1011600000000000F3B593B00C460120C003044218
:1011700016D0139806F0E6F8074609E0384603F063
:10118000B2FE384606F053F8139806F0DBF807462F
:10119000002FF3D120460121C903484015B0F0BD0E
:1011A0001020044206D07EA003F0D4FB204610217C
:1011B0004840F3E70420044206D001207A49087031
:1011C000204604214840E9E70220044264D001F0AF
:1011D000D9FF422857D1402006F0BCFB064600BF8D
:1011E000002E01D104F072F800BF4AE000201290F6
:1011F00011901090304603F0DBFF0546002D03D11F
:101200006AA004F039F83CE01296129E019610AAEA
:101210006FA11298FFF716F811AA6EA11098FFF7A8
:1012200011F80FA9109803F061FF002803D15FA007
:1012300004F022F825E069460F9808811198401EB5
:1012400011902F2011990870119800906248039016
:101250006248059062480490684603F0CBFA304635
:1012600006F0C6FAFF23F53332220021012001F0F7
:10127000F9F8FF23F53332220021022001F0F2F8C1
:1012800000E0B3E704E0574A0221139806F009F999
:1012900020460221484081E7E007C00F64D001F0FA
:1012A00071FF022803D001F06DFF922852D1202057
:1012B00006F050FB0B9000BF0B98002801D104F002
:1012C00005F800BF0B9803F054FF0546002D30D001
:1012D000202006F03FFB0C9000BF0C98002801D1A5
:1012E00003F0F4FF00BF0C9803F024FF0546002034
:1012F0000C9948553C480E903C480D9000BF0BA8F7
:1013000001F086FF002801D003F0E0FF00BF0C9839
:1013100006F06EFA0B9806F06BFAFF23F5333222D3
:101320000021012001F09EF80021022001F06AF95D
:1013300016E00B9806F05CFA2D4806902D480990AF
:101340002D480A902D4808902D48079006A801F0D6
:101350001FFF05E07D22D2000121139806F0A1F8BD
:1013600020460121484019E70820044208D025A161
:101370007D20C00003F0E0F92046082148400DE739
:101380002020044209D001220021FF202D3000F04E
:10139000D7FC20462021484000E70020FEE6000060
:1013A0004068656172740000210000207777772E15
:1013B000666174647261676F6E686B2E636F6D3AFD
:1013C000383038302F6D7948616E646C657200007A
:1013D0003A0000002F00000015640000896300003F
:1013E00079640000B80B00000D6A0000416A00003B
:1013F000596C0000E96A00006D6A0000D16B0000C2
:10140000156C00004E6F20636F6D6D756E696361C2
:1014100074696F6E20666F72203630207365632E9C
:1014200000000000810F8900064A89184968C30638
:10143000DB0E01229A401143820F9200014BD21819
:101440005160704700020050F3B589B00C4601208E
:10145000000453490862099800280ED10846006824
:10146000012108434E490860012000F01FFA0020C6
:1014700006904C48089002250EE049480068042177
:10148000084347490860102000F010FA0120C0040A
:1014900006904548089004254448844204D84010EA
:1014A000844201D9002712E04148844205D8401007
:1014B000844202D90127640009E03E48844205D8ED
:1014C0004010844202D30327A40000E057E000202C
:1014D000C043039000200190029034E02946089810
:1014E000FEF72CFE05903449059888422AD93349E5
:1014F0000598884226D2022007901EE0059E079993
:101500004E432B48864215D34000864212D8A6424D
:1015100001D9301B00E0A01B049003990498884275
:1015200008D2049803900195079802900398002828
:1015300000D106E00798401C07902149079888428F
:10154000DCD900BF6D1C212DC8D9B803069908430A
:101550000199891E490208430299891E08431049CE
:101560000862042000F0A2F9781C019A5043014659
:101570000898FEF7E3FD029948430BB0F0BD0998C7
:10158000002803D10F480649086202E00E480449CA
:101590000862042000F08AF900F05EF8EDE7000030
:1015A000000200500080BB000080510100C2EB0B24
:1015B00000E1F50580F0FA02006A1800C0E1E400DD
:1015C000010200002EC200006FD600000249096827
:1015D0000143014A1160704700020050FEB500202F
:1015E000029019A0006800901848046A0013044291
:1015F00001D00020FEBD0120C004044201D0144DE2
:1016000000E0144D01204004044201D02846F1E7D7
:10161000032080032040800B69460A5C0192E005AC
:10162000C00D861C1F2040022040400A871C019AE2
:101630007A431146AA0872431046FEF77FFD8000E8
:1016400002900298D6E70000010202040002005056
:10165000008051010080BB00FEB50020029019A05F
:10166000006800901848046A0013044201D000206A
:10167000FEBD0120C004044201D0144D00E0144D11
:1016800001204004044201D02846F1E703208003F2
:101690002040800B69460A5C0192E005C00D861C63
:1016A0001F2040022040400A871C019A7A431146BD
:1016B000AA0872431046FEF741FD8000029002988E
:1016C000D6E7000001020204000200500080510130
:1016D0000080BB00FEB50020029019A000680090B9
:1016E0001848046A0013044201D00020FEBD012006
:1016F000C004044201D0144D00E0144D0120400408
:10170000044201D02846F1E7032080032040800BEB
:1017100069460A5C0192E005C00D861C1F2040024C
:101720002040400A871C019A7A431146AA08724356
:101730001046FEF703FD800002900298D6E70000F5
:101740000102020400020050008051010080BB0031
:1017500070B504462248C06810210840054621485B
:10176000844201D9044603E01F48844200D2044663
:101770001B4800680421084319490860102000F044
:1017800095F817480069072108431549086108467C
:10179000806900090001886108460068C007C00F21
:1017A00005D021460020FFF74FFE04460AE02146FF
:1017B0000120C004FFF748FE04460948C068102114
:1017C000084005460021022000F010F8002D05D148
:1017D000034800680421884301490860204670BD21
:1017E0000002005080F0FA0240787D0170B5044696
:1017F0000D461548C068102108400646124800688A
:10180000084311490860102000F050F80E480069A4
:10181000C008C000C01D0C49086108468069000965
:1018200000012843886108460069C008C0002043C1
:10183000086102F057FE002E05D103480068102110
:1018400088430149086070BD00020050F0B50B46A6
:101850000021002400250601760F0FD08600B60F68
:10186000B600114FF41921680601770FC601F60E74
:10187000B7400E46BE431E43314621608603360EF6
:1018800010D00603B60FB600074F0837F5192968C0
:101890008603360EF6438705FF0EBE400E40164304
:1018A00031462960F0BD0000100200500146074A91
:1018B00005E01046521E002801DC00207047044855
:1018C000C06808408842F4D10120F7E7804F120039
:1018D00000020050034800684008400001490860C9
:1018E0007047000000C00050034800680121084311
:1018F000014908607047000000C0005070B5034601
:1019000000200EE0012484400C4209D01C684600EF
:101910000325B540AC4346001546B5402C431C603A
:10192000401C0828EED370BD014608784A781202A0
:1019300010438A7812041043CA7812061043704785
:101940000020014908607047804200500120014991
:10195000086070478042005000200149C86170470C
:101960000042005010B5FFF7EBFF00200849086067
:101970000849086008490860012001F027F9044679
:1019800000BF002C01D003F0A1FC00BF10BD00007F
:1019900084000020880000208C0000207CB50020FE
:1019A0000090002535E19F48008800282BDD9E48E7
:1019B0000068002807D0684600789C490968898833
:1019C000994A12685054994800688088401C974989
:1019D000096888809548006880889249098888420B
:1019E00010D191480068002806D000218F48006877
:1019F00080888D4A1268115400208B4908608949FB
:101A000008800125E6E089480068002813D10820F5
:101A100005F0A0FF8549086000BF0846006800285F
:101A200001D103F053FC00BF002080490968086021
:101A30007E49096888807D48006880887F282BDA85
:101A40007A4800680068002805D1802005F082FFF0
:101A500076490968086000BF74480068006800287B
:101A600001D103F033FC00BF684601786F4800687D
:101A700082886E4800688088401C6C4B1B68988088
:101A80006A4800680068815400216848006800685E
:101A9000664A126892888154684600783A287DD157
:101AA0006248006880880A2878DC6049096808680C
:101AB0005FA105F071FD002870D002215E4800781A
:101AC00005F0BEFC002159480068026857480068CC
:101AD0008088401E80B2554B1B689880115400BF0F
:101AE000524909680968481D01A903F0FFFA002856
:101AF00001D103F0EBFB00BF3A214C48006882881B
:101B00004A4800688088401C484B1B6898804748BA
:101B1000006800688154434901980880084600889D
:101B20004649884206DC3F480088401C05F012FF09
:101B30003D4908603C480068000E3C4909688A88B5
:101B40003A4909688988491C384B1B68998037498C
:101B5000096809688854344800680002010E334857
:101B600000688288314800688088401C2F4B1B68C1
:101B700098802E480068006881542B480088000433
:101B8000010E2A4800688288284800688088401C26
:101B9000264B1B6898802548006800E015E0006827
:101BA0008154214802782148006881881F480068D4
:101BB0008088401C1D4B1B6898801C48006800688A
:101BC00042540020194909688880684600780A282C
:101BD00000D10125012D1CD1082005F011FB044680
:101BE00000BF002C01D103F071FB00BF002020706A
:101BF0000E4800680068606021460F48007805F0D4
:101C0000D5FB0A48006805F0F3FD0020074908608D
:101C100000256946012000F005FF002800D1C2E63A
:101C20007CBD00008000002088000020840000208F
:101C30002B4950442C0000002C000020B40500006B
:101C400070B500241A48006800282FD01AE0002C34
:101C500003D1012001F08CF80446002C11DD00BFF7
:101C60001348006805F015FA05462946012001F0E1
:101C700035F8002801D003F029FB00BF601E84B2B4
:101C800000E005E00A48006805F030FA0028DED1DF
:101C900000BF0748006805F029FA002806D104486B
:101CA000006805F0E3F900200149086070BD0000FC
:101CB0008C00002010B5044603E02078641C00F07E
:101CC00017F820780028F8D110BDFEB50546694602
:101CD000284605F079FC0646002405E06946085DC3
:101CE00000F006F8601CC4B2B442F7DBFEBD000091
:101CF00010B5044610480068002803D105F0A8F983
:101D00000D49086000BF0C480068002801D103F0AD
:101D1000DDFA00BF00BF21460748006805F0E9F979
:101D2000002801D103F0D2FA00BF0121C902034803
:101D3000007805F085FB10BD8C00002068000020B5
:101D400070B504460D46164622480068002806D0A5
:101D50002048006805F04CFD00201E49086003F093
:101D6000CDFA40211C48007805F05AF940211A4864
:101D7000007805F0A8FB002C2ADD002E26DD0820C7
:101D800005F0E8FD1349086000BF08460068002818
:101D900001D103F09BFA00BF082200210D48006822
:101DA00005F024FA0B48006804800A480068458062
:101DB000002D01D1012000E0304606490968087174
:101DC00040210548007805F03BFB01E003F0A2FA52
:101DD00070BD000090000020680000200020014934
:101DE000086070479000002010B500BF2A480068C6
:101DF000002801D103F06AFA00BF00BF264800683E
:101E00000088002801DC03F061FA00BF00BF22480F
:101E100000680079002801DC03F058FA00BF1E4872
:101E2000006840791C4909688979884211DC03F00F
:101E300071FA194800684079401C174909684871CF
:101E400015480068028840211448007805F029FBF5
:101E500020E003F053FA104800688079401C0E49D6
:101E6000096888710C48006840790B49096809794C
:101E7000884207DB0848006805F0BAFC00200649E4
:101E8000086007E004480068428840210348007861
:101E900005F007FB10BD0000900000206800002046
:101EA00010B500BF06E059203349086016200860CD
:101EB00088200860304800680128F4D100BFFFF78F
:101EC00013FD002417E000BF0B202C49C860002040
:101ED000486001200861BFF36F8F00BF00BF274833
:101EE0000069C007C00FFAD124488068A100244AC5
:101EF0005050601CC4B2012CE5DB002417E000BF89
:101F00000C201E49C8600420486001200861BFF30E
:101F10006F8F00BF00BF19480069C007C00FFAD11A
:101F200016488068A100174A5050601CC4B2012CAA
:101F3000E5DB002416E020460421104AD160810030
:101F4000516001211161BFF36F8F00BF00BF0B49CA
:101F500009690029FBD109498968A0000A4A115082
:101F6000601CC4B2032CE6DBFFF7B4FC00BF00200A
:101F70000149086000BF10BD0001005000C00050C2
:101F8000780000207C00002050010020014601293B
:101F900003DA88000A4A10587047481EC1B2012966
:101FA00003DA8800074A1058F6E7481EC1B2032931
:101FB00003DA8800044A1058EEE70020ECE700003E
:101FC000780000207C0000205001002010B500F0B7
:101FD000A5FAFFF765FF00F0EFFBFFF7C3FC00F089
:101FE000FDF90C21002000F0FBF80321012000F096
:101FF000F7F8FFF7F3FE10BD10B5044600BF1F4809
:1020000040690121090340181C494969401AA0424E
:1020100001D803F05BF900BF00BFE005C00D01D09F
:1020200003F054F900BF02F04DFAFFF75DFC1349CD
:10203000496908192221114AD160114648600121DD
:102040001161BFF36F8F00BF00BF0C490969002900
:10205000FBD10A4909684022114205D007490968A5
:102060001143064A116000E000BFFFF733FC00BFD8
:1020700000200349086000BF10BD000000C00050F0
:1020800000010050F8B505460E46174600BF25482A
:10209000406901210903401822494969401AA842B0
:1020A00001D803F013F900BF00BFA807800F01D0CB
:1020B00003F00CF900BF00BF002E01D103F006F9B8
:1020C00000BF00BF002F01DC03F000F900BF02F0E9
:1020D000F9F9FFF709FC00241AE012494969491986
:1020E000A200881800210F4AD160114648600121E2
:1020F0001161BFF36F8F00BF00BF0A490969002952
:10210000FBD108498968A0003150601C80B20446A8
:10211000BC42E2DBFFF7DEFB00BF002002490860A3
:1021200000BFF8BD00C0005000010050F8B50546E2
:102130000F46164600BF2848406901210903401890
:1021400025494969401AA84201D803F0BFF800BFE9
:1021500000BFA807800F01D003F0B8F800BF00BF90
:10216000002F01D103F0B2F800BF00BF002E01DC48
:1021700003F0ACF800BF00BF802E01D903F0A6F831
:1021800000BF02F09FF9FFF7AFFB00241AE0124AEC
:1021900052695219A300D118A200B85821220E4B3F
:1021A000DA601A465160906001221A61BFF36F8FA6
:1021B00000BF00BF084A1269002AFBD100BF601CA3
:1021C00080B20446B442E2DBFFF784FB00BF00208C
:1021D0000249086000BFF8BD00C000500001005077
:1021E00070B504460D4600BF022C01DB03F06EF80B
:1021F00000BFA00001494018C57070BD4401002017
:1022000010B500F015F9044600F002F810BD00000A
:10221000F8B506466D48007A704007460024CEE0C7
:102220000120A040384258D00120A040304255D073
:1022300000BFA000654943187D2212012146644871
:1022400004F0ACFE002801D003F040F800BFA0006D
:102250005E494018807801210843A1005B4A891833
:102260008870A00011464018C0781021084219D08B
:1022700000BFA00011464018431C7D225201214698
:10228000544804F08BFE002801D003F01FF800BF73
:10229000A0004E494018807802210843A1004B4A13
:1022A00089188870A00049494018C078C007C00F3D
:1022B000B9D0032004F0A4FF054600BF002D01D1D2
:1022C00003F004F800BF002028700121A9706C7091
:1022D00029464148007805F069F86EE0A0003B49C6
:1022E00040188078C007C00F2FD000BFA100374A28
:1022F000505C04F061FE002801D002F0E7FF00BF4F
:10230000A00032494018807840084000A1002F4AC0
:1023100089188870A00011464018C078042108422E
:1023200013D0032004F06CFF054600BF002D01D13F
:1023300002F0CCFF00BF002028700421A9706C704F
:1023400029462548007805F031F8A0001F494018BB
:1023500080780221084215D000BFA1001B4A8918CD
:10236000487804F029FE002801D002F0AFFF00BF3A
:10237000A00016494018807802218843A100134A22
:1023800089188870A00011494018C07802210842BD
:1023900013D0032004F034FF054600BF002D01D107
:1023A00002F094FF00BF002028700221A9706C7019
:1023B00029460948007804F0F9FF601CC4B2022CD9
:1023C00000DA2DE701480672F8BD00004401002044
:1023D0007D5D0000D95D00001400002010B50922C9
:1023E0000021024804F002FF10BD0000440100205B
:1023F00010B500BF322210210448007805F051F8D2
:10240000002801D002F062FF00BF10BD680000206C
:1024100010B500F00DF8044604480078844203D05B
:10242000FFF7E6FF0148047010BD000077000020B0
:1024300000200B494969002901D1012100E0002158
:10244000084307494039896A002901D1012100E088
:1024500000214900084300BF00BF00BF70470000D3
:1024600080420050FFB581B005461746002D47D089
:10247000002F45D00498002842D0642F3BDA012673
:102480002D072D0F214C29E02846304223D02078FB
:10249000022808DA30461E49097808401D490978A3
:1024A00008431C490870002020700498A080A77081
:1024B000029860700298002803D120780421084314
:1024C000207004F0A7FDA06020780221084320704E
:1024D0002846704005467006060E0C34002DD3D1F8
:1024E00020210D48007804F0EEFF20210A480078F2
:1024F00004F0A6FF08E00121284600F083F803E07D
:102500000021284600F07EF805B0F0BD1001002043
:1025100074000020760000206800002010B500BF85
:10252000012208211048FFF7E9F9012220210E4875
:10253000FFF7E4F9012208210B48C030FFF7DEF96C
:10254000012210210848C030FFF7D8F901220221EA
:102550000648FFF7D3F900BF00210F2000F052F822
:1025600000210348017410BD00400050004100509C
:1025700030010020C207D20F08D0012903D1012267
:102580001E4BDA6002E000221C4BDA60022210428D
:102590000AD0012904D10122184B80335A6003E08C
:1025A0000022164B80335A600422104208D00129C1
:1025B00003D10122114B5A6102E000220F4B5A61F4
:1025C000082210420AD0012904D100220B4B4033CB
:1025D0001A6303E00122094B40331A63002905D036
:1025E000074A12780243064B1A7006E0FF22424067
:1025F000034B1B781A40024B1A7070470042005080
:1026000074000020F8B505460E46330002F00AFAC1
:1026100009171606350E3535351835007D23DB00D4
:10262000052201212846FFF71DFF27E07D23DB005F
:10263000052232212846FFF715FF1FE000BF00BF2B
:1026400001272D072D0F0F4C14E0284638420ED0DD
:10265000082E01D0267003E0207801214840207028
:1026600021783846FFF786FF2846784005467806E9
:10267000070E0C34002DE8D100E000BF00BF024877
:102680000078F8BD1001002074000020FEB500277E
:1026900001250F200190454C20462030007C002869
:1026A0007ED174E0019828426ED020780221084241
:1026B00067D004F0AFFC0646A168B14254D8207838
:1026C000C007C00F14D0A0786421081AC0B20290CD
:1026D000207840084000207000212846FFF74AFF7C
:1026E00020780421084218D16078401E607014E000
:1026F0006078002808D120780421084204D120788D
:1027000002214840207008E0A07802902078012142
:10271000084320702846FFF72DFF20780221084249
:102720000CD0A188029A514308466421FDF706FDAA
:1027300080B2009000983018A06019E0002000904E
:102740001B480078284201D0012000E0002001460B
:102750002846FFF757FF2846FF21484014490978CB
:1027600008401349087003E02089801B80B2009064
:10277000002F05D00098002803D00098B84200DA56
:10278000009F0198684001906806050E0C3401987E
:10279000002887D1002F07D03A462021054800E0C5
:1027A00002E0007804F07DFEFEBD00001001002074
:1027B000760000206800002010B5002000F006FA26
:1027C000044600BF002C01D002F080FD00BF10BD08
:1027D000F8B500200090002686E0684604780A2CB0
:1027E00002D0204600F0C6F80D2C40D00A2C3ED076
:1027F00041480068002813D1082005F0ABF83E4995
:10280000086000BF08460068002801D102F05EFDA4
:1028100000BF002038490968086037490968888086
:102820003548006880887F2821DA334800680068CE
:10283000002805D1802005F08DF82F49096808602F
:1028400000BF2D4800680068002801D102F03EFD5D
:1028500000BF294800688188274800688088401C9C
:10286000254A1268908024480068006844540D2C62
:102870000CD10A2000F07EF81F480068002805D01F
:102880001D4800680068002800D00126012E2BD1C9
:102890000021194800688288174800688088401C19
:1028A000154B1B6898801448006800688154082004
:1028B00004F0A6FC054600BF002D01D102F006FD84
:1028C00000BF012028700C48006800686860294635
:1028D0000A48007804F06AFD0748006804F088FFA1
:1028E00000200549086000266946002000F09AF89B
:1028F000002800D171E7F8BD6C0000201400002012
:1029000070B500241A48006800282FD01AE0002C67
:1029100003D1002000F02CFA0446002C11DD00BF8A
:102920001348006804F0B5FB05462946002000F076
:10293000D5F9002801D002F0C9FC00BF601E84B2A6
:1029400000E005E00A48006804F0D0FB0028DED172
:1029500000BF0748006804F0C9FB002806D10448FE
:10296000006804F083FB00200149086070BD00008E
:102970007000002010B5044610480068002803D1FC
:1029800004F066FB0D49086000BF0C480068002891
:1029900001D102F09BFC00BF00BF21460748006840
:1029A00004F0A7FB002801D102F090FC00BF012138
:1029B00049020348007804F043FD10BD7000002078
:1029C000680000207CB505466946284602F0EEFC0A
:1029D0000646002405E06946085DFFF7CBFF601C52
:1029E000C4B2B442F7DB7CBD10B5044603E02078E6
:1029F000641CFFF7BFFF20780028F8D110BDFEB59A
:102A000005466946284604F0DFFD0646002405E039
:102A10006946085DFFF7AEFF601CC4B2B442F7DB45
:102A2000FEBD000030B50246012A01DD052030BDA3
:102A30001C2050431E4B185C002801D10220F6E7F1
:102A40001C2050431A4BC01883891C205043184C3B
:102A500000194089834227D01C2050432346C018C8
:102A600083891C20504300198089401C84B21C209B
:102A700050430F4D401984811C2050432C460019AF
:102A80004068C05C08701C2050432346C0188389EE
:102A90001C20504300190089834207DB00231C20BF
:102AA00050430019838101E00320C0E70020BEE706
:102AB000D80000207FB50446FF25414903C9039192
:102AC00002903F480830006801903D480C30006893
:102AD0000090A00002A90858C669681C064217D0D9
:102AE0000FE0A00002A908580068C5B22946204698
:102AF00002F024FC60006A46115A3248007804F063
:102B00009FFCA00002A90858C069C007C00FE8D107
:102B100001204002064251D01C2060432A4940183F
:102B2000018B1C206043284A8018C08A814234D01F
:102B30001C20604311464018018B1C206043801804
:102B4000008B401C82B21C2060431F4BC0180283C4
:102B50001C2060431A4680180069455C1C206043B5
:102B600011464018018B1C2060438018808A8142E6
:102B700004DB00211C2060438018018300BFA000FB
:102B800002A9085880690121C9050840C00DF6D185
:102B9000A00002A90858056009E0A00002A9085891
:102BA000406802218843A10002AA51584860600091
:102BB00001AA115A0348007804F042FC7FBD0000CE
:102BC000507C000068000020D800002010B50446AA
:102BD000012C01DD052010BD1C2060433749085C35
:102BE000012800D1F7E7002C26D135491C2060438D
:102BF000324A8018416008211C20604380180181FE
:102C000030491C2060438018016108211C2060436A
:102C1000801881822C4801F03CFCE12149022B48BC
:102C200001F02EFD294840681121084327494860DA
:102C30000C2001F03BFA28E0012C26D124491C206D
:102C400060431E4A8018416010211C206043801898
:102C5000018120491C2060438018016108211C204B
:102C60006043801881821848401C01F012FCE12169
:102C70004902194801F004FD174840681121084332
:102C8000154948600D2001F011FA00211C20604315
:102C90000A4A801841811C206043801881811C20D1
:102CA00060438018C1821C20604380180183012189
:102CB0001C206043115400208DE70000D800002044
:102CC00050000020580000201000000400000540C3
:102CD000C800002060000020000015403CB50246FE
:102CE0000B46214C11CC01940090012A01DD0520F6
:102CF0003CBD1C2050431D4C205C002801D102200B
:102D0000F6E71C205043194C0019C18A481C81B2B7
:102D10001C2050430019808A884200DC00211C20BE
:102D20005043124C0019008B884201D10420DFE788
:102D30001C2050430D4C001904691C2050430B4DBE
:102D40004019C08A23541C2050432C460019C182CC
:102D500090006C46205840680224204394006D4641
:102D60002C5960600020C3E7487C0000D800002098
:102D700010B501460023012901DD002010BD1C20F3
:102D80004843134C205C002800D1F7E71C2048433F
:102D90000F4C0019C28A00BF501C82B21C2048434D
:102DA0000B4C0019808A904200DC00221C20484312
:102DB000074C0019008B904201D0581C83B21C2094
:102DC0004843034C0019008B9042E5D11846D5E7E3
:102DD000D8000020014908707047000068000020FA
:102DE00070B506460C460120C003044215D030469B
:102DF00004F0A8FA054609E0284602F0CFFA284672
:102E000004F015FA304604F09DFA0546002DF3D182
:102E100020460121C903484070BD012080020442C0
:102E200006D0FEF7BBFD2046012189024840F3E7AA
:102E30000120C002044206D0FEF702FF2046012115
:102E4000C9024840E8E7FF200130044206D0FFF7FE
:102E5000BFFC2046FF2101314840DDE70120400250
:102E6000044206D0FFF74CFD2046012149024840AC
:102E7000D2E74020044205D0FEF7B6FF20464021AD
:102E80004840C9E72020044205D0FFF7FFFB204659
:102E900020214840C0E71020044205D0FFF7B0F9D8
:102EA000204610214840B7E70020B5E710B5FFF7EE
:102EB000AFFA10BD10B5044604A001F08FFD204606
:102EC00004F016FB02F002FA10BD0000496E204823
:102ED000617264204661756C742048616E646C6533
:102EE000720A000070B5054600240B4800680028EF
:102EF00004D028460849096888470446002C03D1B5
:102F00002846FDF7B1FC044600BF002C01D102F0B9
:102F1000DDF900BF70BD00004400002070B505461B
:102F20000C460AA0FEF7C6FE2846FEF7C3FE0BA01D
:102F3000FEF7C0FE002C02D02046FEF7BBFE08A024
:102F4000FEF7B8FE07A0FEF7B5FE70BD41542B4357
:102F5000574A41505F4355523D220000222C220027
:102F6000220000000D0A000010B502A0FEF7A2FE2C
:102F700010BD000041542B43575141500D0A000031
:102F800010B5044604A0FEF795FE2046FEF79DFE10
:102F900005A0FEF78FFE10BD41542B43574D4F4403
:102FA000455F4355523D00000D0A000010B502A0D8
:102FB000FEF780FE10BD000041542B43575354418F
:102FC0005254534D4152543D330D0A0010B502A0E6
:102FD000FEF770FE10BD000041542B435753544F71
:102FE00050534D4152540D0A0000000010B502A08C
:102FF000FEF760FE10BD000041542B434950434C86
:103000004F53450D0A000000FEB504460D46164616
:103010000D4A07CA6B4607C30CA0FEF74BFEA10082
:103020006A465058FEF746FE0CA0FEF743FE2846BF
:10303000FEF740FE0AA0FEF73DFE3046FEF745FED5
:1030400008A0FEF737FEFEBD3C7C000041542B4338
:10305000495053544152543D22000000222C22007A
:10306000222C00000D0A000010B5044604A0FEF753
:1030700021FE2046FEF729FE04A0FEF71BFE10BD30
:1030800041542B43495053454E443D000D0A000026
:1030900070B505462846FDF7B7F8401C86B20820F3
:1030A00004F0AEF8044600BF002C01D102F00EF986
:1030B00000BF02202070304604F04CFC606000BF6E
:1030C0006068002801D102F001F900BF6068324653
:1030D000294604F07DF821460248007804F066F99C
:1030E00070BD00002C00002070B505462846FDF795
:1030F0008BF8401C86B2082004F082F8044600BF1A
:10310000002C01D102F0E2F800BF0120207030460F
:1031100004F020FC606000BF6068002801D102F06C
:10312000D5F800BF60683246294604F051F82146C0
:103130000248007804F03AF970BD00002C0000202D
:1031400070B50546042004F05BF8044600BF002C6F
:1031500001D102F0BBF800BF052020706580214638
:103160000248007804F022F970BD00002C00002015
:1031700010B504210248007804F062F910BD000087
:103180002C00002001480088704700002E0000201D
:1031900010B504460F480068002804D1142004F03C
:1031A000D9FB0C49086000BF0A480068002801D11B
:1031B00002F08CF800BF142221460648006804F093
:1031C00007F852200449088001210448007804F0DF
:1031D00037F910BD38000020300000202C000020FE
:1031E00070B50546042004F00BF8044600BF002C1F
:1031F00001D102F06BF800BF0320207065802146EA
:103200000248007804F0D2F870BD00002C000020C5
:1032100070B50446002C01D1012070BD2068002843
:1032200001D10120F9E731480068002801D00320CE
:10323000F3E7102004F08EFB2C49086000BF08461D
:103240000068002801D102F041F800BF2068FCF7B7
:10325000DBFF401C85B2284604F07CFB234909684B
:10326000086000BF214800680068002801D102F012
:103270002DF800BF1D4A2168126810682A4603F025
:10328000A7FF6068002803D11849096848601AE060
:103290006068FCF7B9FF401C85B2284604F05AFB71
:1032A00012490968486000BF10480068406800285B
:1032B00001D102F00BF800BF0C4A61681268506837
:1032C0002A4603F085FF0949E0680968C860074994
:1032D000A0680968886042200549088001210548E6
:1032E000007804F0ADF8002097E7000034000020DB
:1032F000300000202C00002010B50848006800288D
:1033000001D1032010BD4220054908800121054854
:10331000007804F095F80020F4E700003C0000205D
:10332000300000202C00002070B50446002C01D194
:10333000042070BD2068002801D10420F9E7A0888E
:10334000002801D10420F4E7274800780006000F88
:10335000042801D00120ECE724480068002801D0AF
:103360000220E6E7142004F0F5FA2049086000BFC7
:1033700008460068002801D101F0A8FF00BF2068BE
:10338000FCF742FF401C85B2284604F0E3FA1749D7
:103390000968086000BF154800680068002801D16E
:1033A00001F094FF00BF114A2168126810682A4694
:1033B00003F00EFFA0880D49096888800B49A068BA
:1033C000096888600949E0680968C8600749206998
:1033D0000968086106480749088001210648007805
:1033E00004F02EF80020A4E72E0000203C0000206E
:1033F00042020000300000202C00002010B50446DE
:103400000E4800780007000F02280BD10B48007807
:103410000006000F042805D1084800880005000FA9
:10342000022800D010BD204600F074FD2021044881
:10343000007804F005F800BFF4E700002E0000203B
:103440002C00002010B504460E4800780007000F3D
:1034500002280BD10B4800780006000F042805D184
:10346000084800880005000F022800D010BD204643
:1034700000F050FD20210448007803F0E1FF00BF78
:10348000F4E700002E0000202C00002010B50446B8
:10349000104800780007000F02280BD10D48007873
:1034A0000006000F042805D10A4800880005000F17
:1034B000022800D010BD03E02078641C00F02AFD33
:1034C00020780028F8D120210348007803F0B8FFC5
:1034D00000BFEFE72E0000202C000020FEB50646BE
:1034E000144800780007000F02280BD1114800781B
:1034F0000006000F042805D10E4800880005000FC3
:10350000022800D0FEBD6946304604F05DF805464D
:10351000002405E06946085D00F0FCFC601CC4B2B4
:10352000AC42F7DB20210448007803F089FF00BF9C
:10353000E8E700002E0000202C00002010B5044613
:103540000B48047000200B49088002200A490880BB
:1035500000200A4908600A4908600A4908600A49C7
:1035600008607D22D2001021204603F09AFF10BD92
:103570002C0000202E00002030000020340000200D
:10358000380000203C00002040000020F8B506462E
:103590000C460120C003044215D0304603F0D2FE91
:1035A000054609E0284600F00DFC284603F03FFEE2
:1035B000304603F0C7FE0546002DF3D12046012119
:1035C000C9034840F8BDE007C00F07D03849394863
:1035D00000F0C0FC204601214840F3E710200442DF
:1035E00005D0FEF7B3F9204610214840EAE7202035
:1035F000044222D02F4800882F49884204D02D4809
:1036000000882E49884214D12D480068002810D027
:1036100000BF284800880121090308432549088084
:1036200000BF2748006803F061FD87B23846FFF706
:103630001BFD204620214840C4E70420044219D045
:103640001F480068002808D01D48006803F04EFDA0
:1036500087B23846FFF708FD08E000BF154800882C
:103660000121090388431349088000BF2046042133
:103670004840A7E7022004420CD000BF0D48008854
:103680000121490308430B49088000BF204602215D
:10369000484097E70820044208D0002005490880E8
:1036A000FFF794FC2046082148408BE7002089E77B
:1036B000300000202E0000204202000042220000C4
:1036C0004000002070B50546F7480580622D79D08E
:1036D00010DC222D5AD006DC012D21D0022D75D010
:1036E000122D71D10DE3322D34D0422D6DD0522DDB
:1036F000F7D196E1FF210331681A8D427ED006DCB6
:10370000722D7CD0822D7BD0922DEAD1BAE2402856
:1037100077D0FF38413875D0FF380138E1D161E109
:10372000E2A0FFF761F900BFE6480068002801D079
:1037300001F0CCFD00BF00BFE3480068002801D0C5
:1037400001F0C4FD00BF0020D74908800120FFF729
:1037500017FCE1E2DDA0FFF747F900BFE048006891
:10376000002801D101F0B2FD00BF00BFD5480068BC
:10377000002801D001F0AAFD00BF00BFD2480068B8
:10378000002801D001F0A2FD00BFC5E2D5A0FFF7DF
:103790002BF900BFD2480068002801D101F096FD46
:1037A00000BF00BFC7480068002801D001F08EFDAF
:1037B00000BF00BFC4480068002801D001F086FDAA
:1037C00000BFA9E242E101E0A3E2A6E000BFBE48DB
:1037D0000068002801D001F079FD00BFB9480068F9
:1037E00000281CD0B74800680068002804D0B549FC
:1037F0000968086803F0FCFFB24804E085E229E1AB
:103800003DE14AE055E00068C468AE48006803F056
:10381000EFFF0020AB490860002C00D0A047B04863
:103820000068002835D0AE480068C068002803D082
:10383000B8A0FFF7D9F802E0BDA0FFF7D5F8A84877
:1038400000680068002808D0A5490968086803F0E6
:10385000CFFF0020A24909680860A14800684068BD
:10386000002808D09E490968486803F0C1FF00207D
:103870009B49096848609A480068846898480068CD
:1038800003F0B6FF002096490860002C04D0A04742
:1038900002E0ADA0FFF7A8F83EE2B1A0FFF7A4F860
:1038A00000BF89480068002801D001F00FFD00BF6B
:1038B00032E200BF8A480068002801D101F006FD0D
:1038C00000BF00BF7F480068002801D101F0FEFC66
:1038D00000BF00BF7C480068002801D001F0F6FC62
:1038E00000BFA7A0FFF780F87648006800680028AE
:1038F00008D074490968086803F07AFF002071490C
:10390000096808606F480068846800206D4909688C
:103910008860002C00D0A047FEE1714800680028B4
:103920002DD06F480068C068002828D09BA0FFF702
:103930005BF86B4800680068002808D0684909688F
:10394000086803F055FF002065490968086064486D
:1039500000684068002808D061490968486803F099
:1039600047FF00205E49096848605D480068C468F8
:1039700000205B490968C860002C00D0A04751486E
:103980000068002822D04F4800688068002803D0D3
:1039900087A0FFF729F802E08EA0FFF725F8494835
:1039A00000680068002804D046490968086803F0E8
:1039B0001FFF44480068C4684248006803F018FFCD
:1039C000002040490860002C00D0A0473E48006815
:1039D000002806D03C48006803F048FB00203A4924
:1039E000086099E182A0FEF7FFFF00BF3C48006835
:1039F000002801D101F06AFC00BF00BF3148006817
:103A0000002801D101F062FC00BF2F4800680028A7
:103A100006D02D48006803F029FB00202A490860E1
:103A20007AE17BA0FEF7E0FF00BF80480068002835
:103A300001D101F04BFC00BF7C4800680068002801
:103A400003D07A4909680868804765E178A0FEF7E5
:103A5000CBFF61E17DA0FEF7C7FF0020124908807F
:103A6000FFF7B4FA00BF71480068002801D101F0E7
:103A70002DFC00BF00206D49096808614CE17AA067
:103A8000FEF7B2FF002008490880FFF79FFA00BF49
:103A900066480068002801D101F018FC00BF002032
:103AA00062490968C86037E12E00002057692D4639
:103AB0006920696E697469616C697A696E672E0D37
:103AC0000A0000003C0000204000002057692D46FD
:103AD0006920636F6E6E656374696E672E0D0A00F0
:103AE0003400002057692D466920636F6E6E656350
:103AF0007465642C2077616974696E67204448435B
:103B00005020746F2061737369676E2049502E0DC9
:103B10000A00000057692D466920636F6E6E656369
:103B200074206661696C7572652E0D0A00000000D4
:103B300057692D466920646973636F6E6E6563749F
:103B400065642E0D0A00000057692D466920696ED4
:103B5000697469616C697A65642E0D0A0000000061
:103B6000536F636B657420636F6E6E656374696F0A
:103B70006E206F70656E696E672E0D0A0000000082
:103B8000536F636B657420636F6E6E656374696FEA
:103B90006E206F70656E65642E0D0A0057692D46A4
:103BA0006920636F6E6E65637465642E0D0A000094
:103BB000536F636B657420636F6E6E656374696FBA
:103BC0006E206F70656E206661696C7572652E0D72
:103BD0000A000000536F636B657420636F6E6E653F
:103BE0006374696F6E20636C6F7365642E0D0A00D9
:103BF000436C6F73696E6720736F636B65742063CA
:103C00006F6E6E656374696F6E2E0D0A00000000A2
:103C100057692D46692070616972696E6720776106
:103C20006974696E672E0D0A0000000038000020DC
:103C300057692D46692070616972696E67207374D7
:103C400061727465642E0D0A0000000057692D46EC
:103C5000692070616972696E67207375636365734B
:103C6000732E0D0A0000000057692D46692070610F
:103C70006972696E67206661696C7572652E0D0ADE
:103C80000000000033A0FEF7AFFE39480068C068AE
:103C900000280DD0364800680069002808D1344853
:103CA0000068C468002033490880FFF75DF91DE013
:103CB0002F4800680069002808D02D480068C068B7
:103CC000002803D12A48006804690FE028480068EA
:103CD0000069002808D026480068C068002803D082
:103CE00023480068046901E001F0F0FA2048006808
:103CF00003F07EFD00201E490860002C00D0A04784
:103D00000AE01DA0FEF770FE06E021A0FEF76CFEA3
:103D100002E001F0DBFA00BF00BF16480088274927
:103D2000098888420DD025480088002811D0114804
:103D3000008800280DD001212148007803F080FB85
:103D400007E000201D49088001211D48007803F08C
:103D500067F970BD57692D46692070616972696E97
:103D6000672073746F707065642E0D0A0000000088
:103D7000380000202E00002057692D466920646914
:103D800073636F6E6E656374696E672E0D0A000053
:103D900057692D466920646973636F6E6E6563743D
:103DA0006564207768656E206F70656E696E672048
:103DB000736F636B65742E0D0A00000030000020E5
:103DC0002C00002010B504462078030000F02AFEE5
:103DD00006040B21373B5E626068FFF783F860687A
:103DE00003F006FD59E000BF2D480068002801D10E
:103DF00001F06CFA00BF2A4800684068002804D02F
:103E00006068274A126851688847606803F0F0FCD0
:103E100043E000BF22480068002801D101F056FAB3
:103E200000BF1F4800688068002804D060681C4AF2
:103E3000126891688847606803F0DAFC2DE06088BA
:103E4000FFF740FC29E000BF164800880121490324
:103E500088431449088000BF00BF13480068002849
:103E600001D101F033FA00BF0F4800680069002853
:103E700005D0618860680C4B1B681A6990476068C0
:103E8000002802D0606803F0B3FC06E0608800F010
:103E90000DF802E001F01AFA00BF00BF10BD0000EB
:103EA000380000202E0000203C00002070B50446A1
:103EB00000BF17480068002801D101F007FA00BFD1
:103EC00000BF1348006803F011F980B2A04201DA84
:103ED00001F0FCF900BF002509E00D48006803F07F
:103EE000D8F806463046FDF703FF681C85B2A542A8
:103EF000F3DB0748006803F0F9F80004000C06D172
:103F00000348006803F0B2F800200149086070BD62
:103F10004000002010B504460D480068002803D179
:103F200003F096F80A49086000BF094800680028B5
:103F300001D101F0CBF900BF00BF21460448006861
:103F400003F0D7F8002801D101F0C0F900BF10BD7F
:103F50004000002070B504460D462088298888421C
:103F600000D170BD2888022876D0422805D052287A
:103F700031D04B4940186ED159E020780007000F2E
:103F8000022827D120780006000F04D020780006F0
:103F9000000F09280ED14348006800281AD00020DD
:103FA0002080404A126851683E4A12681068FEF745
:103FB000B5FF0FE020780006000F04280AD1208802
:103FC0000005000F022805D12088001302D12080AF
:103FD000FFF70CF861E020780007000F022825D1D8
:103FE00020780006000F04D020780006000F092872
:103FF00004D100202080FEF7D9FF17E020780006CA
:10400000000F042812D120880005000F03D1208062
:10401000FEF7AAFF0AE020880005000F022805D15C
:104020002088001302D12080FEF7E0FF35E02088D1
:1040300042280ED11C48006800280AD000202080A9
:104040001948006882881848006801680020FEF757
:10405000DBFF22E000E01DE020780007000F0228CF
:1040600017D120780006000F042812D120880005FF
:10407000000F03D12080FEF777FF0AE020880005BB
:10408000000F022805D12088001302D12080FEF7FE
:10409000ADFF02E001F01AF900BF00BF00BF60E70A
:1040A000BEFDFFFF340000203C000020C206D20EFF
:1040B00001219140014A11607047000000E100E0D9
:1040C000FFB59BB005460C46634801460EC9C06863
:1040D00015AE0EC618900127FF20149044225E49A9
:1040E000103103A8FCF754F85C4802905C48854204
:1040F0000ED15C48406902212140032212078A4008
:1041000010402146022211401C31C8401A900CE098
:104110005448C0690221214030228A401040214683
:1041200002221140091DC8401A901A98022805D190
:1041300000F0D8F94C480068199004E01A98800003
:1041400015A9085819902BE01D991998FBF7F6FF4F
:1041500039460190FBF7F2FF064601200006864231
:1041600000D91BE03D4830180002000E149014984E
:10417000032801DA0220149030461499FBF7DEFF81
:10418000064601200004864207D8012E02D10120F4
:10419000029001E0B0B2029004E000BF7806070E82
:1041A000112FD1DB00BF14987843029A5043014687
:1041B0001998FBF7C3FF06461498401EC0B214902E
:1041C0000298401E80B20290B80003A90F5C2868D4
:1041D0006108CA00FF21914088436108CA00149910
:1041E0009140084328606868A200072191408843F5
:1041F000A2003946914008436860A968620801201E
:10420000800790408143A960A868E200082191409E
:104210000843A8601E9800280ED0029A521C1E99CE
:10422000514308466421FBF789FF401E0C2161437E
:104230002A461032505005E000210C2060432A46E7
:10424000103211500C2161432A460C320298505012
:1042500030461FB0F0BD0000907B0000FFFF000063
:10426000000004400002005000000020C26F8A439A
:10427000C2677047C26F0A43C267704730B50246D3
:104280000023002008E0012484400C4203D0C50034
:104290000124AC402343401C0428F4D394681C43FD
:1042A000946030BD30B5024600200AE0012383400F
:1042B0000B4205D000250C23434314460C34E55033
:1042C000401C0428F2D330BD10B500BF06E05920D1
:1042D0004949086016200860882008604648006840
:1042E0000128F4D100BF0420FDF770F91020FDF77C
:1042F000DDFA00210720FDF779FA4048FDF728FA9A
:1043000000F0F0F83E48FDF78DF800220121090683
:104310003B48FDF79BFA05200007C06B3949084070
:1043200005210907C8630846C06B0321084305211E
:104330000907C8633248401CFDF774F800220121C8
:1043400009062F48401CFDF781FA05200007406B45
:104350002D4908400521090748630846406B0321A1
:10436000890208430521090748632848FDF75AF8E0
:104370000022012149022548FDF768FA2448FDF78B
:1043800051F80022032109072148FDF75FFA0520B3
:104390000007806BFF2101318843052109078863ED
:1043A0000846806BFF210131084305210907886316
:1043B00000BF00201049086000BF7D22D200C90460
:1043C000144800F005F900BF1248006801214907B0
:1043D00008431049086000BF0820012181400E4AAF
:1043E000116000BF00BF0B480068910508430949F0
:1043F000086000BF10BD00000001005080F0FA020C
:10440000103D8057FCFCFFFFF3F3FFFF0200805ECE
:104410001400C0570000014000E100E01CB5154841
:10442000019000200090FDF78BFA0BE012484069E4
:10443000002801D1012000E00020012802D10098CD
:10444000401C00900198411E01910028EED10949BD
:10445000009888420DD1FDF77FFA0848019000BF0F
:104460000198411E01910028FAD1FDF76FFA00BFB3
:10447000FEE71CBDFFFF2F0080420050FFFF0F0032
:10448000052000078068012108430521090788608D
:104490007047010E0522120789188968012282409F
:1044A0001143020E05231B07D2189160010E1A4614
:1044B00089188968012282409143020ED2189160C6
:1044C0007047000006E05920054908601620086082
:1044D00088200860024800680128F4D17047000075
:1044E0000001005070B51248006945076D0FFDF7D7
:1044F00075F810490860022D03D0A8000E490C5829
:1045000001E00C4804680A4880690007000F461C57
:1045100031462046FBF712FE084908600849074863
:1045200000684A108018FBF709FE0649086070BD54
:1045300000020050080000201C7B0000000000204A
:1045400040420F00040000207047000030B589B0E1
:1045500005462022194901A8FBF71AFE1848854292
:1045600006D118484069072109020840040A1AE0E8
:1045700013482030854206D11248406907210903BB
:104580000840040B0FE01048854206D10D484069F1
:10459000072109040840040C05E00A484069072186
:1045A00009050840040D022C03D10848006809B031
:1045B00030BDA00001A90858F9E70000E47B000025
:1045C00000000140000200500000114000000020E7
:1045D000FEB505460F4616462846FFF7B7FF0446C8
:1045E0000020019000906008B04202D202200190A9
:1045F0001BE001208006844203D307200090E408DA
:104600000EE001204006844203D303200090A4085A
:1046100006E001200006844202D3012000906408D5
:1046200031462046FBF78AFD019000983843286008
:1046300001986860009A521C019850430146204638
:10464000FBF77CFDFEBD000010B500BF064880688A
:10465000C007C00F002806D000BF012002498860B3
:1046600000BF02F093FB10BD0000014010B5002018
:10467000FEF720FA10BD10B50120FEF71BFA10BDA1
:10468000F0B587B004460D46274801460EC9C068FC
:1046900003AE0EC606900020029024484069032114
:1046A00009060840060E214880690F2109020840CA
:1046B000070A002020630320E060A0681C4908402E
:1046C000A060012E04D1FDF705F8B10003AA5050F7
:1046D000002D26D0B10003AA5058791CFBF72EFDFF
:1046E0006908401829460190FBF728FD801E0290BA
:1046F0001049029888420FD9B10003AA5058791C7A
:10470000FBF71CFDE900401829460190FBF716FD58
:104710000009801E606204E0032109070298084333
:10472000606207B0F0BD0000047C00000002005091
:104730000FFFF0FFFFFF0000FEB507460D462B48B8
:104740000078032800D0FEBD0026002D06D02846A4
:10475000FBF75AFD86B27B2E00DD002688200290F2
:10476000B01C80210843C0B201900298FEF746FEBB
:104770000198FEF743FE1E490878FEF73FFE1C49EC
:104780004878FEF73BFE1A498878FEF737FE18494D
:10479000C878FEF733FE3904090E154A12785140E5
:1047A0000846FEF72BFEF9B2114A527851400846EE
:1047B000FEF724FE002412E0A11C0091C9178A0F05
:1047C0000099511889108A000099891A084A515C89
:1047D0002A5D51400846FEF711FE601C84B2B442C7
:1047E000EADB04200149087000BFACE72400002088
:1047F000387C000070B586B00446002C02D104203D
:1048000006B070BD206800280ED0606800280BD06C
:104810002089002808D0E068002805D020690028F9
:1048200002D06069002801D10420E9E7FEF7AAFC64
:1048300005462807000F022803D12806000F042888
:1048400001D00120DCE72805000F01D00220D7E7C6
:1048500000BF3B480068002801D000F037FD00BFD2
:10486000182003F077F83649086000BF0846006852
:10487000002801D100F02AFD00BF2068FBF7C4FC2E
:10488000401C86B2304603F065F82D49096808607F
:1048900000BF2B4800680068002801D100F016FD19
:1048A00000BF274A216812681068324602F090FC67
:1048B0006068FBF7A9FC401C86B2304603F04AF85A
:1048C0001F490968486000BF1D480068406800280B
:1048D00001D100F0FBFC00BF194A61681268506802
:1048E000324602F075FC208915490968088114498F
:1048F000E0680968C8601249606909684861104940
:104900002069096808610E480068406801900C48F9
:1049100000680089694608810A4804900A480390A3
:104920000A48059000BF01A8FEF7FEFC002801D050
:1049300000F0CCFC00BF01200549087000205FE7B3
:1049400028000020355E0000855E0000D95F000071
:1049500024000020FEB507461E480078032800D03A
:10496000FEBD3846FBF750FC85B27D2D00DDF7E734
:1049700081200190E8B28021084300900198FEF761
:104980003DFD0098FEF73AFD13490878FEF736FD25
:1049900011494878FEF732FD0F498878FEF72EFD61
:1049A0000D49C878FEF72AFD00240FE02646E117DE
:1049B000890F891989108900611A074A515C3A5D8B
:1049C00051400846FEF71AFD601C84B2AC42EDDB94
:1049D00000BFC5E724000020347C00000FB410B5F0
:1049E00003A9044B044A029800F03AF810BC08BC32
:1049F00004B01847BD5200000C0000200FB410B5E1
:104A000004A9074B02AA039800F02AF8044602A959
:104A1000002000F063FA204610BC08BC04B0184720
:104A2000DD4E000030B47446641E2578641CAB4231
:104A300004D3635D5B00E31830BC18471D46F8E7FC
:104A400002E008C8121F08C1002AFAD17047704757
:104A5000002001E001C1121F002AFBD170470000B5
:104A6000FFB591B00F4605460026F9E0252876D11E
:104A700000246D1CFB4A0094012102942B78084607
:104A8000203B98400346134202D004436D1CF5E7D7
:104A900028782A280ED0022128780246303A092A9E
:104AA00015D8009A0A235A43303A80180C436D1CDB
:104AB0000090F1E701CF0090002805DA01204003C3
:104AC0000443009840420090022004436D1C287863
:104AD0002E2815D1042004436D1C28782A280AD1D9
:104AE00001CF6D1C02900BE002990A22514330392C
:104AF00040186D1C02902878014630390929F3D9F5
:104B000028786C2810D006DC4C281AD068280ED0E3
:104B10006A2817D104E0742813D07A2812D110E043
:104B20000120400504430CE00121090501E00321B7
:104B300009050C436978814203D101206D1C0005F1
:104B400024186D1C287803906E281FD00DDC632874
:104B500033D005DC00287DD0582812D1BEE010E00B
:104B6000642801D069280CD181E073282FD004DC9F
:104B70006F2870D0702804D1B2E075286CD07828E6
:104B80006BD0149A13999047761C68E06002400F2E
:104B9000022807D003280AD0042838680AD03F1D0D
:104BA00006605CE001CFF1170660416057E001CF7D
:104BB000068054E03F1D067051E03878694608745D
:104BC0000020487404A83F1D0390012003E001CF9A
:104BD00003900020C04361070FD5002101E0019937
:104BE000491C029A0191914213DA8142F7DB019A42
:104BF0000399895C0029F2D10BE0002101E00199C1
:104C0000491C01918142FADB019A0399895C0029D0
:104C1000F5D101990098139A401A00902146149BEF
:104C200000F046F901998019461807E003980399A6
:104C30000078491C0391149A139990470198401EDB
:104C40000190401CF2D12146149B139A009800F069
:104C50001FF903E008E04CE03EE03FE086196D1CE0
:104C60002878002800D001E7304615B0F0BD0A20B2
:104C70000021049005916002410F022905D001CF67
:104C8000C2179446032907D009E0FF1DFF08FF0063
:104C900079683868083706E000B2C21794460429DC
:104CA00002D140B2C1178C4600226146944506DA13
:104CB0000A460021404291418C462D2102E0210507
:104CC00004D52B216A461176012103E0E10701D0CA
:104CD0002021F7E7019150E00A200BE0102009E0C5
:104CE0001020049000210420044308200591029024
:104CF00003E008200021059104906002410F022981
:104D000005D001CF00229446032908D008E0FF1DFA
:104D1000FF08FF007968386808378C4603E080B2E6
:104D2000042900D1C0B200210191210725D50399A2
:104D300070292AD0049A1021059B4A401A4309D1B0
:104D40006146014306D030216A46117603995176B7
:104D500002210191049A0821059B4A401A430CD173
:104D60006146014301D1610707D530216A461176BA
:104D7000012101910299491E02910399582909D0F4
:104D800039A103910FA90F9112E040216A461176D3
:104D90000121DEE739A1F4E76146059B049AFBF7A0
:104DA00077FA039B8C469B5C0F9A521E0F921370EE
:104DB00061460143F0D10F9807A9081A20300390EB
:104DC000600704D5012000048443029801E001201B
:104DD00002900399884201DD401A00E0002041184A
:104DE0000290019809180098401A0090E00306D438
:104DF0002146149B139A009800F05AF88619002057
:104E000007E006A9085C149A139990470498761C49
:104E1000401C019904908842F3DBE0030CD5214645
:104E2000149B139A009800F043F8861904E0149A32
:104E3000302013999047761C0299481E0290002951
:104E4000F5DC08E00F980F990078491C0F91149A2F
:104E500013999047761C0399481E03900029F1DCB2
:104E6000F1E600000928010030313233343536379D
:104E700038396162636465660000000030313233A6
:104E80003435363738394142434445460000000046
:104E9000F8B5044600251E461746880404D405E0EC
:104EA00039462020B0476D1C641EF9D52846F8BD50
:104EB000FFB50446002581B01E46C80301D5302742
:104EC00000E02027880404D505E038460399B04760
:104ED0006D1C641EF9D5284605B0F0BD0A68531C48
:104EE0000B601070704738B504462078002802D057
:104EF000012810D108E0627869460A70A0784870ED
:104F0000009800F00DF809E0606800F09DF8606816
:104F100002F06EFC02E000F0D9F900BF00BF38BD1E
:104F200011B585B06846007D01282FD16846407DC7
:104F3000012807D100203349087033A0FDF754FD44
:104F400006B010BD6846407D02281ED101202D49C3
:104F5000087031A0FDF748FDFEF714F9044620075C
:104F6000000F022810D12006000F04280CD02E4874
:104F700000902E4804902E4803902E4802902E4810
:104F800001906846FEF704F9DAE7D9E76846007D44
:104F9000002818D16846407D082814D10020FDF76C
:104FA0002BF801204002FDF727F81F480090204809
:104FB00003901E4804901F4802901F4801906846C5
:104FC000FEF7E6F8BCE76846007D002818D1684681
:104FD000407D042814D11948007800280FD07D2383
:104FE000DB00322201210820FDF73CFA00201349A2
:104FF0000870134A04211348007802F052FA9FE720
:1050000000BF9DE720000020446F6F7220636C6F2B
:105010007365642E0D0A0000446F6F72206F706517
:105020006E65642E0D0A0000596C00006D6A000068
:10503000E96A0000D16B0000156C0000210000201F
:10504000881300001400002010B504462046FFF726
:1050500081FC10BDFFB583B005460F461E4672B6F3
:10506000002D03D162B6022007B0F0BD002430E06D
:10507000E0001A490858002829D10F212046FBF7E3
:1050800073F80120884080B20F2102902046FBF780
:105090006BF8134909784018C0B201900C980128A8
:1050A00001D1104800E010480346059A0299019882
:1050B000984700280BD1E00008490D50E000401847
:1050C0004760002E00D0347062B60020CCE7601C30
:1050D000C4B20F2CCCDB62B60820C5E75C0100200F
:1050E000B800002071740000A374000030B50546BC
:1050F0000B460022002400BFA95C002900D111E06A
:10510000501CC2B20A2A01DD002030BD302907DB65
:10511000392905DC0A204443084630380419EBE7F6
:105120000020F2E700BF002A02DD002B00D01C6047
:105130001046EAE770B5054600BF002D01D100F02A
:10514000C5F800BF082229469001FCF79BFF002408
:105150000AE0285D002800D108E0285DFF2801D181
:10516000002403E0601C84B2202CF2DB00BF204648
:1051700070BD70B5054600BF002D01D100F0A6F846
:1051800000BF082229460020FCF77CFF00240AE02B
:10519000285D002800D108E0285DFF2801D1002407
:1051A00003E0601C84B2202CF2DB00BF204670BDFF
:1051B00070B5054600BF002D01D100F087F800BF93
:1051C000102229469001FCF75DFF00240AE0285DCB
:1051D000002800D108E0285DFF2801D1002403E069
:1051E000601C84B2202CF2DB00BF204670BD30B5BD
:1051F00089B004460025002C03D02046FBF704F8B4
:1052000085B2202D14DC2022002101A801F0EEFF40
:10521000002D04DD2A46214601A801F0D9FF012016
:105220004002FCF7E9FE082201A99001FCF77EFF8D
:1052300009B030BD30B589B004460025002C03D03C
:105240002046FAF7E1FF85B2202D13DC2022002151
:1052500001A801F0CBFF002D04DD2A46214601A85C
:1052600001F0B6FF0020FCF7C7FE082201A90020CC
:10527000FCF75CFF09B030BD30B591B004460025A5
:10528000002C03D02046FAF7BFFF85B2681C4028E7
:1052900012DC4022002101A801F0A8FF2A46214685
:1052A00001A801F095FF01208002FCF7A5FE102265
:1052B00001A99001FCF73AFF11B030BD70B504466A
:1052C0000D46E0B2FDF756FB204670BD10B500BF9D
:1052D00072B600BF06E05920074908601620086032
:1052E00088200860044800680128F4D100BFFFF757
:1052F000C7F800BF10BD00000001005010B501212B
:105300000348FEF7CFFF01210148FEF7AFFF10BDB4
:105310000000044010B532237D221201002106480E
:10532000FEF7CEFE01210448FEF7A4FF012102484A
:10533000FEF7A4FF10BD00000000044070B5044655
:105340000E461C206043144940184589681C85B2EC
:105350001C20604340180089A84200DC002500BFE3
:105360001C2060430C4940188089A84201D1FFF7F6
:10537000ADFF00BF1C2060430749401841681C2056
:105380006043054A801840890E541C206043114632
:105390004018458170BD0000D800002010B50446BB
:1053A0002078FFF793FF00BF00BF10BD03460A46F9
:1053B00007210EE01807000F5054505C092802DC4A
:1053C000505C303001E0505C373050541B09481EAF
:1053D00041B20029EEDA0820704710B5FFF71EF839
:1053E00072B6FEF771FFFCF7F1FD01F0E3FE62B665
:1053F00002F053F8002010BD70B596B004460D467B
:105400001646684600F066FC32462946684600F0BB
:1054100073FC2146684600F003F816B070BD00002A
:10542000F0B585B004460D462068400F6168C9009C
:10543000084306462068C700684607703804010E16
:10544000684641703802010E68468170390EC1709D
:1054500006713004010E684641713002010E684643
:105460008171310EC17120788006800E03900398FF
:10547000382803D238210398081A02E078210398CB
:10548000081A02901F492046029A00F035FC0822B3
:105490006946204600F030FC207A287020890004FC
:1054A000000E6870A0680002000EA870A068000ED0
:1054B000E870207B2871A0890004000E6871E06804
:1054C0000002000EA871E068000EE871207C2872CE
:1054D000208A0004000E687220690002000EA87283
:1054E0002069000EE872207D2873A08A0004000E57
:1054F000687360690002000EA8736069000EE873AB
:1055000005B0F0BD607C0000F3B591B000200090C4
:105510000DE000998A0012995018FCF705FA0099DD
:10552000890001AA50500098401CC0B20090009819
:105530001028EEDB119884681198C56811980669E7
:1055400011984769304678402840784001994018C2
:10555000FE4940180419E001610E08434419284629
:1055600070402040704002994018F9494018C7190E
:105570003803390D08430719204668403840684011
:1055800003994018F349401886197004F10B084339
:10559000C619384660403040604004994018EE49D2
:1055A00040184519A805A90A0843851930467840CE
:1055B0002840784005994018E84940180419E0014E
:1055C000610E0843441928467040204070400699F7
:1055D0004018E3494018C7193803390D0843071923
:1055E000204668403840684007994018DD49401817
:1055F00086197004F10B0843C619384660403040E4
:10560000604008994018D84940184519A805A90ACA
:105610000843851930467840284078400999401859
:10562000D24940180419E001610E08434419284684
:105630007040204070400A994018CD494018C71961
:105640003803390D08430719204668403840684040
:105650000B994018C749401886197004F10B08438C
:10566000C61938466040304060400C994018C24925
:1056700040184519A805A90A0843851930467840FD
:10568000284078400D994018BC4940180419E001A1
:10569000610E0843441928467040204070400E991E
:1056A0004018B7494018C7193803390D084307197E
:1056B00020466840384068400F994018B14940186A
:1056C00086197004F10B0843C61938466040304013
:1056D000604010994018AC4940184519A805A90A1E
:1056E0000843851928467040384070400299401898
:1056F000A649401804196001E10E084344192046E8
:1057000068403040684007994018A1494018C719BF
:105710007802F90D08430719384660402840604078
:105720000C9940189B4940188619B003B10C0843E6
:10573000C619304678402040784001994018964973
:10574000401845192805290B08438519284670403B
:10575000384070400699401890494018041960017B
:10576000E10E0843441920466840304068400B99D8
:1057700040188B494018C7197802F90D08430719DA
:1057800038466040284060401099401885494018CC
:105790008619B003B10C0843C61930467840204042
:1057A0007840059940188049401845192805290B6B
:1057B0000843851928467040384070400A994018BF
:1057C0007A49401804196001E10E08434419204643
:1057D0006840304068400F99401875494018C71913
:1057E0007802F90D084307193846604028406040A8
:1057F000049940186F4940188619B003B10C08434A
:10580000C6193046784020407840099940186A49C6
:10581000401845192805290B08438519284670406A
:10582000384070400E9940186449401804196001CE
:10583000E10E08434419204668403040684003990F
:1058400040185F494018C7197802F90D0843071935
:10585000384660402840604008994018594940182F
:105860008619B003B10C0843C61930467840204071
:1058700078400D9940185449401845192805290BBE
:1058800008438519284670407840069940184F49CA
:10589000401804192001210F08434419204668408C
:1058A0007040099940184A494018C719F802790D03
:1058B000084307193846604068400C99401845492C
:1058C000401886193004310C0843C6193046784018
:1058D00060400F994018404940184519E805690A89
:1058E00008438519284670407840029940183B4982
:1058F000401804192001210F08434419204668402C
:1059000070400599401836494018C719F802790DBA
:1059100008430719384660406840089940183149E3
:10592000401886193004310C0843C61930467840B7
:1059300060400B9940182C4940184519E805690A40
:10594000084385192846704078404FE078A46AD70C
:1059500056B7C7E8DB702024EECEBDC1AF0F7CF593
:105960002AC68747134630A8019546FDD898806916
:10597000AFF7448BB15BFFFFBED75C892211906B00
:10598000937198FD8E4379A62108B44962251EF6CD
:1059900040B340C0515A5E26AAC7B6E95D102FD663
:1059A0005314440281E6A1D8C8FBD3E7E6CDE12138
:1059B000D60737C3870DD5F4ED145A4505E9E3A999
:1059C000F8A3EFFCD9026F678A4C2A8D4239FAFF9F
:1059D00081F6718722619D6D0C38E5FD44EABEA415
:1059E000A9CFDE4B604BBBF670BCBFBE0E99401812
:1059F000A049401804192001210F084344192046EA
:105A000068407040019940189B494018C719F80236
:105A1000790D0843071938466040684004994018DA
:105A20009649401886193004310C0843C61930468F
:105A30007840604007994018914940184519E80599
:105A4000690A084385192846704078400A99401829
:105A50008C49401804192001210F0843441920469D
:105A6000684070400D99401887494018C719F802DE
:105A7000790D08430719384660406840109940186E
:105A80008249401886193004310C0843C619304643
:105A900078406040039940187D4940184519E80551
:105AA000690A084385192846F9430843704001995B
:105AB0004018784940180419A001A10E0843441960
:105AC0002046F1430843684008994018724940183D
:105AD000C719B802B90D084307193846E943084306
