:020000040000FA
:10000000D80F0020F100000011010000D500000011
:1000100000000000000000000000000000000000E0
:1000200000000000000000000000000015010000BA
:10003000000000000000000017010000190100008E
:100040001B0100001B0100001B0100001B01000040
:100050001B0100001B0100001B0100001B01000030
:10006000894700001B0100001B0100001B0100006C
:10007000AD470000B74700001B0100001B01000056
:100080001B0100001B0100001B0100001B01000000
:100090001B0100001B0100001B0100001B010000F0
:1000A0001B0100001B0100001B0100001B010000E0
:1000B0001B0100001B0100001B0100001B010000D0
:1000C0000348854600F014F9004800473B550000FE
:1000D000D80F002004207146084202D0EFF30980B7
:1000E00001E0EFF308807146004A1047A92F000095
:1000F0000A480B4901600B4901600B4901600B4A3A
:100100000B491160002101600A4880470A480047F6
:10011000FEE7FEE7FEE7FEE7FEE7FEE70001005030
:100120005900000016000000880000002400005064
:10013000A55A000089460000C100000030B50B46FA
:10014000014600202022012409E00D46D5409D42B1
:1001500005D31D469540491B254695404019154637
:10016000521E002DF1DC30BD70B50024254600285C
:1001700001DA01244042002901DA01254942FFF752
:10018000DDFFAC4200D04042002C00D0494270BD9F
:1001900010B5431A934209D28318881803E0401E11
:1001A00001785B1E1970521EF9D210BD03460B4335
:1001B0009B0703D009E008C9121F08C0042AFAD21D
:1001C00003E00B780370401C491C521EF9D210BD8D
:1001D000D2B201E00270401C491EFBD270470022DF
:1001E000F6E710B513460A4604461946FFF7F0FF36
:1001F000204610BDCAB2401E4178401C8A4202D03F
:100200000029F9D100207047421C0178401C0029C8
:10021000FBD1801A704710B5002200E0521C835CAD
:100220008C5CA34201D1002BF8D1D8B2E1B2401AC4
:1002300010BD03460A780270401C491C002AF9D1FF
:100240001846704770B5002800D11068002514E0EA
:100250000B4602E0A64203D05B1C1C78002CF9D1AF
:10026000E3B22B4307D0002C06D0002D04D0002190
:100270000170401C04E00546401C0678002EE7D1C2
:100280001060284670BD014ADCE70000C400002071
:10029000F0B51FB40646002082B005464024019107
:1002A00000901BE0019922460F46304600F042F8CC
:1002B000049A059B801A994110D31046194622468C
:1002C00000F028F8361A8F410197224601200021BC
:1002D000009F00F01FF838184D4100902046641E22
:1002E0000028DFDC019B00982946324607B0F0BDAC
:1002F000064C0125064E05E0E36807CC2B430C3C79
:1003000098471034B442F7D3FFF7DEFE407E00007A
:10031000607E000010B5202A04DB0146203A91409F
:10032000002010BD914020239C1A0346E34019434E
:10033000904010BD10B5202A04DB0846203AD0407A
:10034000002110BD0B46D340D0402024A21A91407A
:100350000843194610BD000010B504460DA1204603
:10036000FFF759FF002812D10C49086000BF0C4864
:1003700000880C4908400A4908800846008808801F
:1003800000BF0846008802F0A5FF204610BD0020EF
:10039000FCE700004F4B0D0A000000004400002065
:1003A0004A000020FFF0000010B504460CA12046D2
:1003B000FFF731FF002801D1204610BD09A12046DA
:1003C000FFF729FF002808D10848094908600948B3
:1003D000008802F02FFF2046EFE70020EDE7000045
:1003E0000D0A00004F4B0D0A00000000BD0F000079
:1003F000440000204800002010B5044640A12046DB
:10040000FFF709FF002801D1204610BD3DA120467D
:10041000FFF701FF002810D100BF3D4800883D498B
:1004200008403B49088008460088012149020843EA
:100430003749088000BF2046E7E737A12046FFF78D
:10044000EAFE002809D1364908603649086030487C
:10045000008802F03FFF2046D7E733A12046FFF790
:10046000DAFE002804D130A02E4908602046CCE7EF
:100470002FA12046FFF7CFFE002804D12CA0294948
:1004800008602046C1E72DA12046FFF7C4FE0028E2
:1004900019D100BF1E4800881E4908401C49088029
:1004A00008460088088000BF1E480068002808D061
:1004B00000201B4908601B4908601548008802F0AD
:1004C00009FF2046A1E71FA12046FFF7A4FE002850
:1004D00014D1134908601349086000BF0C48008814
:1004E0000C4908400A49088008460088088000BF77
:1004F0000846008802F0EEFE204686E7002084E7EA
:100500000D0A0000434F4E4E4543540D0A000000B3
:100510004A000020FFF000004F4B0D0A00000000D1
:10052000440000204C0000206E6F2069700D0A000E
:10053000444E53204661696C0D0A00004552524FEB
:10054000520D0A00434C4F5345440D0A0000000071
:1005500010B5044641A12046FFF75DFE002801D1F9
:10056000204610BD3EA12046FFF755FE00280FD1C2
:1005700000BF40480088404908403E49088008467E
:100580000088202108433B49088000BF2046E8E757
:100590003AA12046FFF73FFE00280FD100BF3548A3
:1005A00000883549084033490880084600884021C2
:1005B00008433049088000BF2046D2E733A12046D7
:1005C000FFF729FE002807D1324908602948008832
:1005D00002F080FE2046C4E72FA12046FFF71BFE55
:1005E00000280CD100BF2348008823490840214936
:1005F000088008460088088000BF2046B1E72BA18C
:10060000204607F085F800280CD000BF1948008864
:10061000194908401749088008460088088000BF2B
:1006200020469EE723A12046FFF7F5FD002812D1C2
:100630001849086000BF0F4800880F4908400D495D
:10064000088008460088088000BF0846008802F03D
:1006500041FE204685E7002083E700000D0A0000E8
:100660005749464920434F4E4E45435445440D0A91
:10067000000000004A0000200FFF000057494649D3
:1006800020474F542049500D0A0000004F4B0D0ADF
:1006900000000000440000205749464920444953C7
:1006A000434F4E4E4543540D0A0000002B43574A1A
:1006B00041503A004641494C0D0A000010B504462D
:1006C00012A12046FFF7A7FD002801D1204610BD4A
:1006D0000FA12046FFF79FFD002815D10E490860A5
:1006E00000BF0E4800880E4908400C4908800846A3
:1006F0000088022108430949088000BF0846008895
:1007000002F0E8FD2046E2E70020E0E70D0A0000E5
:100710004F4B0D0A00000000440000204A0000205A
:10072000F0FF000010B504460DA12046FFF773FD51
:10073000002801D1204610BD0AA12046FFF76BFD1D
:10074000002801D12046F6E709A12046FFF763FD06
:10075000002803D1084908602046ECE70020EAE7BA
:100760000D0A000041542B43575141500D0A00001F
:100770004F4B0D0A000000004400002010B5044655
:1007800016A12046FFF747FD002801D1204610BDE5
:1007900013A12046FFF73FFD00281CD11248134942
:1007A000086000BF124800881249084010490880BC
:1007B00008460088502108430D49088000BF0846BC
:1007C000008802F087FD0C4A08210C48007806F0EA
:1007D00024FF2046DBE70020D9E700000D0A0000D7
:1007E0004F4B0D0A00000000250D000044000020C2
:1007F0004A0000200FFF000060EA00002C000020EB
:1008000010B5044612A12046FFF705FD002801D1CE
:10081000204610BD0FA12046FFF7FDFC002815D192
:100820000E49086000BF0E4800880E4908400C4978
:10083000088008460088902108430949088000BFC5
:100840000846008802F046FD2046E2E70020E0E787
:100850000D0A00004F4B0D0A00000000440000206C
:100860004A0000200FFF0000F8B50746DFA1384618
:10087000FFF7D1FC002801D13846F8BDDCA138468D
:1008800006F046FF0646002E43D0082006F074FD11
:10089000054600BF002D01D104F0C8FD00BF0420B3
:1008A00028703A213046FFF7A5FC0446002020704E
:1008B000641C00BF6946304604F0C8FC002801D122
:1008C00004F0B4FD00BF009868802078641C00909C
:1008D0000098000200902078641C00990843009062
:1008E0000098000200902078641C00990843009052
:1008F0000098000200902078641C00990843009042
:10090000009868602946BC48007806F00BFE38461F
:10091000B3E7BAA13846FFF77EFC002801D138467C
:10092000ABE7B7A13846FFF776FC002813D100BF2C
:10093000B5480088B5490840B34908800846008892
:1009400001210843B049088000BF0846008802F032
:10095000C1FC384691E7AEA13846FFF75CFC0028A1
:1009600014D100BFA8480088A849E1390840A64929
:1009700008800846008820210843A349088000BF5A
:100980000846008802F0A6FC384676E7A5A138465E
:10099000FFF741FC002814D100BF9B4800889B4909
:1009A000E1390840984908800846008840210843FA
:1009B0009549088000BF0846008802F08BFC384645
:1009C0005BE79CA13846FFF726FC002811D100BF49
:1009D0008D4800888D49E13908408B4908800846D8
:1009E0000088088000BF0846008802F073FC384683
:1009F00043E795A13846FFF70EFC002810D100BF51
:100A000081480088934908407F490880084600884B
:100A1000088000BF0846008802F05CFC38462CE7DE
:100A20008DA13846FFF7F7FB002801D1384624E7AF
:100A30008C480068002870D18BA1384606F068FE0B
:100A4000002804D08C4887490860384615E78BA1F8
:100A5000384606F05DFE002817D08C4881490860B2
:100A600000BF694800886949E13908406649088043
:100A700008460088302108436349088000BF0846C3
:100A8000008802F027FC3846F7E681A1384606F0D8
:100A90003FFE002804D08348724908603846ECE6DF
:100AA00081A1384606F034FE002817D082486D49EF
:100AB000086000BF544800886649084052490880D1
:100AC00008460088FF21013108434F49088000BFD4
:100AD0000846008802F0FEFB3846CEE677A138468D
:100AE00006F016FE0646002E18D077485D490860CD
:100AF0000D213046FFF77EFB0021017000BF6946E3
:100B0000304604F0A3FB002801D104F08FFC00BFA5
:100B10006E49009808803846AFE664E06CA138461C
:100B200006F0F6FD002817D06E484E49086000BF59
:100B3000354800883549E13908403349088008467E
:100B40000088602108433049088000BF08460088BB
:100B500002F0C0FB384690E663A13846FFF75BFB26
:100B6000002817D164483F49086000BF2648008824
:100B700038490840244908800846008803210902B2
:100B800008432149088000BF0846008802F0A2FB04
:100B9000384672E659A13846FFF73DFB002804D1DC
:100BA0005B4830490860384667E65AA13846FFF787
:100BB00032FB002817D15A482A49086000BF124862
:100BC00000881249E13908400F490880084600882A
:100BD000102108430C49088000BF0846008802F035
:100BE00079FB384649E6002047E600000D0A000080
:100BF0002B4950442C0000002C000020726C000097
:100C000072656164790D0A004A000020F0FF00005F
:100C10005749464920434F4E4E45435445440D0ADB
:100C2000000000005749464920474F542049500DC5
:100C30000A0000005749464920444953434F4E4E4D
:100C40004543540D0A000000434C4F5345440D0AE0
:100C500000000000FFF000006275737920702E2EF6
:100C60002E0D0A004400002041542B43574D4F44A1
:100C7000455F4355523D0000BD06000041542B43E3
:100C8000574A41505F4355523D0000005105000056
:100C900041542B43575354415254534D4152543DA8
:100CA000000000007D07000041542B43495053547D
:100CB0004152543D00000000F903000041542B4311
:100CC000495053454E443D00A90300004800002010
:100CD000736D617274636F6E666967207479706595
:100CE0003A000000250D000041542B434950434C6D
:100CF0004F53450D0A0000005903000041542B4397
:100D00005753544F50534D4152540D0A00000000A8
:100D10000108000041542B43575141500D0A000077
:100D20002507000070B5054672A1284606F0F0FCC4
:100D300000280CD008217448007806F080FC734A23
:100D400008217148007806F068FC284670BD70A143
:100D50002846FFF760FA00280CD108216A4800787D
:100D600006F06DFC694A08216748007806F055FCDA
:100D70002846EBE76CA1284606F0CAFC0446002C86
:100D800015D00D212046FFF735FA002101702046CD
:100D900002F024FA08215C48007806F050FC5B4A17
:100DA00008215948007806F038FC2846CEE760A1B3
:100DB000284606F0ADFC0446002C15D00D21204637
:100DC000FFF718FA00210170204602F0DBF9082134
:100DD0004D48007806F033FC4C4A08214A48007818
:100DE00006F01BFC2846B1E754A12846FFF713FA8A
:100DF00000280CD108214448007806F020FC434A22
:100E000008214148007806F008FC28469EE750A1DA
:100E10002846FFF700FA00280CD108213A4800784C
:100E200006F00DFC394A08213748007806F0F5FB3A
:100E300028468BE74AA12846FFF7EDF900281AD18A
:100E40004F49086000BF4F4800884F4908404D494E
:100E5000088008460088702108434A49088000BF7E
:100E60000846008802F036FA08212748007806F084
:100E7000E6FB28466AE745A1284606F049FC00281B
:100E80000CD008212048007806F0D9FB1F4A082121
:100E90001D48007806F0C1FB284657E73DA12846CB
:100EA000FFF7B9F900281AD13549086000BF354865
:100EB0000088354908403349088008460088802169
:100EC00008433049088000BF0846008802F002FA53
:100ED00008210D48007806F0B2FB284636E732A11B
:100EE0002846FFF798F9002802D1254908602DE728
:100EF00000202BE7736D617274636F6E6669672003
:100F0000747970653A0000002C00002060EA00004F
:100F1000536D617274206765742077696669206912
:100F20006E666F0D0A000000737369643A0000007A
:100F300070617373776F72643A00000057494649D5
:100F400020434F4E4E45435445440D0A00000000D7
:100F50005749464920474F542049500D0A00000088
:100F6000736D617274636F6E66696720636F6E6E16
:100F7000656374656420776966690D0A0000000086
:100F8000440000204A0000200FFF00004448435066
:100F9000000000005749464920444953434F4E4EF4
:100FA0004543540D0A00000041542B435753544FFE
:100FB00050534D4152540D0A0000000010B5044634
:100FC00023A12046FFF727F9002801D1204610BDB4
:100FD00020A12046FFF71FF9002801D12046F6E79F
:100FE0001EA1204606F094FB002801D02046EEE723
:100FF0001CA12046FFF70FF9002805D11C49086005
:1010000002F030F92046E2E71AA12046FFF703F983
:1010100000280CD100BF1A4800881A490840184916
:10102000088008460088088000BF2046CFE716A148
:101030002046FFF7F0F8002807D10D490860104856
:10104000008802F047F92046C1E70020BFE7000012
:101050000D0A00003E200D0A000000005265637674
:101060002000000053454E44204F4B0D0A00000065
:1010700044000020434C4F5345440D0A000000003B
:101080004A000020FFF0000053454E4420464149ED
:101090004C0D0A0070B50546214805700020214915
:1010A00008602149086001F0F5F9410801208843F2
:1010B0001E49087001201E49087000201D49087053
:1010C0001A480078002803D01BA001F0FBFC02E0C6
:1010D0001DA001F0F7FC20A001F0F4FC00240CE0BE
:1010E000204600F077FF064601F0DAFC042C02DA15
:1010F0002D2001F0ADFC601CC4B2052CF0DB11A06A
:1011000001F0E0FC7D23DB0032220021042001F00D
:10111000DBF97D22D2000121284606F07EFA70BD5F
:1011200014000020180000201C00002020000020D7
:101130002100002022000020446F6F72206F706534
:101140006E65642E0D0A0000446F6F7220636C6F31
:101150007365642E0D0A00005B44455649445D3AB0
:1011600000000000F3B593B00C460120C0032040FE
:10117000002816D0139806F0A1F9074609E0384672
:1011800003F04FFF384606F00EF9139806F096F973
:101190000746002FF3D120460121C903484015B06E
:1011A000F0BD10202040002806D088A003F074FC79
:1011B000204610214840F2E704202040002806D0B5
:1011C000012084490870204604214840E7E70220B6
:1011D0002040002864D002F04FF8422857D1402028
:1011E00006F076FC064600BF002E01D104F01EF981
:1011F00000BF4AE00020129011901090304604F099
:1012000087F80546002D03D173A004F0E5F83CE013
:101210001296129E019610AA78A11298FFF712F862
:1012200011AA77A11098FFF70DF80FA9109804F0F4
:101230000DF8002803D168A004F0CEF825E0694637
:101240000F9808811198401E11902F201199087055
:10125000119800906B4803906B4805906B48049080
:10126000684603F067FB304606F07EFBFF23F5334C
:1012700032220021012001F027F9FF23F533322229
:101280000021022001F020F900E0B3E704E0604A09
:101290000221139806F0C1F92046022148407EE75A
:1012A000E007C00F002864D001F0E6FF022803D059
:1012B00001F0E2FF922852D1202006F009FC0B90A9
:1012C00000BF0B98002801D104F0B0F800BF0B98C4
:1012D00003F0FFFF0546002D30D0202006F0F8FB7C
:1012E0000C9000BF0C98002801D104F09FF800BFBB
:1012F0000C9803F0CFFF054600200C99485545484F
:101300000E9045480D9000BF0BA801F0FBFF002890
:1013100001D004F08BF800BF0C9806F025FB0B9869
:1013200006F022FBFF23F53332220021012001F0D9
:10133000CBF80021022001F0C9F916E00B9806F065
:1013400013FB364806903648099036480A903648CE
:1013500008903648079006A801F094FF05E07D222A
:10136000D2000121139806F058F920460121484087
:1013700015E708202040002808D02DA17D20C000BE
:1013800003F07AFA20460821484008E72020204050
:10139000002809D001220021FF202D3000F0F2FCAE
:1013A000204620214840FAE64020204000280AD06C
:1013B0000F22AF218900FF202D3000F0E3FC2046F2
:1013C00040214840EBE60020E9E600004068656106
:1013D00072740000210000207777772E66617464B4
:1013E0007261676F6E686B2E636F6D3A383038309C
:1013F0002F6D7948616E646C657200003A000000E0
:101400002F00000079650000ED640000DD6500003C
:10141000B80B0000816B0000B56B0000CD6D0000C3
:101420005D6C0000E16B0000456D0000896D0000FF
:101430004E6F20636F6D6D756E69636174696F6E59
:1014400020666F72203630207365632E0000000026
:10145000810F8900064A89184968C306DB0E0122FC
:101460009A401143820F9200014BD218516070478D
:1014700000020050F3B589B00C4601200004534926
:101480000862099800280ED1084600680121084327
:101490004E490860012000F029FA002006904C48CF
:1014A000089002250EE04948006804210843474996
:1014B0000860102000F01AFA0120C0040690454888
:1014C000089004254448844204D84010844201D93D
:1014D000002712E04148844205D84010844202D9D6
:1014E0000127640009E03E48844205D84010844248
:1014F00002D30327A40000E057E00020C04303907C
:1015000000200190029034E029460898FEF716FE6C
:1015100005903449059888422AD93349059888426C
:1015200026D2022007901EE0059E07994E432B48C5
:10153000864215D34000864212D8A64201D9301BFC
:1015400000E0A01B049003990498884208D20498F4
:1015500003900195079802900398002800D106E0B7
:101560000798401C0790214907988842DCD900BFA2
:101570006D1C212DC8D9B803069908430199891E0D
:10158000490208430299891E084310490862042051
:1015900000F0ACF9781C019A504301460898FEF718
:1015A000CDFD029948430BB0F0BD0998002803D146
:1015B0000F480649086202E00E4804490862042008
:1015C00000F094F900F060F8EDE700000002005030
:1015D0000080BB000080510100C2EB0B00E1F5056B
:1015E00080F0FA02006A1800C0E1E4000102000085
:1015F0002EC200006FD60000024909680143014A6B
:101600001160704700020050FEB5002002901AA041
:10161000006800901948046A00132040002801D097
:101620000020FEBD0120C0042040002801D0144D40
:1016300000E0144D012040042040002801D028463D
:10164000EFE7032080032040800B69460A5C01928B
:10165000E005C00D861C1F2040022040400A871C68
:10166000019A7A431146AA0872431046FEF766FDB6
:10167000800002900298D4E70102020400020050A8
:10168000008051010080BB00FEB5002002901AA02E
:10169000006800901948046A00132040002801D017
:1016A0000020FEBD0120C0042040002801D0144DC0
:1016B00000E0144D012040042040002801D02846BD
:1016C000EFE7032080032040800B69460A5C01920B
:1016D000E005C00D861C1F2040022040400A871CE8
:1016E000019A7A431146AA0872431046FEF726FD76
:1016F000800002900298D4E7010202040002005028
:10170000008051010080BB00FEB5002002901AA0AD
:10171000006800901948046A00132040002801D096
:101720000020FEBD0120C0042040002801D0144D3F
:1017300000E0144D012040042040002801D028463C
:10174000EFE7032080032040800B69460A5C01928A
:10175000E005C00D861C1F2040022040400A871C67
:10176000019A7A431146AA0872431046FEF7E6FC36
:10177000800002900298D4E70102020400020050A7
:10178000008051010080BB0070B504462348C0684A
:101790001021084005462248844201D9044603E04E
:1017A0002048844200D204461C48006804210843B3
:1017B0001A490860102000F099F8184800690721BC
:1017C00008431649086108468069000900018861DC
:1017D00008460068C007C00F002805D02146002039
:1017E000FFF748FE04460AE021460120C004FFF747
:1017F00041FE04460948C068102108400546002102
:10180000022000F011F8002D05D1044800680421E1
:10181000884302490860204670BD00000002005065
:1018200080F0FA0240787D0170B504460D461548F7
:10183000C068102108400646124800680843114954
:101840000860102000F052F80E480069C008C0007F
:10185000C01D0C4908610846806900090001284341
:10186000886108460069C008C0002043086102F092
:10187000D9FE002E05D10348006810218843014994
:10188000086070BD00020050F0B50B460021002436
:1018900000250601760F002E0FD08600B60FB60089
:1018A000114FF41921680601770FC601F60EB740F3
:1018B0000E46BE431E43314621608603360E002E7F
:1018C00010D00603B60FB600074F0837F519296880
:1018D0008603360EF6438705FF0EBE400E401643C4
:1018E00031462960F0BD0000100200500146074A51
:1018F00005E01046521E002801DC00207047044815
:10190000C06808408842F4D10120F7E7804F1200F8
:101910000002005003480068400840000149086088
:101920007047000000C000500348006801210843D0
:10193000014908607047000000C0005070B50346C0
:1019400000200FE0012484400C40002C09D01C68CA
:1019500046000325B540AC4346001546B5402C4330
:101960001C60401C0828EDD370BD014608784A78F9
:10197000120210438A7812041043CA7812061043E8
:101980007047000000200149086070478042005005
:101990000120014908607047804200500020014941
:1019A000C86170470042005010B5FFF7EBFF002000
:1019B000084908600849086008490860012001F0EA
:1019C00077F9044600BF002C01D003F02FFD00BFC3
:1019D00010BD00008000002084000020880000204E
:1019E0007CB500200090002535E19F480088002844
:1019F0002BDD9E480068002807D0684600789C4987
:101A000009688988994A1268505499480068808802
:101A1000401C9749096888809548006880889249E9
:101A20000988884210D191480068002806D000211A
:101A30008F48006880888D4A1268115400208B49B5
:101A40000860894908800125E6E089480068002887
:101A500013D1082006F03CF88549086000BF08460D
:101A60000068002801D103F0E1FC00BF002080499C
:101A7000096808607E49096888807D480068808818
:101A80007F282BDA7A4800680068002805D180207A
:101A900006F01EF876490968086000BF74480068BF
:101AA0000068002801D103F0C1FC00BF684601783E
:101AB0006F48006882886E4800688088401C6C4BC4
:101AC0001B6898806A480068006881540021684853
:101AD00000680068664A12689288815468460078F7
:101AE0003A287DD16248006880880A2878DC6049FD
:101AF000096808685FA105F00BFE002870D002217C
:101B00005E48007805F058FD0021594800680268D9
:101B1000574800688088401E80B2554B1B689880EB
:101B2000115400BF524909680968481D01A903F012
:101B30008DFB002801D103F079FC00BF3A214C480D
:101B4000006882884A4800688088401C484B1B68AF
:101B5000988047480068006881544349019808808C
:101B6000084600884649884206DC3F480088401CF9
:101B700005F0AEFF3D4908603C480068000E3C4956
:101B800009688A883A4909688988491C384B1B6862
:101B90009980374909680968885434480068000208
:101BA000010E334800688288314800688088401CF4
:101BB0002F4B1B6898802E480068006881542B4882
:101BC00000880004010E2A480068828828480068BE
:101BD0008088401C264B1B6898802548006800E0E0
:101BE00015E0006881542148027821480068818806
:101BF0001F4800688088401C1D4B1B6898801C484B
:101C000000680068425400201949096888806846C5
:101C100000780A2800D10125012D1CD1082005F0EB
:101C2000ABFB044600BF002C01D103F0FFFB00BF5B
:101C3000002020700E4800680068606021460F4850
:101C4000007805F06FFC0A48006805F08DFE002062
:101C50000749086000256946012000F051FF00286F
:101C600000D1C2E67CBD00008C0000208400002072
:101C7000800000202B4950442C0000002C00002044
:101C8000B405000070B500241A48006800282FD061
:101C90001AE0002C03D1012001F0DCF80446002CEE
:101CA00011DD00BF1348006805F0AFFA054629466C
:101CB000012001F085F8002801D003F0B7FB00BF38
:101CC000601E84B200E005E00A48006805F0CAFA28
:101CD0000028DED100BF0748006805F0C3FA0028DD
:101CE00006D10448006805F07DFA0020014908602B
:101CF00070BD00008800002010B5044603E0207885
:101D0000641C00F017F820780028F8D110BDFEB54B
:101D100005466946284605F013FD0646002405E001
:101D20006946085D00F006F8601CC4B2B442F7DBF7
:101D3000FEBD000010B5044610480068002803D11D
:101D400005F042FA0D49086000BF0C480068002801
:101D500001D103F06BFB00BF00BF214607480068BC
:101D600005F083FA002801D103F060FB00BF0121D8
:101D7000C9020348007805F01FFC10BD8800002050
:101D80006800002070B504460D46164622480068DB
:101D9000002806D02048006805F0E6FD00201E4916
:101DA000086003F05BFB40211C48007805F0F4F963
:101DB00040211A48007805F042FC002C2ADD002E54
:101DC00026DD082005F084FE1349086000BF0846A0
:101DD0000068002801D103F029FB00BF0822002180
:101DE0000D48006805F0BEFA0B48006804800A48F8
:101DF00000684580002D01D1012000E030460649F1
:101E00000968087140210548007805F0D5FB01E01C
:101E100003F030FB70BD000090000020680000203F
:101E200000200149086070479000002010B500BFF5
:101E30002A480068002801D103F0F8FA00BF00BF6B
:101E4000264800680088002801DC03F0EFFA00BF94
:101E500000BF224800680079002801DC03F0E6FAA0
:101E600000BF1E48006840791C490968897988428A
:101E700011DC03F0FFFA194800684079401C17494B
:101E800009684871154800680288402114480078A4
:101E900005F0C3FB20E003F0E1FA10480068807908
:101EA000401C0E49096888710C48006840790B494C
:101EB00009680979884207DB0848006805F054FD85
:101EC00000200649086007E0044800684288402175
:101ED0000348007805F0A1FB10BD00009000002031
:101EE0006800002010B500BF06E0592034490860A2
:101EF0001620086088200860314800680128F4D165
:101F000000BFFFF711FD002418E000BF0B202D4992
:101F1000C8600020486001200861BFF36F8F00BFD8
:101F200000BF28480069C007C00F0028F9D1254824
:101F30008068A100244A5050601CC4B2012CE4DB2C
:101F4000002418E000BF0C201E49C860042048602F
:101F500001200861BFF36F8F00BF00BF19480069FF
:101F6000C007C00F0028F9D116488068A100174AA1
:101F70005050601CC4B2012CE4DB002416E0204663
:101F80000421104AD1608100516001211161BFF329
:101F90006F8F00BF00BF0B4909690029FBD10949B8
:101FA0008968A0000A4A1150601CC4B2032CE6DB09
:101FB000FFF7B0FC00BF00200149086000BF10BD62
:101FC0000001005000C00050780000207C0000207C
:101FD000500100200146012903DA88000A4A1058FE
:101FE0007047481EC1B2012903DA8800074A105819
:101FF000F6E7481EC1B2032903DA8800044A1058E4
:10200000EEE70020ECE70000780000207C000020D4
:102010005001002010B500F0B5FAFFF763FF00F0A3
:1020200039FCFFF7C1FC00F00BFA0C21002000F096
:1020300001F90321012000F0FDF8FFF7F1FE10BDCA
:1020400010B5044600BF204840690121090340182B
:102050001D494969401AA04201D803F0E7F900BFC1
:1020600000BFE005C00D002801D003F0DFF900BF7C
:1020700002F0C8FAFFF758FC1349496908192221F0
:10208000114AD1601146486001211161BFF36F8F81
:1020900000BF00BF0C4909690029FBD10A49096842
:1020A00040221140002905D0074909681143064A1A
:1020B000116000E000BFFFF72DFC00BF00200349C6
:1020C000086000BF10BD000000C0005000010050BB
:1020D000F8B505460E46174600BF2648406901215F
:1020E0000903401823494969401AA84201D803F05E
:1020F0009DF900BF00BFA807800F002801D003F0A2
:1021000095F900BF00BF002E01D103F08FF900BF89
:1021100000BF002F01DC03F089F900BF02F072FA62
:10212000FFF702FC00241AE0124949694919A2008C
:10213000881800210F4AD1601146486001211161C1
:10214000BFF36F8F00BF00BF0A4909690029FBD1A7
:1021500008498968A0003150601C80B20446BC4226
:10216000E2DBFFF7D7FB00BF00200349086000BF98
:10217000F8BD000000C0005000010050F8B5054651
:102180000F46164600BF294840690121090340183F
:1021900026494969401AA84201D803F047F900BF0F
:1021A00000BFA807800F002801D003F03FF900BF4F
:1021B00000BF002F01D103F039F900BF00BF002E8E
:1021C00001DC03F033F900BF00BF802E01D903F01A
:1021D0002DF900BF02F016FAFFF7A6FB00241AE063
:1021E000124A52695219A300D118A200B8582122EC
:1021F0000E4BDA601A465160906001221A61BFF3FB
:102200006F8F00BF00BF094A1269002AFBD100BFCF
:10221000601C80B20446B442E2DBFFF77BFB00BFE8
:1022200000200349086000BFF8BD000000C0005056
:102230000001005070B504460D4600BF022C01DBC2
:1022400003F0F4F800BFA00001494018C57070BD4C
:102250004401002010B500F01DF9044600F002F81A
:1022600010BD0000F8B506467148007A7040074678
:102270000024D6E00120A040384000285BD0012097
:10228000A0403040002857D000BFA0006849431844
:102290007D2212012146674804F03CFF002801D04E
:1022A00003F0C4F800BFA000614940188078012104
:1022B0000843A1005E4A89188870A00011464018A2
:1022C000C07810210840002819D000BFA000114696
:1022D0004018431C7D2252012146574804F01AFF42
:1022E000002801D003F0A2F800BFA0005049401818
:1022F000807802210843A1004D4A89188870A00007
:102300004B494018C078C007C00F0028B6D0032042
:1023100005F032F8054600BF002D01D103F086F824
:1023200000BF002028700121A9706C702946434825
:10233000007805F0F7F872E0A0003D494018807879
:10234000C007C00F002830D000BFA100384A505C41
:1023500004F0EEFE002801D003F068F800BFA000F2
:1023600033494018807840084000A100304A89185D
:102370008870A00011464018C07804210840002849
:1023800013D0032004F0F8FF054600BF002D01D153
:1023900003F04CF800BF002028700421A9706C7075
:1023A00029462648007805F0BDF8A00020494018CD
:1023B000807802210840002815D000BFA1001C4AE7
:1023C0008918487804F0B4FE002801D003F02EF8F4
:1023D00000BFA00016494018807802218843A10060
:1023E000134A89188870A00011494018C07802214A
:1023F0000840002813D0032004F0BEFF054600BFAC
:10240000002D01D103F012F800BF00202870022136
:10241000A9706C7029460948007805F083F8601CA3
:10242000C4B2022C00DA25E701480672F8BD0000AC
:1024300044010020DD5E0000395F00001400002030
:1024400010B509220021024804F08CFF10BD0000E5
:102450004401002010B500BF32221021044800784A
:1024600005F0DBF8002801D002F0E0FF00BF10BD4E
:102470006800002010B500F00DF80446044800780C
:10248000844203D0FFF7E6FF0148047010BD00004E
:102490007700002000200B494969002901D1012162
:1024A00000E00021084307494039896A002901D129
:1024B000012100E000214900084300BF00BF00BF28
:1024C0007047000080420050FFB581B005461746B6
:1024D000002D48D0002F46D00498002843D0642F08
:1024E0003CDA0126AD06AD0E224C2AE028463040EB
:1024F000002823D02078022808DA30461E490978BF
:1025000008401E49097808431C49087000202070C3
:102510000498A080A770029860700298002803D1E8
:10252000207804210843207004F030FEA060207859
:102530000221084320702846704005467006060EAA
:102540000C34002DD2D120210D48007805F077F809
:1025500020210B48007805F02FF808E001212846DB
:1025600000F0B4F803E00021284600F0AFF805B011
:10257000F0BD000010010020740000207600002053
:102580006800002010B500BF012208211748FFF79E
:10259000D5F9012220211548FFF7D0F901220821A1
:1025A0001248C030FFF7CAF9012210210F48C0308D
:1025B000FFF7C4F9012202210D48FFF7BFF90122FC
:1025C00040210B48FFF7BAF9012280210848FFF7A4
:1025D000B5F900BF00213F2000F078F8012110205C
:1025E00000F074F800210348017410BD0040005051
:1025F0000041005030010020C207D20F002A08D04D
:10260000012903D101222F4BDA6002E000222D4B79
:10261000DA6002220240002A0AD0012904D10122F4
:10262000284B80335A6003E00022264B80335A60E7
:1026300004220240002A08D0012903D10122214BA3
:102640005A6102E000221F4B5A6108220240002A10
:102650000AD0012904D100221A4B40331A6303E047
:102660000122184B40331A6310220240002A0AD07C
:10267000012904D10122134B80339A6103E0002227
:10268000104B80339A6120220240002A0AD001298F
:1026900004D101220B4B8033DA6103E00022094BA5
:1026A0008033DA61002905D0074A12780243064BCD
:1026B0001A7006E0FF224240034B1B781A40024B7F
:1026C0001A7070470042005074000020F8B50546AB
:1026D0000E46330002F048FA09171606360E363653
:1026E000361836007D23DB00052201212846FFF73E
:1026F000EBFE28E07D23DB00052232212846FFF790
:10270000E3FE20E000BF00BF0127AD06AD0E104C78
:1027100015E02846384000280ED0082E01D026703B
:1027200003E0207801214840207021783846FFF7E7
:1027300063FF2846784005467806070E0C34002DC6
:10274000E7D100E000BF00BF02480078F8BD0000FC
:102750001001002074000020FEB5002701253F2055
:102760000190494C20462030007C00287ED17BE03F
:1027700001982840002874D02078022108400028C1
:102780006CD004F003FD0646A168B14259D8207808
:10279000C007C00F002815D0A0786421081AC0B265
:1027A0000290207840084000207000212846FFF762
:1027B00023FF207804210840002819D16078401EAA
:1027C000607015E06078002809D120780421084065
:1027D000002804D1207802214840207008E0A07829
:1027E000029020780121084320702846FFF704FF5B
:1027F00020780221084000280CD0A188029A514379
:1028000008466421FDF79AFC80B2009000983018C9
:10281000A0601AE0002000901C48007828400028A2
:1028200001D0012000E0002001462846FFF74EFFBE
:102830002846FF2148401549097808401349087087
:1028400003E02089801B80B20090002F05D0009803
:10285000002803D00098B84200DA009F0198684031
:1028600001906806050E0C34019800E00AE000288B
:1028700000D07DE7002F05D03A462021044800789B
:1028800004F0CBFEFEBD0000100100207600002009
:102890006800002010B5002000F00AFA044600BFCE
:1028A000002C01D002F0C2FD00BF10BDF8B5002021
:1028B0000090002686E0684604780A2C02D0204664
:1028C00000F0C6F80D2C40D00A2C3ED041480068DC
:1028D000002813D1082005F0FBF83E49086000BF2E
:1028E00008460068002801D102F0A0FD00BF0020CA
:1028F00038490968086037490968888035480068A0
:1029000080887F2821DA334800680068002805D1D4
:10291000802005F0DDF82F490968086000BF2D48C8
:1029200000680068002801D102F080FD00BF29483E
:1029300000688188274800688088401C254A126802
:10294000908024480068006844540D2C0CD10A2063
:1029500000F07EF81F480068002805D01D48006878
:102960000068002800D00126012E2BD10021194833
:1029700000688288174800688088401C154B1B68D7
:1029800098801448006800688154082004F0F4FC22
:10299000054600BF002D01D102F048FD00BF012017
:1029A00028700C4800680068686029460A4800786A
:1029B00004F0B8FD0748006804F0D6FF0020054980
:1029C000086000266946002000F09AF8002800D12F
:1029D00071E7F8BD6C0000201400002070B50024E1
:1029E0001A48006800282FD01AE0002C03D10020DC
:1029F00000F030FA0446002C11DD00BF13480068D7
:102A000004F003FC05462946002000F0D9F900280F
:102A100001D002F00BFD00BF601E84B200E005E0B3
:102A20000A48006804F01EFC0028DED100BF0748F9
:102A3000006804F017FC002806D10448006804F080
:102A4000D1FB00200149086070BD0000700000202B
:102A500010B5044610480068002803D104F0B4FB08
:102A60000D49086000BF0C480068002801D102F041
:102A7000DDFC00BF00BF21460748006804F0F5FBFD
:102A8000002801D102F0D2FC00BF01214902034815
:102A9000007804F091FD10BD700000206800002057
:102AA0007CB505466946284602F030FD06460024FE
:102AB00005E06946085DFFF7CBFF601CC4B2B44275
:102AC000F7DB7CBD10B5044603E02078641CFFF7FB
:102AD000BFFF20780028F8D110BDFEB50546694635
:102AE000284604F02DFE0646002405E06946085DF0
:102AF000FFF7AEFF601CC4B2B442F7DBFEBD0000BE
:102B000030B50246012A01DD052030BD1C205043AE
:102B10001E4B185C002801D10220F6E71C20504310
:102B20001A4BC01883891C205043184C0019408947
:102B3000834227D01C2050432346C01883891C2081
:102B4000504300198089401C84B21C2050430F4D13
:102B5000401984811C2050432C4600194068C05CF9
:102B600008701C2050432346C01883891C20504302
:102B700000190089834207DB00231C205043001901
:102B8000838101E00320C0E70020BEE7D8000020D9
:102B90007FB50446FF25434903C90391029041488C
:102BA0000830006801903F480C3000680090A00099
:102BB00002A90858C669681C3040002818D00FE0E8
:102BC000A00002A908580068C5B22946204602F0B4
:102BD00065FC60006A46115A3348007804F0ECFC4A
:102BE000A00002A90858C069C007C00F0028E7D19B
:102BF000012040023040002852D01C2060432B4965
:102C00004018018B1C206043284A8018C08A8142EA
:102C100035D01C20604311464018018B1C206043B6
:102C20008018008B401C82B21C2060431F4BC018D0
:102C300002831C2060431A4680180069455C1C20F2
:102C4000604311464018018B1C2060438018808A25
:102C5000814204DB00211C2060438018018300BFF7
:102C6000A00002A9085880690121C9050840C00DCB
:102C70000028F5D1A00002A90858056009E0A000CD
:102C800002A90858406802218843A10002AA5158AD
:102C90004860600001AA115A0348007804F08CFCD7
:102CA0007FBD0000D07D000068000020D80000201B
:102CB00010B50446012C01DD052010BD1C20604329
:102CC0003749085C012800D1F7E7002C26D13549A7
:102CD0001C206043324A8018416008211C20604358
:102CE0008018018130491C2060438018016108214F
:102CF0001C206043801881822C4801F06AFCE1218D
:102D000049022B4801F05CFD294840681121084325
:102D1000274948600C2001F055FA28E0012C26D103
:102D200024491C2060431E4A8018416010211C2049
:102D300060438018018120491C2060438018016194
:102D400008211C206043801881821848401C01F033
:102D500040FCE1214902194801F032FD1748406862
:102D600011210843154948600D2001F02BFA00217C
:102D70001C2060430A4A801841811C20604380184F
:102D800081811C2060438018C1821C206043801810
:102D9000018301211C206043115400208DE70000B5
:102DA000D80000205000002058000020100000042F
:102DB00000000540C8000020600000200000154011
:102DC0003CB502460B46214C11CC01940090012ADF
:102DD00001DD05203CBD1C2050431D4C205C00281B
:102DE00001D10220F6E71C205043194C0019C18A7A
:102DF000481C81B21C2050430019808A884200DCA4
:102E000000211C205043124C0019008B884201D134
:102E10000420DFE71C2050430D4C001904691C20DE
:102E200050430B4D4019C08A23541C2050432C465C
:102E30000019C18290006C4620584068022420434B
:102E400094006D462C5960600020C3E7C87D0000E7
:102E5000D800002010B501460023012901DD002023
:102E600010BD1C204843134C205C002800D1F7E71C
:102E70001C2048430F4C0019C28A00BF501C82B26C
:102E80001C2048430B4C0019808A904200DC002231
:102E90001C204843074C0019008B904201D0581C5D
:102EA00083B21C204843034C0019008B9042E5D1AB
:102EB0001846D5E7D8000020014908707047000087
:102EC0006800002070B506460C460120C003204073
:102ED000002815D0304604F0F1FA054609E02846EE
:102EE00002F00CFB284604F05EFA304604F0E6FAE5
:102EF0000546002DF3D120460121C903484070BD8D
:102F0000012080022040002806D0FEF769FD2046FF
:102F1000012189024840F2E70120C0022040002838
:102F200006D0FEF7AFFE20460121C9024840E6E781
:102F3000FF2001302040002806D0FFF7B7FC2046D4
:102F4000FF2101314840DAE70120400220400028FB
:102F500006D0FFF743FD2046012149024840CEE755
:102F600040202040002805D0FEF760FF2046402189
:102F70004840C4E720202040002805D0FFF7ECFBA4
:102F8000204620214840BAE710202040002805D0E4
:102F9000FFF760F9204610214840B0E70020AEE777
:102FA00010B5FFF767FA10BD10B5044604A001F094
:102FB000B7FD204604F058FB02F038FA10BD0000BF
:102FC000496E2048617264204661756C74204861C6
:102FD0006E646C65720A000070B5054600240B48EB
:102FE0000068002804D02846084909688847044634
:102FF000002C03D12846FDF737FC044600BF002C07
:1030000001D102F013FA00BF70BD0000440000209F
:1030100070B505460C460AA0FEF76EFE2846FEF780
:103020006BFE0BA0FEF768FE002C02D02046FEF7D8
:1030300063FE08A0FEF760FE07A0FEF75DFE70BD10
:1030400041542B43574A41505F4355523D220000A3
:10305000222C2200220000000D0A000010B502A060
:10306000FEF74AFE10BD000041542B43575141501A
:103070000D0A000010B5044604A0FEF73DFE2046F0
:10308000FEF745FE05A0FEF737FE10BD41542B4369
:10309000574D4F44455F4355523D00000D0A000017
:1030A00010B502A0FEF728FE10BD000041542B43CE
:1030B000575354415254534D4152543D330D0A001D
:1030C00010B502A0FEF718FE10BD000041542B43BE
:1030D0005753544F50534D4152540D0A00000000B5
:1030E00010B502A0FEF708FE10BD000041542B43AE
:1030F0004950434C4F53450D0A000000FEB50446AD
:103100000D4616460D4A07CA6B4607C30CA0FEF7CC
:10311000F3FDA1006A465058FEF7EEFD0CA0FEF745
:10312000EBFD2846FEF7E8FD0AA0FEF7E5FD304678
:10313000FEF7EDFD08A0FEF7DFFDFEBDBC7D000043
:1031400041542B43495053544152543D22000000F6
:10315000222C2200222C00000D0A000010B504468B
:1031600004A0FEF7C9FD2046FEF7D1FD04A0FEF73E
:10317000C3FD10BD41542B43495053454E443D00BF
:103180000D0A000070B505462846FDF73DF8401CC5
:1031900086B2082004F0F0F8044600BF002C01D1EC
:1031A00002F044F900BF02202070304604F090FC89
:1031B000606000BF6068002801D102F037F900BFED
:1031C00060683246294604F0BFF82146024800787C
:1031D00004F0A8F970BD00002C00002070B5054671
:1031E0002846FDF711F8401C86B2082004F0C4F808
:1031F000044600BF002C01D102F018F900BF0120E5
:103200002070304604F064FC606000BF60680028F5
:1032100001D102F00BF900BF60683246294604F084
:1032200093F821460248007804F07CF970BD000054
:103230002C00002070B50546042004F09DF80446DB
:1032400000BF002C01D102F0F1F800BF0520207072
:10325000658021460248007804F064F970BD0000E2
:103260002C00002010B504210248007804F0A4F9D5
:1032700010BD00002C0000200148008870470000AD
:103280002E00002010B504460F480068002804D125
:10329000142004F01DFC0C49086000BF0A480068B7
:1032A000002801D102F0C2F800BF142221460648CE
:1032B000006804F049F852200449088001210448BC
:1032C000007804F079F910BD3800002030000020AB
:1032D0002C00002070B50546042004F04DF804468B
:1032E00000BF002C01D102F0A1F800BF0320207024
:1032F000658021460248007804F014F970BD000092
:103300002C00002070B50446002C01D1012070BDB6
:103310002068002801D10120F9E731480068002821
:1033200001D00320F3E7102004F0D2FB2C49086001
:1033300000BF08460068002801D102F077F800BFFE
:103340002068FCF761FF401C85B2284604F0C0FBF2
:1033500023490968086000BF214800680068002808
:1033600001D102F063F800BF1D4A2168126810689D
:103370002A4603F0E9FF6068002803D1184909686C
:1033800048601AE06068FCF73FFF401C85B22846A1
:1033900004F09EFB12490968486000BF10480068AD
:1033A0004068002801D102F041F800BF0C4A616872
:1033B000126850682A4603F0C7FF0949E0680968A7
:1033C000C8600749A06809688860422005490880EC
:1033D00001210548007804F0EFF8002097E700008D
:1033E00034000020300000202C00002010B50848D8
:1033F0000068002801D1032010BD42200549088043
:1034000001210548007804F0D7F80020F4E7000017
:103410003C000020300000202C00002070B5044645
:10342000002C01D1042070BD2068002801D10420A7
:10343000F9E7A088002801D10420F4E727480078A4
:103440000006000F042801D00120ECE724480068A2
:10345000002801D00220E6E7142004F039FB2049BF
:10346000086000BF08460068002801D101F0DEFFB7
:1034700000BF2068FCF7C8FE401C85B2284604F057
:1034800027FB17490968086000BF154800680068F5
:10349000002801D101F0CAFF00BF114A216812685B
:1034A00010682A4603F050FFA0880D4909688880FB
:1034B0000B49A068096888600949E0680968C86024
:1034C0000749206909680861064807490880012101
:1034D0000648007804F070F80020A4E72E000020D1
:1034E0003C00002042020000300000202C000020A0
:1034F00010B504460E4800780007000F02280BD1D3
:103500000B4800780006000F042805D10848008801
:103510000005000F022800D010BD204600F07EFDFF
:1035200020210448007804F047F800BFF4E70000C9
:103530002E0000202C00002010B504460E48007814
:103540000007000F02280BD10B4800780006000F7F
:10355000042805D1084800880005000F022800D083
:1035600010BD204600F05AFD20210448007804F0E8
:1035700023F800BFF4E700002E0000202C000020FC
:1035800010B50446104800780007000F02280BD140
:103590000D4800780006000F042805D10A4800886D
:1035A0000005000F022800D010BD03E02078641C45
:1035B00000F034FD20780028F8D12021034800785D
:1035C00003F0FAFF00BFEFE72E0000202C000020E0
:1035D000FEB50646144800780007000F02280BD1FC
:1035E000114800780006000F042805D10E48008815
:1035F0000005000F022800D0FEBD6946304604F0E9
:103600009FF80546002405E06946085D00F006FDC8
:10361000601CC4B2AC42F7DB20210448007803F000
:10362000CBFF00BFE8E700002E0000202C000020A8
:1036300010B504460B48047000200B490880022096
:103640000A49088000200A4908600A4908600A49B6
:1036500008600A4908607D22D2001021204603F04C
:10366000DCFF10BD2C0000202E00002030000020C8
:1036700034000020380000203C00002040000020E2
:10368000F8B506460C460120C0032040002815D09E
:10369000304603F013FF054609E0284600F016FC0B
:1036A000284603F080FE304603F008FF0546002D53
:1036B000F3D120460121C9034840F8BDE007C00FFF
:1036C000002807D03B493C4800F0C8FC20460121B7
:1036D0004840F2E710202040002805D0FEF758F9B6
:1036E000204610214840E8E720202040002822D032
:1036F000314800883149884204D02F480088304939
:10370000884214D12F480068002810D000BF2A48F2
:1037100000880121090308432749088000BF294880
:10372000006803F09FFD87B23846FFF717FD20467B
:1037300020214840C1E704202040002819D021481A
:103740000068002808D01F48006803F08BFD87B28E
:103750003846FFF703FD08E000BF17480088012145
:10376000090388431449088000BF204604214840CB
:10377000A3E70220204000280CD000BF0E4800889C
:103780000121490308430C49088000BF204602215B
:10379000484092E708202040002808D00020064931
:1037A0000880FFF78DFC20460821484085E700206F
:1037B00083E70000300000202E00002042020000BD
:1037C000422200004000002070B50546F848058000
:1037D000622D7BD010DC222D5CD006DC012D23D0A5
:1037E000022D78D0122D73D10FE3322D36D0422D19
:1037F0006FD0522DF7D198E1FF210331681A8D4225
:1038000068D006DC722D7DD0822D7CD0922DEAD13D
:10381000BCE2402878D0FF384138002875D0FF3806
:1038200001380028DFD161E1E2A0FFF74BF900BFCA
:10383000E6480068002801D001F0F8FD00BF00BF95
:10384000E3480068002801D001F0F0FD00BF00202F
:10385000D74908800120FFF70DFCE1E2DDA0FFF76A
:1038600031F900BFE0480068002801D101F0DEFD19
:1038700000BF00BFD5480068002801D001F0D6FD88
:1038800000BF00BFD2480068002801D001F0CEFD83
:1038900000BFC5E2D5A0FFF715F900BFD248006808
:1038A000002801D101F0C2FD00BF00BFC748006879
:1038B000002801D001F0BAFD00BF00BFC448006875
:1038C000002801D001F0B2FD00BFA9E242E102E010
:1038D000A3E2A6E09DE200BFBD480068002801D039
:1038E00001F0A4FD00BFB948006800281BD0B7480C
:1038F00000680068002804D0B4490968086804F02A
:1039000033F803E02AE13EE14BE056E0AF480068BF
:10391000C468AE48006804F027F80020AB4908608E
:10392000002C00D0A047B0480068002835D0AE4831
:103930000068C068002803D0B8A0FFF7C3F802E011
:10394000BDA0FFF7BFF8A84800680068002808D0AD
:10395000A5490968086804F007F80020A249096829
:103960000860A14800684068002808D09E4909689E
:10397000486803F0F9FF00209B49096848609A48AD
:10398000006884689848006803F0EEFF00209649BC
:103990000860002C04D0A04702E0ADA0FFF792F829
:1039A0003EE2B1A0FFF78EF800BF8948006800280A
:1039B00001D001F03BFD00BF32E200BF8A48006841
:1039C000002801D101F032FD00BF00BF7F48006830
:1039D000002801D101F02AFD00BF00BF7C4800682B
:1039E000002801D001F022FD00BFA7A0FFF76AF870
:1039F000764800680068002808D07449096808689B
:103A000003F0B2FF00207149096808606F48006840
:103A1000846800206D4909688860002C00D0A047A8
:103A2000FEE17148006800282DD06F480068C0682A
:103A3000002828D09BA0FFF745F86B480068006875
:103A4000002808D068490968086803F08DFF002045
:103A5000654909680860644800684068002808D023
:103A600061490968486803F07FFF00205E490968E2
:103A700048605D480068C46800205B490968C86008
:103A8000002C00D0A04751480068002822D04F48A1
:103A900000688068002803D087A0FFF713F802E0D1
:103AA0008EA0FFF70FF8494800680068002804D08E
:103AB00046490968086803F057FF44480068C4682D
:103AC0004248006803F050FF002040490860002C85
:103AD00000D0A0473E480068002806D03C48006857
:103AE00003F080FB00203A49086099E182A0FEF7CC
:103AF000E9FF00BF3C480068002801D101F096FCB6
:103B000000BF00BF31480068002801D101F08EFCE1
:103B100000BF2F480068002806D02D48006803F039
:103B200061FB00202A4908607AE17BA0FEF7CAFF0A
:103B300000BF80480068002801D101F077FC00BF79
:103B40007C4800680068002803D07A490968086842
:103B5000804765E178A0FEF7B5FF61E17DA0FEF743
:103B6000B1FF002012490880FFF7AAFA00BF714890
:103B70000068002801D101F059FC00BF00206D4908
:103B8000096808614CE17AA0FEF79CFF0020084913
:103B90000880FFF795FA00BF66480068002801D149
:103BA00001F044FC00BF002062490968C86037E1A9
:103BB0002E00002057692D466920696E697469617D
:103BC0006C697A696E672E0D0A0000003C000020C7
:103BD0004000002057692D466920636F6E6E656353
:103BE00074696E672E0D0A003400002057692D4657
:103BF0006920636F6E6E65637465642C20776169FC
:103C000074696E67204448435020746F2061737359
:103C100069676E2049502E0D0A00000057692D4635
:103C20006920636F6E6E656374206661696C75727E
:103C3000652E0D0A0000000057692D466920646951
:103C400073636F6E6E65637465642E0D0A00000009
:103C500057692D466920696E697469616C697A6576
:103C6000642E0D0A00000000536F636B65742063BF
:103C70006F6E6E656374696F6E206F70656E696ECE
:103C8000672E0D0A00000000536F636B657420639C
:103C90006F6E6E656374696F6E206F70656E6564BC
:103CA0002E0D0A0057692D466920636F6E6E65639D
:103CB0007465642E0D0A0000536F636B6574206396
:103CC0006F6E6E656374696F6E206F70656E2066CF
:103CD00061696C7572652E0D0A000000536F636B8D
:103CE000657420636F6E6E656374696F6E20636CBC
:103CF0006F7365642E0D0A00436C6F73696E6720E5
:103D0000736F636B657420636F6E6E656374696F48
:103D10006E2E0D0A0000000057692D466920706163
:103D20006972696E672077616974696E672E0D0A22
:103D3000000000003800002057692D46692070619E
:103D40006972696E6720737461727465642E0D0AFE
:103D50000000000057692D46692070616972696E24
:103D60006720737563636573732E0D0A000000008E
:103D700057692D46692070616972696E67206661B6
:103D8000696C7572652E0D0A0000000033A0FEF705
:103D900099FE39480068C06800280DD03648006890
:103DA0000069002808D134480068C46800203349FD
:103DB0000880FFF753F91DE02F48006800690028CC
:103DC00008D02D480068C068002803D12A48006840
:103DD00004690FE0284800680069002808D02648D8
:103DE0000068C068002803D023480068046901E027
:103DF00001F01CFB2048006803F0B6FD00201E49BE
:103E00000860002C00D0A0470AE01DA0FEF75AFE73
:103E100006E021A0FEF756FE02E001F007FB00BF1E
:103E200000BF164800882749098888420DD02548D8
:103E30000088002811D01148008800280DD00121E9
:103E40002148007803F0B8FB07E000201D490880F6
:103E500001211D48007803F09FF970BD57692D4678
:103E6000692070616972696E672073746F70706524
:103E7000642E0D0A00000000380000202E000020F3
:103E800057692D466920646973636F6E6E6563744C
:103E9000696E672E0D0A000057692D466920646916
:103EA00073636F6E6E6563746564207768656E20FA
:103EB0006F70656E696E6720736F636B65742E0D2E
:103EC0000A000000300000202C00002010B504463D
:103ED0002078030000F048FE06040B21373B5E62A9
:103EE0006068FFF779F8606803F03EFD59E000BFB5
:103EF0002D480068002801D101F098FA00BF2A4837
:103F000000684068002804D06068274A1268516839
:103F10008847606803F028FD43E000BF224800683E
:103F2000002801D101F082FA00BF1F4800688068B4
:103F3000002804D060681C4A12689168884760684D
:103F400003F012FD2DE06088FFF73EFC29E000BF82
:103F5000164800880121490388431449088000BF9E
:103F600000BF13480068002801D101F05FFA00BFCC
:103F70000F4800680069002805D0618860680C4B14
:103F80001B681A6990476068002802D0606803F0D7
:103F9000EBFC06E0608800F00DF802E001F046FA64
:103FA00000BF00BF10BD0000380000202E00002020
:103FB0003C00002070B5044600BF17480068002888
:103FC00001D101F033FA00BF00BF1348006803F0CD
:103FD00049F980B2A04201DA01F028FA00BF0025B9
:103FE00009E00D48006803F010F906463046FDF779
:103FF000A1FE681C85B2A542F3DB0748006803F008
:1040000031F980B2002806D10348006803F0EAF8CD
:1040100000200149086070BD4000002010B5044632
:104020000D480068002803D103F0CEF80A49086063
:1040300000BF09480068002801D101F0F7F900BF6E
:1040400000BF21460448006803F00FF9002801D1A1
:1040500001F0ECF900BF10BD4000002070B504462F
:104060000D4620882988884200D170BD2888022802
:104070007CD0422806D0522834D04F49401800281E
:1040800073D15EE020780007000F022829D1207844
:104090000006000F002804D020780006000F092831
:1040A0000ED14648006800281BD000202080434ADB
:1040B00012685168414A12681068FEF7A9FF10E0C3
:1040C00020780006000F04280BD120880005000F7F
:1040D000022806D120880013002802D12080FEF794
:1040E000FFFF66E020780007000F022828D1207823
:1040F0000006000F002804D020780006000F0928D1
:1041000004D100202080FEF7CBFF19E020780006C4
:10411000000F042814D120880005000F002803D1C7
:104120002080FEF79BFF0BE020880005000F02288F
:1041300006D120880013002802D12080FEF7D0FF8E
:1041400037E0208842280ED11D48006800280AD098
:10415000002020801A480068828819480068016899
:104160000020FEF7CBFF24E000E01FE020780007EE
:10417000000F022819D120780006000F042814D15E
:1041800020880005000F002803D12080FEF766FF7D
:104190000BE020880005000F022806D120880013BC
:1041A000002802D12080FEF79BFF02E001F03EF9DB
:1041B00000BF00BF00BF58E7BEFDFFFF3400002076
:1041C0003C000020C206D20E01219140014A11603C
:1041D0007047000000E100E0FFB59BB005460C46CB
:1041E000634801460EC9C06815AE0EC61890012777
:1041F000FF20149044225E49103103A8FBF7C8FF4A
:104200005C4802905C4885420ED15C4840690221BE
:104210002140032212078A40104021460222114009
:104220001C31C8401A900CE05448C069022121405A
:1042300030228A401040214602221140091DC84008
:104240001A901A98022805D100F0ECF94C48006841
:10425000199004E01A98800015A9085819902BE0CD
:104260001D991998FBF76AFF39460190FBF766FF25
:10427000064601200006864200D91BE03D48301862
:104280000002000E14901498032801DA0220149002
:1042900030461499FBF752FF06460120000486427F
:1042A00007D8012E02D10120029001E0B0B20290A5
:1042B00004E000BF7806070E112FD1DB00BF149871
:1042C0007843029A504301461998FBF737FF064698
:1042D0001498401EC0B214900298401E80B2029002
:1042E000B80003A90F5C28686108CA00FF2191404B
:1042F00088436108CA00149991400843286068689F
:10430000A200072191408843A2003946914008430A
:104310006860A96862080120800790408143A96015
:10432000A868E200082191400843A8601E98002870
:104330000ED0029A521C1E99514308466421FBF785
:10434000FDFE401E0C2161432A461032505005E00C
:1043500000210C2060432A46103211500C21614389
:104360002A460C320298505030461FB0F0BD000073
:10437000107D0000FFFF000000000440000200501C
:1043800000000020C26F8A43C2677047C26F0A43B1
:10439000C267704730B502460023002009E00124BF
:1043A00084400C40002C03D0C5000124AC402343C2
:1043B000401C0428F3D394681C43946030BD30B58E
:1043C000024600200BE0012383400B40002B05D068
:1043D00000250C23434314460C34E550401C0428AC
:1043E000F1D330BD10B500BF06E059205049086038
:1043F00016200860882008604D4800680128F4D124
:1044000000BF0420FDF7F8F81020FDF76FFA002137
:104410000720FDF709FA4748FDF7B6F900F002F961
:104420004548FDF715F80022012109064248FDF72D
:104430002BFA05200007C06B4049084005210907F9
:10444000C8630846C06B0321084305210907C863F8
:104450003948401CFCF7FCFF0022012109063648C0
:10446000401CFDF711FA05200007406B3449084055
:104470000521090748630846406B03218902084368
:104480000521090748632F48FCF7E2FF00220121BC
:1044900049022C48FDF7F8F92B48FCF7D9FF002218
:1044A000032109072848FDF7EFF905200007806B75
:1044B000FF21013188430521090788630846806B85
:1044C000FF21013108430521090788631848C038D6
:1044D00000681E4908401649C0390860084600684F
:1044E0001B4908401249C039086000BF002010492C
:1044F000086000BF7D22D200C904164800F008F908
:1045000000BF1448006801214907084311490860A9
:1045100000BF0820012181400F4A116000BF00BF89
:104520000C480068910508430A49086000BF10BDA7
:104530000001005080F0FA02103D8057FCFCFFFFA4
:10454000F3F3FFFF0200805E1400C057BFBFFFFF00
:104550007F7FFFFF0000014000E100E01CB515482F
:10456000019000200090FDF70DFA0BE01248406921
:10457000002801D1012000E00020012802D100988C
:10458000401C00900198411E01910028EED109497C
:10459000009888420DD1FDF701FA0848019000BF4C
:1045A0000198411E01910028FAD1FDF7F1F900BFF1
:1045B000FEE71CBDFFFF2F0080420050FFFF0F00F1
:1045C000052000078068012108430521090788604C
:1045D0007047010E0522120789188968012282405E
:1045E0001143020E05231B07D2189160010E1A46D3
:1045F00089188A68012181408A43010EC9188A609E
:104600007047000006E05920054908601620086040
:1046100088200860024800680128F4D17047000033
:104620000001005070B51248006945076D0FFCF796
:10463000EBFF10490860022D03D0A8000E490C586A
:1046400001E00C4804680A4880690007000F461C16
:1046500031462046FBF772FD0849086008490748C3
:1046600000684A108018FBF769FD0649086070BDB4
:1046700000020050080000209C7C00000000002088
:1046800040420F00040000207047000030B589B0A0
:1046900005462022194901A8FBF77AFD18488542F2
:1046A00006D118484069072109020840040A1AE0A7
:1046B00013482030854206D112484069072109037A
:1046C0000840040B0FE01048854206D10D484069B0
:1046D000072109040840040C05E00A484069072145
:1046E00009050840040D022C03D10848006809B0F0
:1046F00030BDA00001A90858F9E70000647D000062
:1047000000000140000200500000114000000020A5
:10471000FEB505460F4616462846FFF7B7FF044686
:104720000020019000906008B04202D20220019067
:104730001BE001208006844203D307200090E40898
:104740000EE001204006844203D303200090A40819
:1047500006E001200006844202D301200090640894
:1047600031462046FBF7EAFC019000983843286068
:1047700001986860009A521C0198504301462046F7
:10478000FBF7DCFCFEBD000010B500BF06488068EA
:10479000C007C00F002806D000BF01200249886072
:1047A00000BF02F0ADFB10BD0000014010B50020BD
:1047B000FEF7EEF910BD10B50120FEF7E9F910BDC6
:1047C000F0B587B004460D46274801460EC9C068BB
:1047D00003AE0EC6069000200290244840690321D3
:1047E00009060840060E214880690F210902084089
:1047F000070A002020630320E060A0681C490840ED
:10480000A060012E04D1FCF77FFFB10003AA505035
:10481000002D26D0B10003AA5058791CFBF78EFC5E
:104820006908401829460190FBF788FC801E029019
:104830001049029888420FD9B10003AA5058791C38
:10484000FBF77CFCE900401829460190FBF776FC59
:104850000009801E606204E00321090702980843F2
:10486000606207B0F0BD0000847D000000020050CF
:104870000FFFF0FFFFFF0000FEB507460D462B4877
:104880000078032800D0FEBD0026002D06D0284663
:10489000FBF7BAFC86B27B2E00DD00268820029052
:1048A000B01C80210843C0B201900298FEF720FEA0
:1048B0000198FEF71DFE1E490878FEF719FE1C49F7
:1048C0004878FEF715FE1A498878FEF711FE184958
:1048D000C878FEF70DFE3904090E154A12785140CA
:1048E0000846FEF705FEF9B2114A527851400846D3
:1048F000FEF7FEFD002412E0A11C0091C9178A0FEB
:104900000099511889108A000099891A084A515C47
:104910002A5D51400846FEF7EBFD601C84B2B442AC
:10492000EADB04200149087000BFACE72400002046
:10493000B87D000070B586B00446002C02D104207A
:1049400006B070BD206800280ED0606800280BD02B
:104950002089002808D0E068002805D020690028B8
:1049600002D06069002801D10420E9E7FEF784FC49
:1049700005462807000F022803D12806000F042847
:1049800001D00120DCE72805000F002801D002201B
:10499000D6E700BF3B480068002801D000F046FD84
:1049A00000BF182003F094F83649086000BF08469D
:1049B0000068002801D100F039FD00BF2068FBF736
:1049C00023FC401C86B2304603F082F82D4909686A
:1049D000086000BF2B4800680068002801D100F083
:1049E00025FD00BF274A216812681068324602F090
:1049F000ABFC6068FBF708FC401C86B2304603F055
:104A000067F820490968486000BF1E480068406890
:104A1000002801D100F00AFD00BF1A4A616812683F
:104A20005068324602F090FC2089164909680881D6
:104A30001449E0680968C8601249606909684861FA
:104A400010492069096808610E48006840680190B3
:104A50000C4800680089694608810B4804900B489F
:104A600003900B48059000BF01A8FEF7D7FC002873
:104A700001D000F0DBFC00BF0120064908700020D7
:104A80005EE7000028000020955F0000E55F000061
:104A90003961000024000020FEB507461E4800785A
:104AA000032800D0FEBD3846FBF7AEFB85B27D2D56
:104AB00000DDF7E781200190E8B2802108430090F3
:104AC0000198FEF715FD0098FEF712FD13490878CE
:104AD000FEF70EFD11494878FEF70AFD0F49887868
:104AE000FEF706FD0D49C878FEF702FD00240FE031
:104AF0002646E117890F891989108900611A074A2A
:104B0000515C3A5D51400846FEF7F2FC601C84B2ED
:104B1000AC42EDDB00BFC5E724000020B47D0000FF
:104B20000FB410B503A9044B044A029800F03AF8F8
:104B300010BC08BC04B018471D5400000C00002035
:104B40000FB410B504A9074B02AA039800F02AF885
:104B5000044602A9002000F05FFA204610BC08BC01
:104B600004B018471950000030B47446641E25780C
:104B7000641CAB4204D3635D5B00E31830BC184790
:104B80001D46F8E702E008C8121F08C1002AFAD142
:104B900070477047002001E001C1121F002AFBD1BD
:104BA00070470000FFB591B00F460546002606E0AD
:104BB00025280AD0149A139990476D1C761C2878E2
:104BC0000028F5D1304615B0F0BD00240094012135
:104BD000F34A029400E004436D1C2B780846203B06
:104BE00098401042F7D128782A280ED00221287840
:104BF0000246303A092A15D8009A0A235A43303A15
:104C000080180C436D1C0090F1E701CF0090002844
:104C100005DA01204003044300984042009002203E
:104C200004436D1C28782E2815D10420044368788D
:104C30006D1C2A280AD101CF6D1C02900BE002994D
:104C40000A225143303940186D1C029028780146E1
:104C500030390929F3D928786C2810D006DC4C2883
:104C60001AD068280ED06A2817D104E0742813D00F
:104C70007A2812D110E00120400504430CE0012104
:104C8000090501E0032109050C436978814203D13C
:104C90000120000524186D1C6D1C287803906E28D7
:104CA0001ED00CDC632831D004DC00288AD05828C0
:104CB00011D1B2E064287BD069280CD178E0732848
:104CC0002DD004DC6F2870D0702804D1A7E075289F
:104CD0006CD078286BD0149A13999047761C62E0B8
:104CE0006002400F022807D003280AD00428386841
:104CF0000AD006603F1D56E03868F1170660416033
:104D0000F8E738680680F5E70670F3E73878694613
:104D100008740020487404A80390012003E0386858
:104D200003900020C0433F1D61070FD5002101E023
:104D30000199491C029A0191914213DA8142F7DBF1
:104D4000019A0399895C0029F2D10BE0002101E06E
:104D50000199491C01918142FADB019A0399895C0E
:104D60000029F5D101990098139A401A0090214624
:104D7000149B00F03BF901998019461807E003984D
:104D800003990078491C0391149A1399904701984C
:104D9000401E0190401CF2D12146149B139A0098AA
:104DA00000F014F986196D1C09E741E033E034E0A6
:104DB0000A200021049005916002410F022905D0CC
:104DC00001CFC2179446032905D007E0FF1DFF0855
:104DD000FF0003CF06E000B2C2179446042902D1B7
:104DE00040B2C1178C4600226146944506DA0A4655
:104DF0000021404291418C462D2102E0210504D53D
:104E00002B216A461176012103E0E10701D0202120
:104E1000F7E7019154E00A200BE0102009E0102090
:104E2000049000210420044308200591029003E02F
:104E300008200021059104906002410F022905D04D
:104E400001CF00229446032906D006E0FF1DFF088B
:104E5000FF0003CF8C4603E080B2042900D1C0B22A
:104E60000021019121072BD50399702906D0049ABE
:104E70001021059B4A401A4305D00EE040216A46A6
:104E80001176012108E06146014306D030216A46CF
:104E900011760399517602210191049A0821059B0C
:104EA0004A401A430CD16146014301D1610707D53D
:104EB00030216A461176012101910299491E029121
:104EC0000399582904D037A103910FA90F910DE040
:104ED00039A1F9E76146059B049AFBF7D9F9039BD1
:104EE0008C469B5C0F9A521E0F92137061460143D1
:104EF000F0D10F9807A9081A20300390600704D555
:104F0000012000048443029801E0012002900399EB
:104F1000884201DD401A00E000204118029001980B
:104F200009180098401A0090E00306D42146149B0B
:104F3000139A009800F05AF886190020049008E0AF
:104F400006A9085C149A139990470498401C761C93
:104F5000049001998842F3DBE0030CD52146149BB1
:104F6000139A009800F042F8861904E0149A302051
:104F700013999047761C0299481E02900029F5DC8F
:104F800008E00F980F990078491C0F91149A139913
:104F90009047761C0399481E03900029F1DCFBE63C
:104FA00009280100303132333435363738396162FF
:104FB00063646566000000003031323334353637C3
:104FC000383941424344454600000000F8B50446E4
:104FD00000251E461746880404D405E039462020E3
:104FE000B0476D1C641EF9D52846F8BDFFB50446D0
:104FF000002581B01E46C80301D5302700E02027D8
:10500000880404D505E038460399B0476D1C641E3A
:10501000F9D5284605B0F0BD0A68531C0B60107026
:10502000704738B504462078002802D0012810D1F6
:1050300008E0627869460A70A0784870009800F02D
:105040000DF809E0606800F0AFF8606802F08CFCD1
:1050500002E000F0EBF900BF00BF38BD11B585B02C
:105060006846007D012841D16846407D01280FD166
:1050700000203C4908703CA0FDF724FD00211020D1
:10508000FDF724FB01212020FDF720FB06B010BD19
:105090006846407D022828D101203249087036A098
:1050A000FDF710FD04213848007802F0C8FA00220C
:1050B00011461046FCF766FEFEF7DEF804462007B0
:1050C000000F022810D12006000F04280CD02F4812
:1050D00000902F4804902F4803902F4802902F48AB
:1050E00001906846FEF7CEF8D0E7CFE76846007D2E
:1050F000002818D16846407D082814D10020FCF70C
:105100009FFF01204002FCF79BFF204800902148B0
:1051100003901F4804902048029020480190684660
:10512000FEF7B0F8B2E76846007D002818D168465F
:10513000407D042814D11A48007800280FD07D2320
:10514000DB00322201210820FDF7BEF900201449BE
:105150000870144A04210C48007802F05EFA95E7C2
:1051600000BF93E720000020446F6F7220636C6FD4
:105170007365642E0D0A0000446F6F72206F7065B6
:105180006E65642E0D0A000014000020CD6D000035
:10519000E16B00005D6C0000456D0000896D000052
:1051A000210000208813000010B504462046FFF7B8
:1051B00073FC10BDFFB583B005460F461E4672B6A0
:1051C000002D03D162B6022007B0F0BD002430E00C
:1051D000E0001A490858002829D10F212046FAF783
:1051E000C3FF0120884080B20F2102902046FAF7C9
:1051F000BBFF134909784018C0B201900C980128F0
:1052000001D1104800E010480346059A0299019820
:10521000984700280BD1E00008490D50E0004018E5
:105220004760002E00D0347062B60020CCE7601CCE
:10523000C4B20F2CCCDB62B60820C5E75C010020AD
:10524000B8000020E97500001B76000030B5054667
:105250000B460022002400BFA95C002900D111E008
:10526000501CC2B20A2A01DD002030BD302907DB04
:10527000392905DC0A204443084630380419EBE795
:105280000020F2E700BF002A02DD002B00D01C60E6
:105290001046EAE770B5054600BF002D01D100F0C9
:1052A000C5F800BF082229469001FCF711FF002431
:1052B0000AE0285D002800D108E0285DFF2801D120
:1052C000002403E0601C84B2202CF2DB00BF2046E7
:1052D00070BD70B5054600BF002D01D100F0A6F8E5
:1052E00000BF082229460020FCF7F2FE00240AE055
:1052F000285D002800D108E0285DFF2801D10024A6
:1053000003E0601C84B2202CF2DB00BF204670BD9D
:1053100070B5054600BF002D01D100F087F800BF31
:10532000102229469001FCF7D3FE00240AE0285DF4
:10533000002800D108E0285DFF2801D1002403E007
:10534000601C84B2202CF2DB00BF204670BD30B55B
:1053500089B004460025002C03D02046FAF754FFFC
:1053600085B2202D14DC2022002101A801F0FAFFD3
:10537000002D04DD2A46214601A801F0E5FF0120A9
:105380004002FCF75DFE082201A99001FCF7F6FE41
:1053900009B030BD30B589B004460025002C03D0DB
:1053A0002046FAF731FF85B2202D13DC20220021A0
:1053B00001A801F0D7FF002D04DD2A46214601A8EF
:1053C00001F0C2FF0020FCF73BFE082201A90020EB
:1053D000FCF7D4FE09B030BD30B591B004460025CD
:1053E000002C03D02046FAF70FFF85B2681C402836
:1053F00012DC4022002101A801F0B4FF2A46214618
:1054000001A801F0A1FF01208002FCF719FE102283
:1054100001A99001FCF7B2FE11B030BD70B5044691
:105420000D46E0B2FDF714FB204670BD10B500BF7D
:1054300072B600BF06E059200749086016200860D0
:1054400088200860044800680128F4D100BFFFF7F5
:10545000B7F800BF10BD00000001005010B50121D9
:105460000348FEF7ACFF01210148FEF78BFF10BD9A
:105470000000044010B532237D22120100210648AD
:10548000FEF7AAFE01210448FEF780FF0121024831
:10549000FEF780FF10BD00000000044070B5044618
:1054A0000E461C206043144940184589681C85B28B
:1054B0001C20604340180089A84200DC002500BF82
:1054C0001C2060430C4940188089A84201D1FFF795
:1054D000ADFF00BF1C2060430749401841681C20F5
:1054E0006043054A801840890E541C2060431146D1
:1054F0004018458170BD0000D800002010B504465A
:105500002078FFF793FF00BF00BF10BD03460A4697
:1055100007210EE01807000F5054505C092802DCE8
:10552000505C303001E0505C373050541B09481E4D
:1055300041B20029EEDA0820704710B5FFF70EF8E7
:1055400072B6FEF74FFFFCF765FD01F0EFFE62B6A5
:1055500002F05FF8002010BD70B596B004460D460D
:105560001646684600F066FC32462946684600F05A
:1055700073FC2146684600F003F816B070BD0000C9
:10558000F0B585B004460D462068400F6168C9003B
:10559000084306462068C700684607703804010EB5
:1055A000684641703802010E68468170390EC1703C
:1055B00006713004010E684641713002010E6846E2
:1055C0008171310EC17120788006800E039003989E
:1055D000382803D238210398081A02E0782103986A
:1055E000081A02901F492046029A00F035FC082252
:1055F0006946204600F030FC207A2870208900049B
:10560000000E6870A0680002000EA870A068000E6E
:10561000E870207B2871A0890004000E6871E068A2
:105620000002000EA871E068000EE871207C28726C
:10563000208A0004000E687220690002000EA87221
:105640002069000EE872207D2873A08A0004000EF5
:10565000687360690002000EA8736069000EE87349
:1056600005B0F0BDE07D0000F3B591B000200090E2
:105670000DE000998A0012995018FCF776F900990C
:10568000890001AA50500098401CC0B200900098B8
:105690001028EEDB119884681198C5681198066986
:1056A0001198476930467840284078400199401861
:1056B000FE4940180419E001610E084344192846C8
:1056C00070402040704002994018F9494018C719AD
:1056D0003803390D084307192046684038406840B0
:1056E00003994018F349401886197004F10B0843D8
:1056F000C619384660403040604004994018EE4971
:1057000040184519A805A90A08438519304678406C
:105710002840784005994018E84940180419E001EC
:10572000610E084344192846704020407040069995
:105730004018E3494018C7193803390D08430719C1
:10574000204668403840684007994018DD494018B5
:1057500086197004F10B0843C61938466040304082
:10576000604008994018D84940184519A805A90A69
:1057700008438519304678402840784009994018F8
:10578000D24940180419E001610E08434419284623
:105790007040204070400A994018CD494018C71900
:1057A0003803390D084307192046684038406840DF
:1057B0000B994018C749401886197004F10B08432B
:1057C000C61938466040304060400C994018C249C4
:1057D00040184519A805A90A08438519304678409C
:1057E000284078400D994018BC4940180419E00140
:1057F000610E0843441928467040204070400E99BD
:105800004018B7494018C7193803390D084307191C
:1058100020466840384068400F994018B149401808
:1058200086197004F10B0843C619384660403040B1
:10583000604010994018AC4940184519A805A90ABC
:105840000843851928467040384070400299401836
:10585000A649401804196001E10E08434419204686
:1058600068403040684007994018A1494018C7195E
:105870007802F90D08430719384660402840604017
:105880000C9940189B4940188619B003B10C084385
:10589000C619304678402040784001994018964912
:1058A000401845192805290B0843851928467040DA
:1058B000384070400699401890494018041960011A
:1058C000E10E0843441920466840304068400B9977
:1058D00040188B494018C7197802F90D0843071979
:1058E000384660402840604010994018854940186B
:1058F0008619B003B10C0843C619304678402040E1
:105900007840059940188049401845192805290B09
:105910000843851928467040384070400A9940185D
:105920007A49401804196001E10E084344192046E1
:105930006840304068400F99401875494018C719B1
:105940007802F90D08430719384660402840604046
:10595000049940186F4940188619B003B10C0843E8
:10596000C6193046784020407840099940186A4965
:10597000401845192805290B084385192846704009
:10598000384070400E99401864494018041960016D
:10599000E10E0843441920466840304068400399AE
:1059A00040185F494018C7197802F90D08430719D4
:1059B00038466040284060400899401859494018CE
:1059C0008619B003B10C0843C61930467840204010
:1059D00078400D9940185449401845192805290B5D
:1059E00008438519284670407840069940184F4969
:1059F000401804192001210F08434419204668402B
:105A00007040099940184A494018C719F802790DA1
:105A1000084307193846604068400C9940184549CA
:105A2000401886193004310C0843C61930467840B6
:105A300060400F994018404940184519E805690A27
:105A400008438519284670407840029940183B4920
:105A5000401804192001210F0843441920466840CA
:105A600070400599401836494018C719F802790D59
:105A70000843071938466040684008994018314982
:105A8000401886193004310C0843C6193046784056
:105A900060400B9940182C4940184519E805690ADF
:105AA000084385192846704078404FE078A46AD7AB
:105AB00056B7C7E8DB702024EECEBDC1AF0F7CF532
:105AC0002AC68747134630A8019546FDD8988069B5
:105AD000AFF7448BB15BFFFFBED75C892211906B9F
